:100000008E3304000000000000000000000000002B
:1000100000000000000000000000000000000000E0
:1000200000000000000000000000000000000000D0
:1000300000000000000000000000000000000000C0
:1000400000000000000000000000000000000000B0
:10671C00AFC72400F0FF270020A0B7001000200016
:10672C0034A0B700400020004420B700AE33020074
:10673C0000000000B833020000000000DBFF07007F
:10674C00CAFF070081FF0700FEFF3700FFFF37007D
:1066B8008A1F78008B1F78008C1F78009EFF0700C8
:1066C80040792800800578001420EF0089FF070032
:1066D8000B5822000C0020000AC2B30060FF07001C
:1066E8002BC0B3005A85200026FF07003800200081
:1066F800578D20000E20ED00FEFF3A001020ED001F
:10670800FCFF3A004F067800CF0578004F05780067
:046718000000060077
:10654000A70620000E20ED00FEFF3A00000000002C
:0865500000000000000006003D
:1064FC008A1F7800080037000B05780091F9070017
:10650C000A0037000B05780040F907000700370038
:10651C0010C0B300050037006054E100F6FF3200F4
:10652C006154E100F7FF3200F9FF37004F057800A6
:04653C000000060055
:104B50008A1F78008B1F78001A05BE008AF70700AD
:104B600000C0B300CF0578004F05780000000600B4
:102988000400FA00C8FC0700C4FC0700421F20002E
:1029980003002000B8FC07000001BE00829FBE00B3
:1029A8008A9FBE000200BE00026829008309200039
:1029B8000002EB0054FC07004F05BE004F01BE00AB
:1029C80000079800110798000200BE000A01BE0027
:1029D8000002EB004CFC07000001BE00600047004D
:1029E80030015100A081590061005100E080590078
:1029F800A010880017E2A800E0FC07001822EF00EA
:102A0800D7FC0700D1FC07000080FA000000060090
:101CB0000000FA0040BE200030108900C0962000CD
:101CC00070448800C0BB200060448800409E200013
:101CD00050448800C0B7200080448800009D200048
:0C1CE000904488000080FA00000006001C
:0C1CA40000F421000100200000000600F8
:101D840038002000578D20000E20ED00FEFF3A00A1
:0C1D94001020ED00FCFF3A0000000600EB
:101D68000000FA0096FE07000000E20001003A00B9
:0C1D7800FCFF37000080FA0000000600AD
:1017C8000000FA000260EF001602AF000260EC00B1
:1017D8000060EF001642AF000060EC008180FB0063
:1017E8000080FB00808070000060EF001662AF0090
:1017F8000060EC000080FB00808070000060EF005B
:101808001682AF000060EC000080FB008080700052
:101818000060EF001622AF000060EC000080FB00C3
:10182800808070000060EF0019C2AF000060EC001B
:101838000080FB00008070000000E2000060EF0004
:1018480001003A000060EC000080FB000080FA0014
:041858000000060086
:101D5400000000000000000000000000000000007F
:041D64000000060075
:101C80000000FA00020AB800500088000200B80004
:101C900081004200032AB800810042000080FA005F
:041CA000000006003A
:101B10000000FA0002000700D60D040000000000DB
:101B20000800E20002003A00100007000000060072
:101B3000839F68000200E20002003D006000100088
:101B4000E08018000600E20002003D006001110084
:101B5000E0811900050007004F00E00002003B0093
:101B600060001000E0801800000006006022B8004D
:101B7000060220000000D0008180D2000482D20042
:101B80008582D2000000A8000202520083825A001F
:101B900003003B000202420083824A000000A100D1
:101BA0000603E900F3FF3A00000006000080FA0097
:041BB000000006002B
:104A18008A1F78008B1F78001A05BE00D8F7070098
:104A280000C0B300CF0578004F05780000000600ED
:106468008A1F78008B1F78008C1F78001200370075
:106478000B0578008C05780060F9070019003700D3
:106488000B0578008C057800A2F907001500370085
:106498000B0578008C0578008DF90700110037008E
:1064A8000B0578008C0578008EF907000D00370081
:1064B80010C0B3000B0037006054E100ECFF32005D
:1064C8006154E100EEFF320000C2B3000054E10065
:1064D800EFFF320000C3B3000054E100F0FF3200C8
:1064E800F3FF37004F067800CF0578004F05780096
:0464F800000006009A
:104A0400ADFA0700A0492100F0AC88000020EF00B7
:044A14000000060098
:1034BC000800FA00A049210040448800008E20003A
:1034CC0030448800608D2000D0AC880060992000CA
:1034DC00C0AC88003022EF000000280032A2B700F8
:1034EC003062A900ECF907000001BE00803E20000C
:1034FC0001002000DFF907000001BE00D6F907002B
:10350C004100DE006400400080007800600047004D
:10351C000A88BE008100E900030035001018D000B5
:10352C001090D200FBFF3700829FBE008A9FBE0026
:10353C000200BE000E0190009E0190000002EB0004
:10354C0099F907004F05BE004F01BE0020079800F7
:10355C00310798008A9FBE000200BE000E01900049
:10356C009E0190000002EB0066F907004F05BE00BB
:10357C008001780001027800600047005001D10002
:10358C00C080D300640047003008E1002090E100C7
:10359C000700310061804100E0004A0080027800A1
:1035AC0001037800050178008601780002003700DD
:1035BC0003017800840178000280710033003A0026
:1035CC00B5F907000001BE00803E2000010020007C
:1035DC00A8F907000001BE009FF907004100DE00BA
:1035EC0000A0EC0080007800600047000A88BE0054
:1035FC008100E900030035001018D0001090D200B3
:10360C00FBFF3700829FBE000200BE000E0190003F
:10361C009E0190000002EB0063F907004F01BE0011
:10362C0020079800310798000200BE000E019000A0
:10363C009E0190000002EB0032F907008001780037
:10364C0001027800600047005001D100C080D30017
:10365C00640047003008E1002090E10007003100D1
:10366C0061804100E0004A0080027800010378008C
:10367C00050178008601780002003700030178000C
:10368C00840178003062A80000003700610051000E
:10369C00E0805900C01188003222A90031E2A80054
:1036AC003342A800B4F90700B3F907000080FA0010
:0436BC000000060004
:081C6400200020000000060032
:101BB4000000FA00020007002E0E040000000000DE
:101BC4000800E20002003A001000070000000600CE
:101BD400811F78000200E20002003D006000100056
:101BE400E08018000600E20002003D0060011100E0
:101BF400E0811900050007004F00E00002003B00EF
:101C040060001000E08018000000060002000700D9
:101C14000480BE00000006006022B8000602200016
:101C24000000D0008180D2000482D2008582D200DC
:101C34000000A8000202520083825A0003003B0005
:101C44000202420083824A000000A1000603E90068
:101C5400F3FF3A00000006000080FA0000000600CE
:084B1C0060C0B30000000600B8
:104AD80078FA0700A0492100F0AC88000020EF0018
:044AE80000000600C4
:104AEC009BFB0700C0482100F0AC88000020EF00C1
:044AFC0000000600B0
:10395C000800FA00C048210040448800009620006E
:10396C0030448800008C2000D0AC8800A08C200053
:10397C00C0AC88002022EF000000280022A2B70073
:10398C002062A900C4F807000001BE00803E2000A0
:10399C0001002000B7F807000001BE00AEF80700D8
:1039AC004100DE00640040008000780060004700A9
:1039BC000A88BE008100E900030035001018D00011
:1039CC001090D200FBFF3700829FBE008A9FBE0082
:1039DC000200BE000E0190009E0190000002EB0060
:1039EC0071F807004F05BE004F01BE00200798007C
:1039FC00310798008A9FBE000200BE000E019000A5
:103A0C009E0190000002EB003EF807004F05BE003F
:103A1C008001780001027800600047005001D1005D
:103A2C00C080D300640047003008E1002090E10022
:103A3C000700310061804100E0004A0080027800FC
:103A4C000103780005017800860178000200370038
:103A5C0003017800840178000280710033003A0081
:103A6C008DF807000001BE00803E20000100200000
:103A7C0080F807000001BE0077F807004100DE0067
:103A8C0000A0EC0080007800600047000A88BE00AF
:103A9C008100E900030035001018D0001090D2000E
:103AAC00FBFF3700829FBE000200BE000E0190009B
:103ABC009E0190000002EB003BF807004F01BE0096
:103ACC0020079800310798000200BE000E019000FC
:103ADC009E0190000002EB000AF8070080017800BC
:103AEC0001027800600047005001D100C080D30073
:103AFC00640047003008E1002090E100070031002D
:103B0C0061804100E0004A008002780001037800E7
:103B1C000501780086017800020037000301780067
:103B2C00840178002062A800000037006100510079
:103B3C00E0805900401188002222A90021E2A8004F
:103B4C002342A8008CF807008BF807000080FA00CD
:043B5C00000006005F
:10638C000200FA008A1F78008A007800D0002000F2
:10639C0000479800A0002000104798002500370007
:1063AC0001057800D3F907002900370001007800B7
:1063BC001004E00008003200801F78008A9FBE00A5
:1063CC0000057800CBF907004F05BE004F007800A0
:1063DC000020EC00F6FF37001D00370001007800AC
:1063EC001004E00008003200801F78008A9FBE0075
:1063FC0000057800BFF907004F05BE004F0078007C
:10640C000020EC00F6FF3700600047008A9FBE00BA
:10641C0000057800B7F90700610047000005780017
:10642C00B4F907004F05BE000900370060C0B30087
:10643C0007003700605CE100D9FF3200615CE100CD
:10644C00DAFF3200625CE100E4FF3200F7FF370054
:0C645C004F0578000080FA0000000600E8
:104B00008A1F78001A85FB00F0AC800000000100CD
:0C4B10000020EF004F05780000000600B8
:102918000000FA002302AF0001003700FDFF370076
:0C2928002A1188000080FA000000060060
:102934000000FA003302AF0001003700FDFF37004A
:0C294400AA1188000080FA0000000600C4
:106678008A1F78008B1F78008C1F78003CC3B300FA
:106688002B782800CA6D280029FF070030FF070073
:106698002BC0B300BA8620003AFF0700B7ED070009
:1066A8004F067800CF0578004F05780000000600F7
:10633800908220000C4878008A1F78000B057800AE
:10634800A3FE07004F05780099FA07000000060031
:105DD8001A00780050108900E20045001100780090
:105DE80060108900E40045001100780070108900F7
:105DF800E600450011007800E0AC8800E8004500A6
:0C5E080011007800401089000000060026
:044DB80000000600F1
:106358008A1F78008B1F78008AF12000EFF9070068
:106368000B2122008AF12000B1F907003AC0B300DE
:1063780079F9070081EE0700CF0578004F0578000E
:04638800000006000B
:104B24008A1F78008B1F78008C1F78000A06780093
:104B34000B3420000A402200BCF507004F06780021
:0C4B4400CF0578004F0578000000060047
:102230008206FA008A1F78008D1F7800E2004700AE
:10224000000028007F060900B05878004158DD00E2
:1022500000017800E00047004850DE008048780028
:102260000220EC00F00F200000006500804878009C
:10227000821F78008C1F78008B1F7800FFFE0700FC
:10228000E0004700908220001DC0B3002C00200019
:102290008105780010457800C1FE0700CF05780061
:1022A0004F0678004F01780070FE0700E2004700FB
:1022B000908220008C1F78008B1F78001A20EF007E
:1022C00002067800810578001045780063FD07005C
:1022D000CF0578004F0678000820EF000B20E100C2
:1022E000170031004121DD00820278004120DD002D
:1022F00080004600E2014700028041001080FB00A0
:10230000800878004120DD00800046001100780040
:102310004800DD00800878004120DD000001460013
:102320006180420000804100920078001080FB0034
:1023300000807000000978000820EC00E7FF3700FB
:10234000CF0678004F0578000080FA0000000600F4
:101E7C000200FA00000020000007980051108100B9
:101E8C0001000100E0004700110070000080FA0022
:041E9C00000006003C
:1011D8000000FA000260EF000602AF000260EC00B7
:1011E8000060EF000642AF000060EC008180FB0069
:1011F8000080FB00808070000060EF000662AF0096
:101208000060EC000080FB00808070000060EF0050
:101218000682AF000060EC000080FB008080700058
:101228000060EF000622AF000060EC000080FB00C9
:10123800808070000060EF0009C2AF000060EC0021
:101248000080FB00008070000000E2000060EF00FA
:1012580001003A000060EC000080FB000080FA000A
:04126800000006007C
:10126C000000FA000420EF00007122000010E100E1
:10127C0006003E00D5FF07000000E200010032002E
:10128C00020037000420EC00F7FF37001071220039
:10129C000010E10002003900F00F200003003700BD
:1012AC000602A800CDFE07000020EF000080FA0027
:0412BC000000060028
:100DE8000000FA008620AF0001003700FDFF370041
:0C0DF8008620A9000080FA000000060020
:1012D8000000FA000420EF00007122000010E10075
:1012E80006003E00360107000000E200010032005F
:1012F800020037000420EC00F7FF370010712200CD
:101308000010E10002003900F00F20000300370050
:101318001602A800ABFE07000020EF000080FA00CC
:0413280000000600BB
:100DCC000000FA008A40AF0001003700FDFF370039
:0C0DDC008A40A9000080FA000000060018
:1012C0000000FA0000000000000000002682BF00BD
:0812D0000080FA000000060096
:101180000000FA002282BF00610060000080FA00C7
:041190000000060055
:101194000000FA000020EF002302AF000020EC0062
:0811A4000080FA0000000600C3
:1011C0000000FA0000000000000000003682BF00AE
:0811D0000080FA000000060097
:1011AC000000FA003282BF00610060000080FA008B
:0411BC000000060029
:10132C000000FA000020EF003302AF000020EC00B8
:08133C000080FA000000060029
:101DA0000400FA008A1F7800000020001007980045
:101DB0000B0798000A80FB004100DD008C9FBE00ED
:101DC00000457800E1AC8000010001004F06BE0034
:101DD00062014700E2004700920870008C00780022
:101DE00061005600000678000200E2000F00320099
:101DF0000E0090008C9FBE008A9FBE0010457800A8
:101E0000E1AC8000010001004F05BE004F06BE009E
:101E100062014700E2004700920870008E009000C7
:101E20006000470061884000ECFF3700606CE10013
:101E300006003A00601081008C9FBE008A9FBE00A1
:101E4000000001004F05BE004F06BE00616CE100BE
:101E500006003A00501081008C9FBE008A9FBE0091
:101E6000000001004F05BE004F06BE001E0090009E
:0C1E70004F0578000080FA00000006001A
:101724000000FA000A80FB0002A2B70008E2AE0043
:10173400020037001000200002003700A9FD070056
:0C1744000020EF000080FA00000006000A
:1016F8000000FA000A80FB0012A2B70018E2AE0050
:10170800020037001000200002003700ADFD07007E
:0C1718000020EF000080FA000000060036
:101750000000FA000682BF007F0060000000E20087
:1017600001003200FBFF37000622A8009EFD0700A3
:081770000080FA0000000600F1
:1017A0000000FA000682BF007F0060000000E20037
:1017B00001003200FBFF37000642A8008AFD070047
:0817C0000080FA0000000600A1
:101778000000FA000682BF007F0060000000E2005F
:1017880001003200FBFF37001622A8008DFD07007C
:081798000080FA0000000600C9
:1013A0000000FA001682BF007F0060000000E2002B
:1013B00001003200FBFF37001642A80083FE070041
:0813C0000080FA0000000600A5
:101C6C00574123000E20ED00FEFF3A00000000005B
:041C7C00000006005E
:10185C000400FA008A1F780000002000100798008E
:10186C000B0798000A80FB004100DD00610070004E
:10187C008C9FBE0000457800E1AC800001000100A7
:10188C004F06BE0062014700E2004700920870005C
:10189C0061005600000678001800E2000D003200CE
:1018AC008C9FBE008A9FBE001420EF004110810067
:1018BC00010001004F05BE004F06BE008E009000D7
:1018CC00804878008E0090006000470061884000DE
:1018DC00EFFF37008C9FBE008A9FBE001A002000CD
:1018EC0041108100010001004F05BE004F06BE00F3
:1018FC008E00900080487800606CE10006003A0091
:10190C00601081008C9FBE008A9FBE000000010009
:10191C004F05BE004F06BE00616CE10006003A00A8
:10192C00701081008C9FBE008A9FBE0000000100D9
:10193C004F05BE004F06BE001E0090004F057800FC
:08194C000080FA000000060013
:101344000000FA000682BF007F0060000000E20097
:1013540001003200FBFF37000662A800A1FE07006F
:101364000682BF007F0060000000E200010032003E
:10137400FBFF37001400E2000200320006A2A800BE
:101384000100370006A2A9000682A80095FE070006
:0C13940000C2BF000080FA00000006004C
:1013C8000000FA001682BF007F0060000000E20003
:1013D80001003200FBFF37001662A80079FE070003
:1013E8001682BF007F0060000000E20001003200AA
:1013F800FBFF37001400E2000200320016A2A8002A
:101408000100370016A2A9001682A8006DFE070089
:0C14180010C2BF000080FA0000000600B7
:104A380088FD0700800078006000E10022003A004D
:104A4800E5FC07008A9FBE00FFFC07004F05BE007B
:104A5800BDF707008A9FBE0018F807004F05BE0083
:104A68000CF807008A9FBE00C4F507004F05BE007A
:104A78008A9FBE0008F507004F05BE008A9FBE004A
:104A880031F607004F05BE0079FE07008A9FBE0079
:104A980079FD07004F05BE008A9FBE002EFC070067
:104AA8004F05BE008A9FBE0050F907004F05BE00A3
:104AB8008A9FBE0094F807004F05BE00FEFA070063
:104AC8008000780000003700010078000000060030
:10405C00F400450000042000110060006000E10045
:10406C0002003A000020EF000100370090FF2F0003
:04407C00000006003A
:103DE00060062000000045009000780000F02F00E1
:103DF00000806000C800DE0001017800F0072000AC
:103E00000008E10003003400001020000000510011
:103E100001003700020078004501DD006006200047
:103E200080004500F00F200091006000001020008D
:103E300000805000C500DD0000002200808050009E
:103E4000820D7800628045000108780000000600BD
:103E50001200FA008A1F78008C1F78008D1F7800EE
:103E600040062000000045009000780000C02F00B0
:103E7000008060004A00DE008A9FBE008000EB00E8
:103E800025F40700000798001107980002002000A1
:103E9000831F240012F307000000E0000060EF0021
:103EA000010034000060EC004F05BE000040E2005D
:103EB000090032000E0090009E00900002002000D9
:103EC000032824008A9FBE00A8F407004F05BE0007
:103ED00000079800110798008A9FBE00020020008A
:103EE000035824000E0090009E0090001CF3070071
:103EF0004F05BE00000798001107980040062000FB
:103F00000000450090007800F03F20000080600035
:103F10008A9FBE008000EB00FFF307002007980097
:103F20003107980002002800F33F2400ECF207005C
:103F30000000E0000060EF00010034000060EC00D1
:103F40004F05BE000040E200090032002E00900044
:103F5000BE00900002002000034824008A9FBE009B
:103F600082F407004F05BE00200798003107980033
:103F70008A9FBE0002002000031024002E00900043
:103F8000BE009000F6F207004F05BE002007980023
:103F9000310798002006200000004500100078003E
:103FA00040079800000220000000450090007800C3
:103FB00000002F0000806000700798008B1F7800C1
:103FC0000C0020000D1624000A0020000B00240025
:103FD00060F607007E01900070079800010F9800BE
:103FE000020078008000EB00CBF307007E01900018
:103FF0008E099000DAF2070002002000031024006E
:1040000038F10700CF0578008001780001027800C0
:10401000648145000E0090009E0090000089BE0063
:10402000688145002E009000BE0090000089BE000F
:10403000EC8045004E009000800878006E804500BE
:104040000318780004107800CF0678004F06780037
:0C4050004F0578000080FA000000060018
:101954000600FA0000002000404798008C9FBE005B
:101964008A9FBE000C00BE000420EF000620EF009A
:10197400F8FD07000000E0000060EF0001003A00FD
:101984000060EC004F05BE004F06BE000040E200C0
:10199400030032000000200001F823005900370042
:1019A4008C9FBE008A9FBE000A00BE000420EF0088
:1019B4000620EF00E7FD07000000E0000060EF00F4
:1019C40001003A000060EC004F05BE004F06BE0067
:1019D4000040E200030032000020EF000220EF008C
:1019E400480037008C9FBE008A9FBE000420EF0091
:1019F4000620EF000A00BE00D6FD07000000E0004C
:101A04000060EF0001003D000060EC004F05BE00E7
:101A14004F06BE000040E200210032008C9FBE0051
:101A24008A9FBE000C00BE00F0FB07000007980070
:101A3400110798000081EB0036FD07004F05BE003A
:101A44004F06BE008C9FBE008A9FBE000C01BE00E4
:101A5400C0FD07000000E0000060EF00010032005C
:101A64000060EC004F05BE004F06BE000040E200DF
:101A7400030032000020EF000220EF0021003700B5
:101A84008E4090006400470061C8600000002000A0
:101A94000100280000006D0081806D000005BE007B
:101AA4008C9FBE008A9FBE00DBFE07004F05BE0070
:101AB4004F06BE000005BE008A9FBE000C01BE009A
:101AC4003DFB07004F05BE000005BE008A9FBE0017
:101AD4000005BE0052FE07004F05BE000005BE0013
:101AE400640047001004E0000500320000002000FC
:101AF4000100280000006D0081806D0001003700A6
:0C1B04000A00BE000080FA00000006008D
:10161C000200FA008C1F78008D1F78008A9FBE0094
:10162C000420EF000620EF000A00BE00C7FE0700F2
:10163C000000E0000060EF0001003C000060EC00E6
:10164C004F05BE000040E200030032000020EF0016
:10165C000220EF00210037006000470000067800F0
:10166C00E5FD07008A9FBE00020020000300240055
:10167C004FFC07000200200003F82300B8FE07000F
:10168C004F05BE000005BE0013002000600147009E
:10169C00128911008A9FBE008D002000EC75280075
:1016AC000005BE0010FD07004F05BE000005BE0082
:1016BC008A9FBE000E009000CF80DE000081EB0000
:1016CC0012FE07008221270013F3230038FC0700C9
:1016DC004F05BE000A01BE007FFB0700CF06780055
:0C16EC004F0678000080FA0000000600A5
:100E04000400FA000A0798001B0798009E0090004F
:100E140000F8270080806000C708DE00E00720009B
:100E240000805000000E780001F0230062004700AB
:100E34009080680000F8270080806000620047000E
:100E440090806800110798000E0090009E009000AA
:080E54000080FA000000060016
:100AF4004268DD00000146001200BE000001BE0095
:100B04001A00E200130032008C9FBE008A9FBE00D0
:100B14000200BE000A01BE0027FF07004F05BE0009
:100B24004F06BE0061815600820678004269DD00EE
:100B3400020246001401BE008C9FBE008A9FBE00C4
:100B440067FE07004F05BE004F06BE000001BE0051
:0C0B5400EBFF37000200BE0000000600AE
:1007BC000000FA0002000700F4040400000000002E
:1007CC00889FBE008A9FBE008C1F780030000700F7
:1007DC003700330003866C006450E10024003200C3
:1007EC006420E100270032006150E1002200320059
:1007FC006120E100210032008B854200EB07B10043
:10080C000134B800003AB8000804420089844A0058
:10081C00013AB8000030B8008880400009014A0055
:10082C0004003300000040008180480002014900B0
:10083C008B05E900C909DD0083017000010032005D
:10084C0013002000C814DE004814DD004709DE0048
:10085C001200B200C808DE000884700024000700F3
:10086C0001F0A1000CF0A70003E0A800190037006C
:10087C006120E1001B0032000881BE000280BE0036
:10088C00F7FF37006150E100FCFF3A00150037001C
:10089C000084BE003C0007000083BE000485BE003F
:1008AC000280BE0038000700844F7500000006006F
:1008BC000280BE006450E100050036006420E100B7
:1008CC00020036000968A30001003A000880BE004F
:1008DC0002C0A8004F0678004F05BE004F04BE00B2
:1008EC0000000600F0FF2F00F1FF2700F9FF370092
:1008FC0081002000618055000B003D000B002000A2
:10090C0061FE2F000100E1001D00340082817100A6
:10091C00610164008904D1000884D3000000E80060
:10092C00FAFF3A00710020006100640003007000BF
:10093C00020060000900320061044400E0844C00B5
:10094C000988A500050032008B05E8006808E10065
:10095C0002003A008904D1000884D300F20F200071
:10096C000258E10005003D00C75DDD00F907B2004B
:10097C008980750008008800000006000BF827002D
:10098C001B00880000000500C70ADE00F107B2005A
:10099C00F50FB20008003200E1CF42000200320035
:1009AC0002E0A80024000500810F70000100320055
:1009BC000408050044000500810F700002003A0095
:1009CC00140005008502E9000000400081C04800C9
:1009DC00FCFF3B0002E0A800240005000080FA00A8
:0409EC000000060001
:1004E4000000FA0002000700DA0304000000000024
:1004F400889FBE008A9FBE008C1F780059000700A9
:10050400600033006450E1004F0032006420E100D9
:100514005200320003826C0007003B000905D00042
:100524000306D000820F54000C065D00020039005F
:100534000200320039008800C3008800858255001B
:1005440004003D000003FD008103FD008502EA0074
:100554008B854200840F720002003B006000100093
:10056400E08018006011B8000005EB007A28E10073
:100574000A00390006008800C75DDD00F707B200F5
:10058400878075002D003700828171002A00880061
:10059400610560008180D1000080D3008502E900FC
:1005A400F9FF3B00060440008784480002003B003A
:1005B40060041400E0841C000988A30007003200D2
:1005C4008A81710082817100610164008904D10013
:1005D4000884D3008B05E800170037000978A300CE
:1005E40013003A001600E200130034008B05E90002
:1005F4000804440089844C000A4474000978A30068
:100604000D003A001600E200070034008B05E900F3
:100614000804440089844C0001003A000B002000C7
:100624000978A300F7FF32000001EB000200370055
:10063400828171002A008800220007000CF0A700C4
:1006440003E0A800180037006420E10002003A002B
:10065400838F6C00180033000881BE000280BE0046
:10066400110037000084BE003C0007000083BE0078
:100674000485BE000280BE0038000700844F750068
:10068400000006000280BE006450E1000500360050
:100694006420E100020036000968A30001003A006A
:1006A4000880BE0002C0A8004F0678004F05BE00B7
:1006B4004F04BE0000000600F0FF2F00F1FF2700EA
:1006C400F9FF370081002000618055000B003D00D8
:1006D4000B00200061FE2F000100E1001D0034002A
:1006E40082817100610164008904D1000884D3000F
:1006F4000000E800FAFF3A00710020006100640085
:10070400030070000200600009003200610444002C
:10071400E0844C000988A500050032008B05E80040
:100724006808E10002003A008904D1000884D3007B
:10073400F20F20000258E10005003D00C75DDD0016
:10074400F907B200898075000800880000000600DF
:100754000BF827001B00880000000500C70ADE0014
:10076400F107B200F50FB20008003200E1CF4200F9
:100774000200320002E0A80024000500810F70008E
:10078400010032000408050044000500810F7000D8
:1007940002003A00140005008502E9000000400050
:1007A40081C04800FCFF3B0002E0A80024000500D3
:0807B4000080FA0000000600BD
:101158000000FA0014002000A7FC07000080FA0035
:04116800000006007D
:100400000000FA00020007006E0204000000000075
:10041000841F7800140007004F007800110033009B
:10042000F0FF2F00838F6C0006003B000405650081
:100430000A00A7000800370009F0A60010002000FD
:1004400008003700820F5400838F5C0003003900DE
:100450001000200001003E000000200009F0A7006D
:100460000000EA00000006000084BE00060007004D
:100470000083BE000485BE000280BE0002000700AB
:10048000844F750000000600C70ADE00F107B200C5
:10049000F50FB20008003200E1CF42000200320046
:1004A00002E0A80024000500810F70000100320066
:1004B0000408050044000500810F700002003A00A6
:1004C000140005008502E9000000400081C04800DA
:1004D000FCFF3B0002E0A800240005000080FA00B9
:0404E0000000060012
:10116C000000FA0007E0AA00DBFC07000080FA0090
:04117C000000060069
:100F18000000FA00020007003E080400000000007C
:100F28000400E20006003A000005EB000200E200BF
:100F38000F003E000000E200270032000C003700DE
:100F4800A10088000200E2000400350008003C000F
:100F58000000E200200032000500370060001000A9
:100F6800E080180002003B0001F02C001A00370056
:100F78000084BE006011B8006B0920000982CF0010
:100F8800020039000882CF000441B00069425200D3
:100F98000E00320008003B0082817100610164008C
:100FA8008904D1000884D3008B05E8000442E800D6
:100FB800F9FF3A00050037000804440089844C0012
:100FC8008B05E9000442E900FBFF3A000300070033
:100FD8000AF0A70003E0A800000006008100200036
:100FE800618055000B003D000B00200061FE2F00C2
:100FF8000100E1001D00340082817100610164007C
:101008008904D1000884D3000000E800FAFF3A0000
:10101800710020006100640003007000020060009D
:101028000900320061044400E0844C000988A500EE
:10103800050032008B05E8006808E10002003A006C
:101048008904D1000884D300F20F20000258E1007F
:1010580005003D00C75DDD00F907B2008980750015
:1010680008008800000006000BF827001B00880015
:0C107800000005000080FA0000000600E7
:101424000400FA008C1F78008D1F78008A9FBE008C
:101434000A00BE000420EF000620EF0045FF07006D
:101444000000E0000060EF0001003A000060EC00E2
:101454004F05BE000040E2000300320000002000FF
:1014640001F82300680037008A9FBE00E24F2D0078
:10147400232B24000A00BE0098FD07000000E000B2
:101484000060EF00010034000060EC004F05BE0076
:101494000040E20003003200F0FF2F00F1F72700C4
:1014A400590037008A9FBE0002C52A00E32A2C0097
:1014B4000A00BE0027FF07000000E0000060EF0004
:1014C40001003D000060EC004F05BE000040E2005A
:1014D400030032000020EF000220EF004A00370032
:1014E4008A9FBE000420EF000620EF000A00BE0021
:1014F40018FF07000000E0000060EF0001003D005D
:101504000060EC004F05BE00204798000040E20058
:1015140005003200000020000100280000006D00DA
:1015240081806D000005BE008A9FBE000A00BE00D7
:10153400B2A32A0083FB23009FFC07004F05BE00D3
:101544000005BE008A9FBE000005BE00CCFE070059
:1015540026FD070000079800CF80DE000081EB0025
:101564006CFE07004F05BE008A9FBE000001BE004E
:101574000A00BE00FCFE07004F05BE000005BE00C9
:101584008A9FBE009D0020006C7328000005BE00E9
:1015940057FD07000E0690000005BE002EFE070052
:1015A4004F05BE000005BE00620047001004E000C5
:1015B400140032008A9FBE000A00BE00F2FF2F0012
:1015C400F3F72700E3FE07000000E0000060EF00EF
:1015D40001003A000060EC004F05BE000040E2004C
:1015E400030032000020EF000220EF000600370065
:1015F4000A01BE000000200001F8230057FD070087
:10160400010037000A00BE00CF0678004F067800BC
:081614000080FA00000006004E
:10108400C758DE000001EB00F00F200080806000F4
:10109400F007200000805000800078006000E1002C
:1010A40010003D000420EF000620EF000A00BE00FF
:1010B400280007000000E0000060EF0001003D0090
:1010C4000060EC000040E200030032000000200059
:1010D40001F82B001E0037000020EF000220EF0073
:1010E4001B0037007808E100020036000A00BE0049
:1010F400170037008A9FBE000A00BE003BFE0700AF
:101104000081EB0083FF07004F05BE000002BE0014
:10111400849FBE000A01BE0070FE07000000E000CC
:101124000060EF00010034000060EC004F02BE00DC
:101134000040E200050032000200200003F8230012
:101144000400BE0008000700010037000400BE00D0
:041154000000060091
:1009F0000000FA00020007006C050400000000007F
:100A00000081BE001F0007000470A70003F0A100D2
:100A10006509B100160032000D0035006828E100BC
:100A200006003500F0FF2F00F1FF27000600E2006E
:100A300013003B00010028000000050000004000FA
:100A4000818048008502E900FCFF3A000800370079
:100A5000F88F420002003C008000EB00000005001F
:100A60008100D1000080D3008502E800FCFF3A003D
:100A70000600E20002003B0060001000E080180069
:100A800000000600C70ADE00F107B200F50FB20051
:100A900008003200E1CF42000200320002E0A8006C
:100AA00024000500810F70000100320004080500D9
:100AB00044000500810F700002003A001400050098
:100AC0008502E9000000400081C04800FCFF3B00B7
:100AD00002E0A800240005000080FA0000000600E3
:100AE0000000FA00F4FF2F0045FE07000080FA0026
:040AF00000000600FC
:100E5C000400FA000A0798001B0798009E009000F7
:100E6C0000F82700008060004700DE00000046000C
:100E7C00000678006000E10003003D000020EF0058
:100E8C000220EF001F003700F00F20000060E1008F
:100E9C00100034000420EF000620EF000A00BE0012
:100EAC00AA0007000000E0000060EF0001003D0018
:100EBC000060EC000040E20003003200F0FF2F0065
:100ECC00F1F72F000F003700F0FF2F00F1F727008C
:100EDC000C00370070C0B3000000FB008060DD0028
:100EEC00620047009080680000F827008080600056
:100EFC006200470090806800110798000E00900077
:0C0F0C009E0090000080FA00000006002B
:100B60000000FA0002000700E20604000000000096
:100B7000889FBE008A9FBE008C1F78003E00070041
:100B80004500330003866C006450E1002E00320003
:100B90006420E100330032006150E1002F00320098
:100BA0006120E1003100320085855500EB07B0007F
:100BB0000900200008042000050037000804440054
:100BC00089844C000A0031000603430087834B00F0
:100BD0000001530081815B00F8FF33000283BE00F7
:100BE0001000A8000804440089844C00F6FF390076
:100BF000C639DD00830173000100320013002000BC
:100C00008904D1000884D3000998A30005003200AC
:100C10000800A7000600A8008904D1000884D300BA
:100C20008B05E8008904D1000884D3000001EB00A3
:100C30000281D2002800070001F0A1000CF0A700FB
:100C400003E0A8001D0037006420E1001F0032000F
:100C50000881BE000280BE00F7FF37006120E1007E
:100C60001A0032006000B800F3FF370000002000D7
:100C700001F82700F0FF37000084BE003C000700A9
:100C80000083BE000485BE000280BE00380007005D
:100C9000844F7500000006000280BE006450E10031
:100CA000050036006420E100020036000968A30058
:100CB00001003A000880BE0002C0A8004F0678007C
:100CC0004F05BE004F04BE0000000600F0FF2F00DD
:100CD000F1FF2700F9FF37008100200061805500F7
:100CE0000B003D000B00200061FE2F000100E10021
:100CF0001D00340082817100610164008904D1000B
:100D00000884D3000000E800FAFF3A0071002000D8
:100D100061006400030070000200600009003200FE
:100D200061044400E0844C000988A50005003200FD
:100D30008B05E8006808E10002003A008904D10050
:100D40000884D300F20F20000258E10005003D00A6
:100D5000C75DDD00F907B2008980750008008800D2
:100D6000000006000BF827001B00880000000500AB
:100D7000C70ADE00F107B200F50FB200080032002A
:100D8000E1CF42000200320002E0A800240005008A
:100D9000810F7000010032000408050044000500C6
:100DA000810F700002003A00140005008502E9007E
:100DB0000000400081C04800FCFF3B0002E0A800AA
:0C0DC000240005000080FA00000006007E
:10295000000620000000450090007800010178008A
:10296000F0FF27000008E100030034000000200011
:10297000800051000100370082007800728045001D
:082980000108780000000600C8
:102AC4000400FA008007200080004500F00F200079
:102AD400110060008B1F78008000EB000DF90700E7
:102AE400000798001107980002002000E32F24003B
:102AF400FAF707000000E0000060EF000100340076
:102B04000060EC00CF0578000040E20009003200CC
:102B14000E0090009E009000020020000338240064
:102B24008B1F780090F90700CF0578000007980004
:102B3400110798008B1F7800020020000320240056
:102B44000E0090009E00900004F80700CF05780066
:102B5400748145000089BE000080FA000000060070
:102A9C000007200000004500900078000000230093
:102AAC0000806000CC00DE000002200000804500A9
:082ABC0001487800000006004B
:1021840080072000000045009000780000F02F0038
:10219400008060004800DE008B1F78008000EB00A8
:1021A4005CFB0700CF0578000002BE00849FBE00E0
:1021B4008B1F780002002000E32F240047FA070059
:1021C4000000E0000060EF00010034000060EC005B
:1021D400CF0578004F02BE000040E2000800320044
:1021E40002002000033824008B1F78000400BE0086
:1021F400DDFB0700CF0578000001BE0001003700B9
:102204000401BE008B1F78000200BE000200200003
:102214000360240051FA0700CF0578002202200051
:0C222400028145000089BE000000060099
:101EA0001400FA00E00720000000450090007800D0
:101EB0000000230000806000CC00DE00A0002000B5
:101EC0000008B800004278006003200080804500D0
:101ED00080FD2F008008780060032000008045000E
:101EE000E20040000020EF0080087800600320003E
:101EF0000080450064014000E007200080004500AC
:101F0000000F2000110060004400DE00000978008E
:101F1000600320000080450066014000E0072000CB
:101F2000000045009000780000F020000080600074
:101F30004800DE00000978006003200000804500B2
:101F400064014000E40040000400FB001180B9007F
:101F5000000978006003200000804500E601400091
:101F600064014000E60040000400FB001180B9005D
:101F700092094000F00020000007980010002000A7
:101F80000E0190000200DD000007980060022000B2
:101F90000080450070079800A007200080004500E1
:101FA000F00F2000110060008A9FBE008000EB004F
:101FB000D9FB07004F05BE007E0190000089BE00DE
:101FC0006002200000804500640040007007980017
:101FD000A0072000000045009000780000F02F00CE
:101FE000008060004800DE008A9FBE008000EB0099
:101FF000C9FB07004F05BE007E0190000089BE00AE
:1020000060022000008045006800400070079800D2
:10201000C007200080004500F00F20001100600084
:102020008A9FBE008000EB00BBFB07004F05BE008F
:102030007E0190000089BE00600220000080450003
:102040006C00400070079800C007200000004500A9
:102050009000780000F02F00008060004800DE0053
:102060008B1F78008000EB00ABFB0700CF057800EA
:102070007E0190000089BE000020EF00100798004C
:102080001E0090006400E1003C003D006002200062
:10209000808045001E0090004200DD00008140006D
:1020A0001200BE008A9FBE0002002000E32F240021
:1020B0008BFA07000000E0000060EF000100340030
:1020C0000060EC004F05BE000040E2000F0032004F
:1020D00060022000808045001E0090004200DD006C
:1020E00000804000700798001002BE00020020002F
:1020F000033824008A9FBE000400BE001BFC0700BA
:102100004F05BE007E0190000089BE0060022000E5
:10211000808045001E0090004200DD0000814000EC
:10212000120F98001200BE0070079800010F98006F
:102130008A9FBE000E009000CF80DE000081EB0081
:1021400075FB070020079800310798007E0090007B
:102150008E0890002E019000BE01900080FA0700CA
:102160004F05BE001E0990000089BE009E00900031
:102170006200470061884000C1FF37000080FA001C
:042180000000060055
:102350009000FA008C1F78008D1F78000004200088
:102360000000450090407800500720000000470022
:102370006FC860000004200080004500000F2000AE
:10238000110060004400DE0040F7980000042000C7
:10239000000045009000780000F020000080600000
:1023A0004800DE0030F798000004200000004500DF
:1023B0009000780000002F0000806000CC00DE005C
:1023C00020072000000047007EC8400020042000B5
:1023D0000000450010007800003F98001220EF0038
:1023E000090278006620E10035003D004220DD0052
:1023F000403F9800E00147004100DD00808041003F
:1024000020022000040040004100DD0000004500E3
:10241000100078006F006000800878004E3890004F
:102420000020EC004100DD0000814100200220007E
:10243000040040004100DD0080004500000F200046
:10244000110060004400DE00000978004E38900062
:1024500000A0EC004100DD000081410020022000CE
:10246000040040004100DD000000450090007800BD
:1024700000F02000008060004800DE0000097800C5
:102480004E389000630040004100DD0000814100B3
:1024900020022000040040004100DD000000450053
:1024A0009000780000002F00008060004C00DE00EB
:1024B000000978006100420000027800C9FF37007F
:1024C0000420EF007810E1000F003D00E00047001D
:1024D0004110DD0000804000100078006700E1003E
:1024E00006003400E00047004110DD00808040001D
:1024F00011007800700050008008780061004100F1
:1025000000017800EFFF37001220EF000902780089
:102510006820E10036003D004220DD00403F980089
:1025200003032000830147004100DD00808041005B
:1025300080022000040040004100DD000000450052
:10254000100078006F006000800878004E3890001E
:102550000020EC004100DD000081410080022000ED
:10256000040040004100DD0080004500000F200015
:10257000110060004400DE00000978004E38900031
:1025800000A0EC004100DD0000814100800220003D
:10259000040040004100DD0000004500900078008C
:1025A00000F02000008060004800DE000009780094
:1025B0004E389000630040004100DD000081410082
:1025C00080022000040040004100DD0000004500C2
:1025D0009000780000002F00008060004C00DE00BA
:1025E000000978006100420000027800C8FF37004F
:1025F0001820EF000C017800000220000010E1001C
:1026000011003D0001032000810047004110DD0062
:1026100000804000100078006700E10007003400EF
:1026200001032000810047004110DD008080400050
:1026300011007800700050008008780061004100AF
:1026400000017800ECFF37001A20EF007868E10005
:10265000AD003D000020EF00303F98000D037800F2
:102660000102200060072000000047001008E10080
:10267000A3003400C530DD006007200000004700E3
:1026800010814000423F9800E00320008080450018
:102690004210DD00008040005087980000042000B8
:1026A000020040004100DD0000004500900078007D
:1026B000003F2000008060004400DE00861F78009C
:1026C0008A9FBE008000EB0013FA07004F05BE0092
:1026D0005E8190000089BE00E003200080804500FC
:1026E0004E3890004200DD00008140001200BE0024
:1026F0008A9FBE0002002000831F2400F8F8070014
:102700000000E0000060EF00010034000060EC0019
:102710004F05BE004F0378000040E2001100320078
:10272000E0032000808045004E3890004200DD002C
:1027300000804000508798001002BE000200200078
:1027400003282400861F78008A9FBE000400BE0074
:1027500086FA07004F05BE004F0378005E819000A7
:102760000089BE00E0032000808045004E389000C4
:102770004200DD0000814000728798001200BE0018
:10278000508798006187980050072000000047009C
:102790009080FB00100020000100DD00861F780003
:1027A0008A9FBE00CF80DE000081EB00DAF90700CF
:1027B0005E819000EE81900000F807004F05BE009A
:1027C0004F0378007E8190000089BE00E003200066
:1027D000808045004E3890004200DD00808140003E
:1027E00073879800E00047004130DD000080400022
:1027F0009000780030072000000047001080FB00A8
:102800008008DD0000072000000047001081400024
:1028100001032000810047003E3890004100DD00A8
:102820000080400090007800400720000000470032
:102830001080FB000008DD008000410003007800EC
:1028400050879800861F78008A9FBE00010078009C
:10285000CF80DE000081EB00AFF907005E829000C0
:102860001401BE001FF707004F05BE007E819000D7
:102870000089BE00E0032000808045004E389000B3
:102880004200DD0000814000728798001200BE0007
:1028900050879800618798002207200002014700B6
:1028A0008A9FBE001280FB008000EB009AF90700AF
:1028B0000006BE000A0020000B00240025FC0700D3
:1028C000503F9800613F98005E809000EE8090003D
:1028D0005E399000EE399000A1F807004F05BE0068
:1028E0004F0378007E8190000089BE00BE389000C2
:1028F00060072000000047006188400058FF370053
:10290000E106430051FF3700CF0678004F067800FC
:082910000080FA00000006003F
:104478007000FA000002200000004500104078009B
:10448800EF4360000002200080004500000F20007C
:10449800110060004400DE000043780000022000A4
:1044A800000045009000780000F0200000806000C7
:1044B8004800DE008042780020022000000045000D
:1044C8009000780001017800F0FF27000008E10063
:1044D80003003400000020000002510001003700F2
:1044E800020278001020EF006640E1002D003D0038
:1044F8004240DD0080047800E00147004100DD0013
:1045080080804100720044004100DD000000450049
:10451800100078006F006000800878006180440017
:104528004100DD0000814100720044004100DD00CF
:1045380080004500000F2000110060004400DE00EC
:1045480000097800628044004100DD0000814100DC
:10455800720044004100DD00000045009000780032
:1045680000F02000008060004800DE0000097800AC
:10457800638044004100DD00008141007200440076
:104588004100DD00000045009000780000002F0089
:10459800008060004C00DE00000978001020EC006C
:1045A800D1FF37000420EF007810E1000E003D0035
:1045B800E00047004110DD00008040001000780056
:1045C8006700E10006003400E00047004110DD000C
:1045D800808040001100780070005000800878004A
:1045E8000420EC00F0FF37001020EF006840E100E5
:1045F8002E003D004240DD008004780003032000C7
:10460800830147004100DD008080410078004400BC
:104618004100DD0000004500100078006F006000D8
:1046280080087800618044004100DD00008141007D
:10463800780044004100DD0080004500000F2000A4
:10464800110060004400DE00000978006280440028
:104658004100DD0000814100780044004100DD0098
:10466800000045009000780000F020000080600005
:104678004800DE0000097800638044004100DD0046
:1046880000814100780044004100DD000000450041
:104698009000780000002F00008060004C00DE00D1
:1046A800000978001020EC00D0FF37000020EF0050
:1046B800851F78008402780086417800000378001E
:1046C800074178004F027800000220000030E10026
:1046D80010003D0001032000810047004130DD004B
:1046E80000804000100078006700E10007003400F7
:1046F80001032000810047004130DD008080400038
:104708001100780070005000800878000C20EC0040
:10471800EDFF37001020EF000443780002427800D4
:1047280085037800834278007840E10043003D002B
:104738001220EF00000220000048E1003D003D008B
:104748004540DD008901400003067800E0C32000F1
:10475800808045004118DD000081400000042000F1
:10476800030040004100DD00000045009000780093
:1047780000C02F00008060004A00DE0000097800B9
:10478800E0C32000808045004160DD0000804000DB
:10479800100078007F00E10007003400E0C320002B
:1047A800808045004160DD008080400000042000DA
:1047B8001100100080087800E0C3200080804500C8
:1047C8004160DD00008140008480FB001000200073
:1047D8000100DD001280B90000097800E0C3200064
:1047E800808045004160DD0080814000E000470096
:1047F8004140DD0000804000900078000680FB000A
:104808000008DD000081430001032000810047000B
:104818004148DD0000804000900078000580FB00E2
:104828000008DD0000004100930940001220EC0060
:10483800C0FF37001020EC00BBFF37000080FA00F3
:044848000000060066
:104080001E00FA008C1F78008D1F7800C0062000EB
:10409000000045009000780000F02F0000806000D4
:1040A000C800DE0001417800F0C7B300000CE10059
:1040B0000300340000C0B30080405100010037000D
:1040C000824078006000470001487800C006200068
:1040D00080004500F00F2000910060000141780051
:1040E000F0C7B300000CE1000300340000C0B300CF
:1040F0008040510001003700824078006000470096
:1041000000A0EC0001487800E00620000000450017
:104110009000780000F02F0000806000C800DE00F2
:1041200001417800F0C7B300000CE1000300340047
:1041300000C0B30080405100010037008240780089
:10414000600047000020EC0001487800E0062000F5
:1041500080004500F00F20009100600001417800D0
:10416000F0C7B300000CE1000300340000C0B3004E
:104170008040510001003700824078006000470015
:1041800063004000014878000007200080004500DF
:10419000000F200011006000C400DE006400470032
:1041A00068C84000000720000000450090407800EB
:1041B000650047006FC860000020EF0040079800CE
:1041C0004E0090007800E100A7003D000020EF00C5
:1041D00050079800010220006A0047001008E10023
:1041E0009D0034004E009000C500DD006A004700CD
:1041F00010804000600F98006007980002022000C5
:10420000110009000200D800400F980002042000AD
:104210006E089000110009000200D8004101DD0085
:104220004E089000020050004100DD00400F980051
:10423000220020006E089000110009000200D80042
:1042400001017800E60047004E08900082484000D7
:10425000E023210000814500EE0890004208DD00C7
:1042600000004100400F98000004200001004000C1
:104270004100DD0000004500100078006E00600085
:104280004100DE008A9FBE008000EB0022F30700A1
:104290004F05BE004E0990000089BE00E0232100BA
:1042A000808045006E0090004200DD0000814000EB
:1042B0001200BE008A9FBE000200200003042400FA
:1042C00007F207000000E0000060EF00010034008A
:1042D0000060EC004F05BE000040E2000F0032001D
:1042E000E0232100808045006E0090004200DD0048
:1042F00000804000400F98001002BE000200200025
:10430000031024008A9FBE000400BE0097F307003C
:104310004F05BE004E0990000089BE00E023210039
:10432000808045006E0090004200DD00008140006A
:10433000620F98001200BE00400F9800510F9800C5
:10434000650047009080FB00100020000100DD00A8
:104350008A9FBE00CF80DE000081EB00EEF20700F6
:104360004E099000DE09900014F107004F05BE00D1
:104370006E0990000089BE00E02321008080450086
:104380006E0090004200DD0000814000620F980046
:10439000E0004700660047001080FB0000804000FE
:1043A0009040780002007800400F98008A9FBE007D
:1043B0000100FB00CF80DE000081EB00D6F2070099
:1043C0004E0A90001401BE0046F007004F05BE00E3
:1043D0006E0990000089BE00E02321008080450026
:1043E0006E0090004200DD0000814000620F9800E6
:1043F0001200BE00400F9800510F98006401470062
:104400008A9FBE001280FB008000EB00C2F2070012
:104410000006BE000A0020000B0024004DF5070036
:1044200070079800010F98004E089000DE08900079
:104430007E0190008E099000C9F107004F05BE0073
:104440006E0990000089BE00DE0090006A004700FF
:10445000618840005FFF3700CE0090006800470091
:104460006188400056FF3700CF0678004F0678007D
:084470000080FA0000000600C4
:103B60001C00FA008C1F78008D1F78008006200052
:103B7000000045009000780000002F0000806000E9
:103B80004C00DE00804078006704E1000300340050
:103B900070C050008040780000003700600047008F
:103BA0000148780080062000000045009000780061
:103BB00000F02000008060004800DE0080407800B7
:103BC0006704E1000300340070C0500080407800BA
:103BD000000037006000470000A0EC0001487800BA
:103BE0008006200080004500000F200011006000CA
:103BF0004400DE00804078006704E10003003400E8
:103C000070C050008040780000003700600047001E
:103C10000020EC00014878008006200000004500EC
:103C2000100078006F006000804078006704E100B9
:103C30000300340070C0500080407800000037005E
:103C40006000470063004000014878000007200042
:103C5000000045009000780000F020000080600027
:103C60004800DE00404798000020EF003007980031
:103C70003E0090007800E10055003D000020EF007C
:103C80004007980001022000680047001008E1008A
:103C90004B0034003E009000C500DD006800470086
:103CA00010804000500F980050079800020220003A
:103CB000110009000200D800300F98000204200013
:103CC0005E089000110009000200D8004101DD00EB
:103CD0003E089000020050004100DD00300F9800C7
:103CE000220020005E089000110009000200D800A8
:103CF0003E08900001014000E0E321008080450083
:103D00005E0890004200DD0000804000300F980007
:103D1000E00047000280FB00008040001040780077
:103D20008A9FBE000000FB00CF80DE000081EB0018
:103D300079F407004F05BE003E0990000089BE00DF
:103D4000E0E32100808045005E0090004200DD003D
:103D500000814000520F98001200BE00300F980002
:103D6000410F9800640147008A9FBE001280FB004B
:103D70008000EB0068F407000006BE000A00200087
:103D80000B002400F3F60700600798007107980005
:103D90003E089000CE0890006E019000FE01900059
:103DA0006FF307004F05BE005E0990000089BE005A
:103DB000CE0090006800470061884000B1FF3700E6
:103DC000BE0090006600470061884000A8FF3700F1
:103DD000CF0678004F0678000080FA000000060049
:102FF4002600FA008A1F78008C1F78008D1F780045
:1030040000042000000045009000780000002F001C
:1030140000806000CC00DE00740047007BC84000E4
:103024006801470040072000000045009000780038
:10303400F03F20000089600092007800F01F20001B
:103044000008E100040034006801470092007800A1
:103054000040200000895000E801470062814100DF
:1030640040072000000045009000780000C02F00B9
:10307400008060004A00DE000009780062804100A0
:10308400100078007F00E10006003400680047006B
:1030940062014000E2004000000420001100100022
:1030A400000978006800470062014000E200400027
:1030B40010007800110940006000470020179800B4
:1030C40000179800200720000000450090007800B9
:1030D400F03F2000008060008A9FBE008000EB006B
:1030E4008CF707000E1190000089BE002E1190008D
:1030F4001200BE0002002800F33F240077F6070008
:103104000000E0000060EF00010034000060EC000B
:103114004F05BE000040E2000B0032006001470092
:1031240002007800001798001200BE000200200080
:10313400034824008A9FBE000BF807004F05BE0019
:103144000E1190000089BE00600147000200780063
:10315400201798001200BE0000179800111798005D
:10316400740147008A9FBE001280FB008000EB00C0
:1031740068F707000006BE000A0020000B002400C8
:10318400F3F90700300F9800410F98000E109000DB
:103194009E1090003E099000CE0990006FF6070043
:1031A4004F05BE002E1190000089BE00600047004C
:1031B40020179800640040000017980020072000A2
:1031C400000045009000780000C02F0000806000DF
:1031D4004A00DE008A9FBE008000EB004DF7070026
:1031E4000E1190000089BE002E1090006401400072
:1031F4001200BE0002002000831F240037F60700DF
:103204000000E0000060EF00010034000060EC000A
:103214004F05BE000040E2000D003200E000470010
:103224006480400000179800648040001002BE00D3
:1032340002002000032824008A9FBE000400BE0070
:10324400C9F707004F05BE000E1190000089BE00AB
:10325400E0004700211798006480400000179800A0
:10326400648140001200BE008A9FBE00020020005C
:103274000330240039F607000200200003F823007D
:1032840097F407002E1290001401BE004AF50700BF
:103294004F05BE000E1190000089BE00600720009B
:1032A40080004500F00F2000110060008A9FBE00DE
:1032B4008000EB0017F70700000F9800110F98002B
:1032C40002002000E32F240004F607000000E000C1
:1032D4000060EF00010034000060EC004F05BE0008
:1032E4000040E200090032000E0890009E089000A1
:1032F40002002000033824008A9FBE009AF70700CA
:103304004F05BE00000F9800110F98000007200021
:1033140080004500000F2000110060004400DE0022
:10332400E80040007C804500001798008A9FBE009A
:103334000180FB008000EB00F6F607000006BE00EB
:103344000A0020000B00240081F90700300F9800C8
:10335400410F98003E099000CE0990000E0890009D
:103364009E089000FDF507004F05BE000E11900069
:103374000089BE006007200000004500900078002E
:1033840000F02F00008060004800DE008A9FBE002D
:103394008000EB00DFF607006007980071079800D3
:1033A40002002000E32F2400CCF507000000E00019
:1033B4000060EF00010034000060EC004F05BE0027
:1033C4000040E200090032006E009000FE00900010
:1033D40002002000033824008A9FBE0062F7070021
:1033E4004F05BE0060079800710798000007200091
:1033F400000045009000780000F02000008060008C
:10340400C800DE0078804500001798008B1F780004
:103414000180FB008000EB00BEF607000006BE0042
:103424000A0020000B00240049F90700300F98001F
:10343400410F98003E099000CE0990006E00900064
:10344400FE009000C5F50700CF0578000E1190002E
:103454000089BE00E0A3220000804500600147000F
:103464003218780022107800E0A322000080450082
:10347400E400400064004100B0187800A010780017
:1034840060A422000080450068014700120878000B
:1034940060A4220000804500E20040006200410078
:1034A40090087800CF0678004F0678004F05780022
:0834B4000080FA000000060090
:102D10001600FA0074004500900078000080200042
:102D2000008060004401DE0001C8B3006C00470071
:102D30000148690060004700200F9800100F9800BC
:102D4000A006200080004500F00320001100600074
:102D50008A9FBE008000EB006FF807001E099000FC
:102D60000089BE002E0990001200BE000200200063
:102D7000831F24005AF707000000E0000060EF0006
:102D8000010034000060EC004F05BE000040E2008E
:102D90000B0032006001470002007800100F98001D
:102DA0001200BE0002002000032824008A9FBE00FB
:102DB000EEF807004F05BE001E0990000089BE0016
:102DC00060014700220F980002007800100F980061
:102DD0001200BE008A9FBE000200200003182400DB
:102DE0005FF707004F05BE001E0990000089BE0076
:102DF0002E08900064004000100F9800A0062000EC
:102E00000000450090007800007C200000806000F9
:102E10004600DE008A9FBE008000EB003EF80700FF
:102E20001E0990000089BE002E0890006401400039
:102E30001200BE00020020000317240028F707003C
:102E40000000E0000060EF00010034000060EC00D2
:102E50004F05BE000040E2000D003200E0004700D8
:102E600064804000100F9800648040001002BE0093
:102E700002002000032024008A9FBE000400BE0040
:102E8000BAF807004F05BE001E0990000089BE0079
:102E9000E0004700210F980064804000100F980068
:102EA000648140001200BE008A9FBE000200200024
:102EB000030024002AF707004F05BE001E099000FA
:102EC0000089BE002E08900068004000100F980096
:102ED000A0062000000045009000780000802F0030
:102EE000008060004B00DE008B1F78008000EB004C
:102EF00009F807001E0990000089BE002E08900006
:102F0000680140001200BE000200200003172400E8
:102F1000F3F607000000E0000060EF00010034005D
:102F20000060EC00CF0578000040E2000D003200A8
:102F3000E000470068804000100F98006880400063
:102F40001002BE0002002000032024008B1F780026
:102F50000400BE0085F80700CF0578001E09900028
:102F60000089BE00E0004700210F98006880400003
:102F7000100F9800688140001200BE008B1F78007F
:102F80000200200003102400F5F60700CF057800AA
:102F90001E0990000089BE001002200080804500BC
:102FA0004E48900080487800A0A422000080450090
:102FB0002E0990003218780022107800A0A4220078
:102FC00000804500E400400064004100B018780033
:102FD000A0107800A0A4220000804500E800400076
:102FE00068004100B0187800A01078000080FA0056
:042FF00000000600D7
:1036C0000820EF000620EF000420EF000A20EF00A2
:1036D0006528E1000E00310060A5220080804500D1
:1036E0004128DD0080804000F0FF2F008008780036
:1036F00000A62200808045004128DD008080400037
:10370000F0FF2F00800878000A20EC00F0FF37005F
:103710000020EF0083027800800178000030200054
:103720000018E100240031006520E1002200310092
:103730006528E100200031000004200000804100E5
:103740004100DD0000004500100078006000E1004D
:1037500007003A0060A52200808045004120DD007E
:1037600000804000030878000820EC0010003700BB
:1037700000042000008041004100DD000000450001
:1037800010007800610060006000E1000800320075
:1037900000A62200808045004128DD000080400016
:1037A0000308780061804200800278000000370042
:1037B0000620EC00D9FF37006420E100020036004B
:1037C000D1FF2F00630037006428E10003003600BA
:1037D000C0FF2F00800078005E0037000500420027
:1037E0006400E10002003600B0FF2F0058003700EF
:1037F0000C20EF0084017800020078000330E10023
:1038000018003100610243000320E1001300310081
:1038100060A52200008145004120DD0080004100BC
:103820004130DD00000041008A9FBE009105780014
:10383000100578002DF907004F05BE0080007800C4
:103840006000E10002003200010078004200370011
:103850000820EC0001007800EBFF37000C20EC00A2
:10386000E6FF37000C20EF000502780083027800A5
:103870000430E10018003100E10143000418E100C8
:103880001300310000A62200008145004118DD0030
:10389000800041004130DD00000041008A9FBE00F1
:1038A000910578001005780010F907004F05BE005B
:1038B000800078006000E100020032000100780022
:1038C000250037000620EC0001007800EBFF3700F0
:1038D0000C20EC00E6FF37000C20EF00850178009B
:1038E0000330E1001A0031000A20EF000428E10053
:1038F0001500310000A62200808045004128DD002F
:103900000081400060A52200808045004130DD003C
:10391000008040008A9FBE00920578001005780064
:10392000F2F807004F05BE00800078006000E1005B
:103930000200320001007800070037000A20EC0086
:1039400001007800E9FF37000C20EC00E4FF3700AD
:0C395000800078000100780000000600F4
:101CEC008B00550001017800E0FD2F000008E10099
:101CFC000500340020FE2F000010E10002003D0022
:101D0C00A0FF2F000F003700E0FF2F000010E100B4
:101D1C00040034006210E10002003D00A0FF2F001F
:101D2C00080037007E10E10005003400200220007E
:101D3C000010E10002003D00A0FF2F000100370061
:081D4C000020EF00000006007A
:104960000400FA008A1F78008B1F78008C1F7800E3
:104970000A80FB00670060004700DD001007980018
:1049800060004700000678001B002000DA002800C5
:1049900027F607008E009000F0C72F00808060008F
:1049A000620047001080700080057800DA0028005F
:1049B00019F807004F067800CF0578004F057800FA
:0849C0000080FA00000006006F
:102A18000400FA008A1F78008B1F78008C1F78004A
:102A28008D1F7800600147004850DE00004978009B
:102A3800E1004100F00F20000000650080487800A8
:102A4800E20041004858DE0080487800E300410079
:102A5800F00F2000008065008048780005FD070021
:102A6800E0004700908220001A20EF004C00200070
:102A78008105780010457800C7FC0700CF0678006C
:102A88004F067800CF0578004F0578000080FA00DF
:042A98000000060034
:106558008A1F78008B1F78008C1F78000B5A210047
:10656800AA82200040FF07001BC0B300EA83200076
:1065780084FF07000C1A22005A4180006B418000FA
:1065880022FE07002BC0B3000A1A22007DFF070075
:106598002BC0B3000A8020007AFF07002BC0B3008D
:1065A8002A80200077FF07000020EF0020108900D4
:1065B80021108100003020000008E1001F00310098
:1065C80020108100C200DD00005A210001004000B7
:1065D8000C1A22001005BE000CFE0700511A2200FA
:1065E8000020EF00804878001BC0B3000A1A220080
:1065F80064FF07001BC0B3008A83200061FF070007
:1066080046FF0700201081007F0060006000E10065
:1066180006003A00201081006000E1000300360007
:106628002BC0B300AA83200056FF070011002000EA
:106638004020220010884000DDFF37002BC0B30047
:10664800CA8320004FFF0700B8002000D7C22200ED
:106658000E20ED00FEFF3A001020ED00FCFF3A008E
:106668004F067800CF0578004F0578000000060037
:106270000A00FA008C1F78008D1F7800E2004700AA
:10628000C078280003000900B01878000020EF0053
:10629000000798000E0090006200E1001A00310033
:1062A0008A9FBE004A89200068F907000B2122005E
:1062B0004A8920002EFA0700020020000310240063
:1062C000AAEB07004F05BE001007980021079800B1
:1062D0008A9FBE008B1F7800809FBE003E06900004
:1062E000CE0690004A8920000B212200B3FA070055
:1062F0006F00B1004F05BE008E00900060004700A7
:1063000061884000E3FF37001E009000AE0090005F
:10631000008DBE00CF0678004F0678000080FA009E
:046320000000060073
:10484C000600FA008B1F78008C1F780000002000F7
:10485C00404798000020EF006000E1000A003A0099
:10486C00620047008A1F7800000678001B002000B9
:10487C000A0028006BF607004F0578001E00900018
:10488C0068006000F4FF37006000E1001A0032009D
:10489C004E4090006504E100170031008A1F78003B
:1048AC000B0320000A00280058F807004F05780079
:1048BC008A1F78000A0678000B3420000A4020007A
:1048CC0058F6070062004700000678001B00200025
:1048DC000A00280053F607004F0578001E009000D0
:1048EC0068016000CE4090006400470061C8400041
:1048FC0002007800E4FF3700600047008A1F780050
:10490C00000678001B002000DA00280045F607009E
:10491C004F05780000682000800045000E009000D4
:10492C008008780020682000800045001E00900060
:10493C0061006000800878002068200000004500BD
:10494C00100078004F067800CF0578000080FA0040
:04495C000000060051
:104B70001800FA008A1F78008C1F78008D1F7800BB
:104B80008A9FBE00F7F707004F05BE004007980058
:104B90005107980000642000000145008A9FBE0074
:104BA000120078008000EB00DBF00700000798009F
:104BB0001107980002E02F00F36F2400C8EF0700F0
:104BC0000000E0000060EF00010034000060EC0035
:104BD0004F05BE000040E200090032000E009000C8
:104BE0009E00900002002000037824008A9FBE00EF
:104BF0005EF107004F05BE000007980011079800FE
:104C000000602000000145008B1F78001200780032
:104C10008000EB00C0F007002007980031079800E3
:104C200002E02F00F36F2400ADEF07000000E0006A
:104C30000060EF00010034000060EC00CF05780058
:104C40000040E200090032002E009000BE009000FB
:104C500002002000037824008B1F780043F1070036
:104C6000CF05780020079800310798006E81450035
:104C70001200BE008B1F78000E0190009E01900074
:104C8000CEEE0700AE0190003E0290006C0147009E
:104C9000030178008401780012EE07006007980095
:104CA000710798006E019000FE0190000E009000C8
:104CB0009E009000AAEF0700200F9800310F980087
:104CC0000C0020000D1924000A0020000B00240015
:104CD00020F307002E099000BE099000B7EE0700F0
:104CE000CF057800200798003107980064804500C0
:104CF000200F98004E009000DE0090003233230019
:104D0000330524008B1F780018F107002E0A90004D
:104D10001401BE00A9EE07000300200004F82300E0
:104D20006C0147000301780084017800EDED070075
:104D300060079800710798006E019000FE019000D6
:104D40002E009000BE00900085EF0700CF05780090
:104D5000200F9800310F98006C8045008B1F780061
:104D6000100078008000EB006BF0070060079800EF
:104D7000710798006E019000FE0190002E089000CF
:104D8000BE089000F9F00700CF0578006882450062
:104D90001401BE0072EF070002002000831C2400F3
:104DA000D0ED0700CF0678004F0678004F05780059
:084DB0000080FA00000006007B
:102B64001200FA008A1F78008C1F78008D1F7800ED
:102B740040652000000145008A9FBE0012007800D5
:102B84008000EB00E3F807000007980011079800A5
:102B940002E02F00F36F2400D0F707000000E000EC
:102BA4000060EF00010034000060EC004F05BE003F
:102BB4000040E200090032000E0090009E009000E8
:102BC40002002000037824008A9FBE0066F90700F3
:102BD4004F05BE0000079800110798000068200008
:102BE400000045009000780000C0200000806000D4
:102BF4004A00DE0020079800000220000081450002
:102C04008B1F78001280FB008000EB00C1F80700E6
:102C14000006BE000A0020000B0024004CFB070045
:102C240070079800010F98002E009000CF80DE00FE
:102C34000081EB00B7F807000006BE000A00200080
:102C44000B00240042FB070030079800410798005E
:102C54007E0090008E0890003E019000CE0190000E
:102C6400BEF707000E0190009E019000D2F6070007
:102C7400CF05780070079800010F98006280450026
:102C84008B1F780010007800CF80DE000081EB00FD
:102C9400A0F8070030079800410798003E01900013
:102CA400CE0190007E0090008E0890002EF907005F
:102CB400CF05780070079800010F98000B0078008A
:102CC40010007800CF80DE000081EB0091F807004F
:102CD40030079800410798007E0090008E0890000D
:102CE4003E019000CE0190009CF707003233230090
:102CF40033052400FAF50700CF0678004F06780064
:0C2D04004F0578000080FA000000060077
:104DBC007600FA003EB89700CEB8970030BF9F003F
:104DCC0041BF9F002EB8970020BF9F002068200095
:104DDC000000450010007800302798008C9FBE0022
:104DEC008A9FBE005CF707004F05BE0000079800C5
:104DFC00110798008A9FBE005AFF070020079800F1
:104E0C00310798003233290083382400B2ED0700B3
:104E1C000C0020000D0824000005BE00CAF207009B
:104E2C0040079800510798003EB99700CEB99700FB
:104E3C003033290081382400A7ED07000C00200036
:104E4C000D0824000005BE00BFF2070060079800A3
:104E5C00710798004E019000DE019000C0F0070031
:104E6C004F05BE004F06BE008C9FBE008A9FBE0041
:104E7C000C01BE0037EF07006027980071279800DF
:104E8C006E009000FE0090006E219000FE219000BC
:104E9C00B3F007004F05BE00000F9800110F9800EB
:104EAC004003200000004700003F98004037980066
:104EBC0060022000008145001200BE008A9FBE00E7
:104ECC00020020000322240039EE0700020020001B
:104EDC0003F8230080ED07000001BE000000200055
:104EEC0001F823001BEF07004F05BE004E31900068
:104EFC000089BE008E3990006481410000002000C2
:104F0C0001F823000089BE006880410060379800DA
:104F1C006002200000804500680040004037980087
:104F2C006003200000804500640140008A9FBE00A1
:104F3C0012007800CF80DE000081EB00F3EF070059
:104F4C004E3290001401BE0019EE07000200200042
:104F5C0003F8230060ED07004F05BE006E31900092
:104F6C000089BE008E3890006C804000003F980095
:104F7C00688140001200BE006037980071379800BD
:104F8C0060022000008045006C0040004037980013
:104F9C006003200000804500E600400064004000F3
:104FAC0010007800110010008A9FBE00CF80DE0038
:104FBC000081EB00D5EF07004E3290001401BE00CB
:104FCC00FBED07000200200003F8230042ED070070
:104FDC006E319000FE319000F5ED07004F05BE00DC
:104FEC000E3990000089BE00406120000001450090
:104FFC008A9FBE00120078008000EB00C3EF070010
:10500C00200F9800310F980002E02F00F36F24005E
:10501C00B0EE07000000E0000060EF00010034007B
:10502C000060EC004F05BE004F06BE000040E200E1
:10503C000B0032002E089000BE08900002002000E9
:10504C00037824008C9FBE008A9FBE0044F00700AA
:10505C004F05BE004F06BE00200F9800310F980080
:10506C0072804500100078008C9FBE008A9FBE00A5
:10507C00CF80DE000081EB00A4EF07002E0990002A
:10508C00BE099000B3EE07004F05BE00200F98003C
:10509C00310F980000682000000045009000780057
:1050AC0000002100008060004500DE00006F9800C9
:1050BC007800470060379800403798000061200066
:1050CC00000145008A9FBE00120078008000EB00B2
:1050DC008EEF07004F05BE004E3190000089BE00D8
:1050EC006E3090006400400040379800006520004E
:1050FC00000145008A9FBE00120078008000EB0082
:10510C0082EF07004F05BE004F06BE004E319000E7
:10511C000089BE000020EF00402798004E20900030
:10512C006200E10036003D00F80047004E20900080
:10513C004200DD00008140001200BE008C9FBE00CA
:10514C008A9FBE0002E02F00F36F240061EE07007F
:10515C000000E0000060EF00010034000060EC0093
:10516C004F05BE004F06BE000040E20010003200AA
:10517C00F80047004E2090004200DD000080400007
:10518C00403798001002BE00020020000378240073
:10519C008C9FBE008A9FBE000400BE00F0EF07008B
:1051AC004F05BE004F06BE004E3190000089BE0078
:1051BC00F80047004E2090004200DD0000814000C6
:1051CC00423798001200BE008C9FBE008A9FBE0022
:1051DC002E099000BE09900075ED07004F05BE002A
:1051EC004F06BE004E3190000089BE00CE209000CC
:1051FC00800420000000470061884000C7FF370092
:10520C007801470002007800203F98001200BE0091
:10521C00003F9800113F980060A4220000804500D8
:10522C00603798007C804500403798002E00900035
:10523C00BE00900002002000831C24008C9FBE0046
:10524C008A9FBE00C6EF07004E3290001401BE00CC
:10525C0057ED07000200200003F823009EEC070026
:10526C006E3190004037980051379800120078004A
:10527C00CF80DE000081EB0024EF07004E31900060
:10528C00DE3190004AED07004F05BE0060379800F4
:10529C007137980078804500403798000E009000D8
:1052AC009E00900032332300330524008A9FBE00F9
:1052BC00ABEF07004E3290001401BE003CED07002E
:1052CC000200200003F8230083EC07006E319000ED
:1052DC00FE31900036ED070060279800712798008A
:1052EC006E219000FE2190000E3890009E389000A8
:1052FC009BEF07004F05BE004F06BE002E399000F5
:10530C000089BE0010022000808045000E689000CD
:10531C001104E10044003A00F800470064804000AA
:10532C00203F9800648140001200BE00003F9800AE
:10533C00113F980060A422000080450000A0EC0002
:10534C00603798007C804500403798002E00900014
:10535C00BE00900002002000831C24008C9FBE0025
:10536C008A9FBE007EEF07004E3290001401BE00F3
:10537C000FED07000200200003F8230056EC070095
:10538C006E31900040379800513798001200780029
:10539C00CF80DE000081EB00DCEE07004E31900088
:1053AC00DE31900002ED07004F05BE00603798001B
:1053BC007137980078804500403798000E009000B7
:1053CC009E00900032332300330524008A9FBE00D8
:1053DC0063EF07004E3290001401BE00F4EC07009E
:1053EC000200200003F823003BEC07006E31900014
:1053FC00FE319000EEEC07006027980071279800B2
:10540C006E219000FE2190000E3890009E38900086
:10541C0053EF07004F05BE004F06BE002E3990001B
:10542C000089BE004A003700F80047006480400045
:10543C00203F9800648140001200BE00003F98009D
:10544C00113F980060A422000080450000A0EC00F1
:10545C0090007800A0A422000080450040379800FE
:10546C008C9FBE008A9FBE0001007800CF80DE00BA
:10547C000081EB00A5EE07004E3290001401BE0037
:10548C0015EC07004F05BE00603798007137980087
:10549C007C804500403798002E009000BE009000A4
:1054AC0002002000831C24008A9FBE002CEF070002
:1054BC004E3290001401BE00BDEC0700020020002B
:1054CC0003F8230004EC07006E319000FE319000CD
:1054DC00B7EC07004F05BE00603798007137980095
:1054EC0078804500403798000E0090009E00900098
:1054FC0032332300330524008A9FBE0018EF0700C7
:10550C004E3290001401BE00A9EC070002002000EE
:10551C0003F82300F0EB07006E319000FE31900091
:10552C00A3EC070060279800712798006E2190006B
:10553C00FE2190000E3890009E38900008EF070076
:10554C004F05BE004F06BE002E3990000089BE00EC
:10555C000020EF0050279800DE2090000030200043
:10556C000008E10017023D00020220005E209000BE
:10557C00110009000200D8004037980002042000F6
:10558C005E209000110009000200D8004101DD00EE
:10559C004E3090000200500060379800106F980059
:1055AC005E20900022002000110009000200D800AB
:1055BC00C100DD00A0042000000047009080100016
:1055CC006E309000014268005E20900000A0EC005C
:1055DC0042002000110009000200D800403798005A
:1055EC005E20900063004000420020001100090082
:1055FC000200D800000178004E30900002005000EC
:10560C00403798005E2090000020EC004200200003
:10561C00110009000200D800800078004E30900084
:10562C0001004000403798005E20900042002000AE
:10563C00110009000200D800800078004E30900064
:10564C00810050006E3090000000FB004100DD0036
:10565C00610010000008B800206F98000E689000E0
:10566C006004E10002003A001E699000010037005E
:10567C00044178002068200000004500900078006C
:10568C000200FB000100E100C9013A005E2090001D
:10569C004100DD00000145008C9FBE008A9FBE00CA
:1056AC00120078008000EB0018EE0700001798003D
:1056BC001117980002E02F00F36F240005ED07008E
:1056CC000000E0000060EF00010034000060EC001E
:1056DC004F05BE004F06BE000040E2000B0032003A
:1056EC000E1090009E109000020020000378240001
:1056FC008C9FBE008A9FBE0099EE07004F05BE002E
:10570C004F06BE0000179800111798008C9FBE0022
:10571C008A9FBE000E1090009E1090002E099000E3
:10572C00BE09900022EC07004F05BE000017980040
:10573C0011179800E0C32000808045005E20900087
:10574C004100DD000080400060379800E02321001C
:10575C00808045005E2090004200DD00003F9800F4
:10576C0000804000403798002E009000BE00900052
:10577C0002002000831C24008A9FBE0078EE0700E4
:10578C004E3290001401BE0009EC0700020020000C
:10579C0003F8230050EB07006E319000403798005F
:1057AC005137980012007800CF80DE000081EB00AA
:1057BC00D6ED07004E319000DE319000FCEB070077
:1057CC004F05BE006037980071379800E0E3210068
:1057DC00808045000E3890000080400040379800D3
:1057EC000E0090009E0090003233230033052400FD
:1057FC008A9FBE005AEE07004E3290001401BE0084
:10580C00EBEB07000200200003F8230032EB07004B
:10581C006E319000FE319000E5EB07006027980098
:10582C00712798000E1090009E1090006E21900031
:10583C00FE2190004AEE07004F05BE004F06BE0049
:10584C000017980011179800100220008080450066
:10585C000E6890001104E1002E003200A0A422007A
:10586C000080450060379800680040004037980081
:10587C0090022000000047001000FB004100DD00FA
:10588C000020ED008C9FBE008A9FBE00CF80DE0002
:10589C000081EB009DED07004E3290001401BE001C
:1058AC00C3EB07000E1190009E1190000AEB07004D
:1058BC006E31900060379800713798006400410099
:1058CC0040379800A2022000020147001200FB00A2
:1058DC00CF80DE000081EB008CED07004E32900093
:1058EC001401BE00B2EB07006027980071279800E6
