:10000000FCFF03209D490000254800002548000012
:10001000254800002548000025480000254800002C
:10002000254800002548000025480000254800001C
:10003000254800002548000025480000254800000C
:1000400025480000254800002548000025480000FC
:1000500025480000254800002548000025480000EC
:1000600025480000254800002548000025480000DC
:1000700025480000254800002548000025480000CC
:1000800025480000254800002548000025480000BC
:1000900025480000254800002548000025480000AC
:1000A000254800002548000025480000254800009C
:1000B000254800002548000025480000254800008C
:1000C000254800002548000025480000254800007C
:1000D000254800002548000025480000254800006C
:1000E000254800002548000025480000254800005C
:1000F000254800002548000025480000254800004C
:10010000254800002548000025480000254800003B
:10011000254800002548000025480000254800002B
:10012000254800002548000025480000254800001B
:10013000254800002548000025480000254800000B
:1001400025480000254800002548000025480000FB
:1001500025480000254800002548000025480000EB
:1001600025480000254800002548000025480000DB
:1001700025480000254800002548000025480000CB
:1001800025480000254800002548000025480000BB
:1001900025480000254800002548000025480000AB
:1001A000254800002548000025480000254800009B
:1001B000254800002548000025480000254800008B
:1001C000254800002548000025480000254800007B
:1001D000254800002548000025480000254800006B
:1001E000254800002548000025480000254800005B
:1001F000254800002548000025480000254800004B
:0802000025480000254800001C
:10499C00FFF766FFFFF744FF00F006FEFFF756FF38
:1049AC0000F0B4FDFFF776FEFFF79AFEFFF7B2FEBC
:0449BC00FCE7FEE72F
:1048100081B01CF8019B0BF8019BBBEB0A0FF8D190
:0448200001B070472C
:1046600081B04FF000094FF0000CBDEB0A0F04DCE5
:10467000BDEB0B0F01DBD446EA464BF8049BBBEBCA
:104680000A0FFAD1BCEB0A0F05DDE246D9F800B0FB
:0A4690000BF1040BF1E701B07047D5
:1046A00081B0CDF800E0FFF707FE0E48014600207C
:1046B000FFF70EFE4FF4E1312020FFF797FE0A4886
:1046C0000221FFF75BFE40F6FE07C0F23D0700BF88
:1046D00000BF7F1EFDD100BF00BF00BFDDF800E0BE
:0C46E00001B0704794130000000000209F
:1042B80040F62E47C0F200077F1EFDD100BF00BFA9
:0842C80000BF00BF00BF7047FA
:1042D00081B0CDF800E009E00846FFF703FA0AE0F4
:1042E0000846FFF70FFA06E0012004E00028F3D0AB
:0E42F0000128F5D0F8E7DDF800E001B07047D6
:1036E40081B0CDF800E0016808460449FFF71CFEEC
:1036F4000020DDF800E001B0704700BFF851000081
:10332C0081B0CDF800E00A4601460348FEF732FBB7
:0C333C00DDF800E001B070470000024026
:1019A00083B0CDF800E001920A46014601985C4BF5
:1019B000994216D100245B4B1C60012464B25A4B3F
:1019C0001C605A4C5A4B1C605A4C5B4B1C605B4C65
:1019D0005B4B1C605B4C5C4B1C605C4C5C4B1C6050
:1019E00065E15C4B994216D100245B4B1C600124DD
:1019F00064B25A4B1C605A4C4D4B1C60594C4E4BB8
:101A00001C60594C4E4B1C60584C4F4B1C60584C42
:101A10004F4B1C604BE1574B994216D10024564B5B
:101A20001C60012464B2554B1C60554C404B1C603B
:101A3000544C414B1C60544C414B1C60534C424B2A
:101A40001C60534C424B1C6031E1524B994216D101
:101A50000024514B1C60012464B2504B1C60504C5C
:101A6000334B1C604F4C344B1C604F4C344B1C6050
:101A70004E4C354B1C604E4C354B1C6017E14D4BAA
:101A8000994216D100244C4B1C60012464B24B4B8C
:101A90001C604B4C264B1C604A4C274B1C604A4C2C
:101AA000274B1C60494C284B1C60494C284B1C6040
:101AB000FDE0484B994216D10024474B1C6001249D
:101AC00064B2464B1C60464C194B1C60454C1A4B8B
:101AD0001C60454C1A4B1C60444C1B4B1C60444C16
:101AE0001B4B1C60E3E0434B994216D10024424B50
:101AF0001C60012464B2414B1C60414C0C4B1C60C7
:101B0000404C0D4B1C60404C0D4B1C603F4C0E4B31
:101B10001C603F4C0E4B1C60C9E03E4B99427BE081
:101B2000000002408800002000C4FC43FFFFFFFFCC
:101B3000C4440020C9140000C84400203D14000023
:101B4000CC44002079130000D0440020FFFFFFFFA9
:101B5000D4440020001002408C00002004C4FC4348
:101B6000FFFFFFFF0115000075100000CD130000FE
:101B7000FFFFFFFF002002409000002008C4FC434C
:101B8000FFFFFFFFE51400006911000021140000B1
:101B9000FFFFFFFF00300240940000200CC4FC4314
:101BA000FFFFFFFF391500004D1100000514000074
:101BB000FFFFFFFF00000C409800002010C4FC4312
:101BC000FFFFFFFF1D15000031110000E9130000A9
:101BD000FFFFFFFF00100C409C00002014C4FC43DA
:101BE000FFFFFFFF7514000005100000BD1100008D
:101BF000FFFFFFFF00200C40A000002018C4FC43A2
:101C0000FFFFFFFF5914000059100000A111000050
:101C1000FFFFFFFF00300C4016D10024414B1C6039
:101C2000012464B2404B1C60404C414B1C60414C51
:101C3000414B1C60414C424B1C60424C424B1C606F
:101C4000424C434B1C6032E0424B994216D1002477
:101C5000414B1C60012464B2404B1C60404C344B2F
:101C60001C60404C344B1C603F4C354B1C603F4C5F
:101C7000354B1C603E4C364B1C6018E03D4B994286
:101C800015D100243C4B1C60012464B23B4B1C600A
:101C90003B4C274B1C603B4C274B1C603A4C284B61
:101CA0001C603A4C284B1C60394C294B1C6001923B
:101CB0000291FFF7EDF90299019A01F22004102335
:101CC0002360344B9A4207D106260D1D01242B6850
:101CD00064F304132B6006E014260D1D00242B680A
:101CE00064F304132B60FFF71DFA40F2E83300FBA6
:101CF00003F506FB02F4B5FBF4F318466343EB1A55
:101D00000BB9401EFFE77F2801D97F20FFE701289C
:101D100001D20120FFE701F20C031860DDF800E0BA
:101D200003B07047A40000201CC4FC43FFFFFFFF6A
:101D3000C4440020AD140000C84400203D10000041
:101D4000CC44002085110000D0440020FFFFFFFF9D
:101D5000D444002000800B40A800002020C4FC4395
:101D6000FFFFFFFF9114000021100000D9110000B7
:101D7000FFFFFFFF00900B40AC00002024C4FC4399
:101D8000FFFFFFFF55150000B11300005D130000B9
:081D9000FFFFFFFFD0CF32007E
:1010900081B0CDF800E040F2000B82460AF1D801A1
:1010A00009788B4539D20C210BFB01F10AEB0101C8
:1010B0008C460CF108010978A9B90CF108010978EE
:1010C000CCB20CF1060109888BB20CF1040109784D
:1010D000CAB2DCF800100846D1B2002210B4FFF703
:1010E00025FA01B014E00CF108010978CCB20CF13A
:1010F000060109888BB20CF104010978CAB2DCF848
:1011000000100846D1B20F2210B4FFF70FFA01B059
:101110000BF1010B5FFA8BFBC0E7DDF800E001B0DB
:02112000704716
:10052C0082B0CDF800E05FFA81F8D5B29FB29DF8A9
:10053C000830F54C00EA0404A1462046FFF7FAFE09
:10054C00F24CA54208D109F580666FEA0805EDB2B8
:10055C0034682C40346008E0ED4CA54205D109F517
:10056C0080652C6844EA08042C6040F2010407EA18
:10057C000404A4B234B109F5A2652C6844EA080459
:10058C002C6007E009F5A2666FEA0805EDB2346845
:10059C002C40346040F2020407EA0404A4B234B1E3
:1005AC0009F214552C6844EA08042C6007E009F29F
:1005BC0014566FEA0805EDB234682C40346040F2F2
:1005CC00080407EA0404A4B234B109F20C552C68EF
:1005DC0044EA08042C6007E009F20C566FEA08059F
:1005EC00EDB234682C40346040F2100407EA040485
:1005FC00A4B234B109F5A0652C6844EA08042C6057
:10060C0007E009F5A0666FEA0805EDB234682C40E6
:10061C00346040F2200407EA0404A4B234B109F2B5
:10062C0004552C6844EA08042C6007E009F20456CF
:10063C006FEA0805EDB234682C40346040F2400497
:10064C0007EA0404A4B234B109F5A1652C6844EAA4
:10065C0008042C6007E009F5A1666FEA0805EDB205
:10066C0034682C40346041F2000407EA0404A4B25C
:10067C00012C13D042F2000407EA0404A4B2012CAA
:10068C000CD044F2000407EA0404A4B2012C05D0F7
:10069C00DEB24B46B8B25FFA88F53CE0002000268B
:1006AC00DAB2BBB207465FFA88F04946082E13D27D
:1006BC0020FA06F4E4B204F00104E4B24CB1750083
:1006CC002DB2032424B2AC4024B247EA04052F46D1
:1006DC00FFE7761CF6B2E9E701F6C476FD43346811
:1006EC002C40346001F23C56C543EDB234682C40CA
:1006FC00346001F5A166C543EDB234682C4034601A
:10070C0001F20456C543EDB234682C403460C5B2D6
:10071C0098B20B46D6B2002141F2000400EA040460
:10072C00A4B23CB300220F46E9B2082A13D221FA34
:10073C0002F4E4B204F00104E4B24CB155002DB261
:10074C00012424B2AC4024B247EA04052F46FFE74B
:10075C00521CD2B2E9E703F6C4752C683C432C60FA
:10076C0003F5A1652C680C432C603D461F4683B2F3
:10077C00C8B203E01F4683B2E8B20D4642F2000451
:10078C0003EA0404A4B26CB30022A8463946082A32
:10079C0013D220FA02F4E4B204F00104E4B24CB136
:1007AC0055002DB2032424B2AC4024B248EA04050F
:1007BC00A846FFE7521CD2B2E9E701F6C4752C68D3
:1007CC0044EA08042C6001F23C552C6804432C606C
:1007DC0001F5A1652C6804432C60F7B20E46C2B239
:1007EC0098B205E00197C2B298B2F7B2A846019E42
:1007FC0044F2000400EA0404A4B284B30023D1B28E
:10080C00082B14D221FA03F4E4B204F00104E4B28C
:10081C0054B15D002DB2032424B2AC4024B248EA9A
:10082C00040422469046FFE75B1CDBB2E8E706F6C1
:10083C00C4752C6844EA08042C6006F23C552C68FC
:10084C000C432C6006F5A1652C680C432C6006F259
:10085C0004552C680C432C60FBB2324602E0D1B23A
:10086C003246FBB240F2800400EA0404A4B274B134
:10087C0040F2400400EA0404A4B22CB102F5A365D2
:10088C002C680C432C6001E00120FAE006E002F534
:10089C00A366CD43EDB234682C40346040F20014B2
:1008AC0000EA0404A4B22CB102F21C552C680C43CF
:1008BC002C6006E002F21C56CD43EDB234682C409D
:1008CC00346040F2002400EA0404A4B2002C3AD0B4
:1008DC00104CA24240F2000500D001250E4CA24261
:1008EC0040F2000400D0012425400C4CA24240F2FE
:1008FC00000400D001242540094CA24240F200041F
:10090C0000D0012425400DE000F0FFFF00000000A6
:10091C000100000000C0054000B0054000900540FB
:10092C0000100640594CA24240F2000400D00124B1
:10093C0005EA04040CB10120A3E002F5A5652C68BE
:10094C000C432C602AE0524CA24240F2000500D12C
:10095C000125504CA24240F2000400D10124254351
:10096C004D4CA24240F2000400D1012425434B4CD3
:10097C00A24240F2000400D101242543434CA24280
:10098C0040F2000400D1012445EA040434B102F51C
:10099C00A566CD43EDB234682C40346040F60004BB
:1009AC0000EA0404A4B22CB102F5A6652C680C4331
:1009BC002C6006E002F5A666CD43EDB234682C40FF
:1009CC00346040F2004400EA0404A4B22CB102F5F5
:1009DC0084652C680C432C6006E002F58466CD43DC
:1009EC00EDB234682C4034600BB9002049E00F2B79
:1009FC0001D9012045E0002700208DF80430C3B256
:100A0C0010469DF80420082B12D221FA03F4E4B20C
:100A1C0004F00104E4B244B19D002DB24FF00F0478
:100A2C00AC4047EA04052F46FFE75B1CDBB2EAE764
:100A3C0000F22C56FD4334682C4034600026002311
:100A4C008DF80430CBB29DF80410082913D223FA88
:100A5C0001F4E4B204F00104E4B24CB1D5B28C0060
:100A6C0024B205FA04F446EA040425462E46FFE7B0
:100A7C00491CC9B2E9E700F22C552C6834432C60B0
:100A8C000020DDF800E002B0704700BF00500640C7
:100A9C0000C0054000B00540009005400010064025
:1003400081B0664900EA010108467DE06449096818
:1003500041F0010262490A60BEE06149096841F06A
:1003600002025F490A60B7E05D49096841F0040292
:100370005B490A60B0E05A49096841F008025849EF
:100380000A60A9E05649096841F0100254490A6020
:10039000A2E05349096841F0200251490A609BE0FC
:1003A0004F49096841F040024D490A6094E04C49C8
:1003B000096841F080024A490A608DE048490968AD
:1003C00041F4807246490A6086E04549096841F473
:1003D000007243490A607FE04149096841F4806244
:1003E0003F490A6078E03E49096841F400623C49AF
:1003F0000A6071E03A49096841F4805238490A605C
:100400006AE03749096841F4005235490A6063E0FF
:100410003349096841F4804231490A605CE030495F
:10042000096841F400422E490A6055E02C490968E8
:1004300041F480322A490A604EE02949096841F4B2
:10044000003227490A6047E0264988423FF47EAFE0
:10045000254988423FF481AF244988423FF484AF64
:10046000234988423FF487AF224988423FF48AAF4C
:10047000214988423FF48DAF204988423FF490AF34
:100480001F4988423FF493AF1E4988423FF496AF1C
:100490001D4988423FF499AF1C4988423FF49CAF04
:1004A0001B4988423FF49FAF1A4988423FF4A2AFEC
:1004B000194988423FF4A5AF184988423FF4A8AFD4
:1004C000174988423FF4ABAF164988423FF4AEAFBC
:1004D000154988423FF4B1AF01B0704700F0FFFF0B
:1004E00008E60F40008005400090054000A0054050
:1004F00000B0054000C0054000D0054000E00540C8
:1005000000F00540000006400010064000200640B4
:1005100000300640004006400050064000600640A3
:0C0520000070064000800640009006407D
:0C11240001480068704700BF984400209C
:1037040081B0CDF800E0016808460449FFF70CFEDB
:103714000020DDF800E001B0704700BFF851000060
:1043EC0081B0CDF800E011E00846FFF795F916E032
:1043FC000846FFF75FF912E00846FFF735FE0EE0BE
:10440C000846FFF729FF0AE0012008E00028EBD05E
:10441C000128EDD02028EFD03028F1D0F4E7DDF8DA
:06442C0000E001B0704742
:1037240081B0CDF800E0FFF773FE044A04490A6053
:103734000020DDF800E001B0704700BF6D360000E6
:04374400140D002040
:1034140082B0CDF800E00346214A22490A60224ADC
:1034240022490A60224A23490A60234A23490A603E
:1034340001932348FDF72AFE019B012252B2214940
:103444000A6000BF00BF00BFFEF772FAFDF768FE16
:1034540040F2E83100FB01F210461901914205D90E
:10346400012252B218490A605A0804E0002252B2FA
:1034740015490A601A46C100B1FBF2F1491C4B0818
:103484009A0912490A6003F03F0211490A60602256
:1034940010490A60FEF73AFADDF800E002B070471E
:1034A4006D360000D8440020FFFFFFFFDC440020FD
:1034B400FFFFFFFFE0440020FFFFFFFFE444002084
:1034C4004050000014C3FC4314062242241001405F
:0834D400281001402C100140FA
:1019340081B0002149B204480160044801600448B0
:10194400016001B0704700BF000622422006224217
:041954002406224201
:1019100081B0012149B204480160044801600448D3
:10192000016001B0704700BF00062242200622423B
:041930002406224225
:1036C00081B0CDF800E0FFF76DFF044A04490A60BD
:1036D0000020DDF800E001B0704700BF893600002F
:0436E000140D0020A5
:1035A40082B0CDF800E00346214A22490A60224A4B
:1035B40022490A60224A23490A60234A23490A60AD
:1035C40001932348FDF762FD019B012252B2214978
:1035D4000A6000BF00BF00BFFEF786F9FDF7A0FD3B
:1035E40040F2E83100FB01F210461901914205D97D
:1035F400012252B218490A605A0804E0002252B269
:1036040015490A601A46C100B1FBF2F1491C4B0886
:103614009A0912490A6003F03F0211490A606022C4
:1036240010490A60FEF7B6F8DDF800E002B0704712
:1036340089360000D8440020FFFFFFFFDC4400204F
:10364400FFFFFFFFE0440020FFFFFFFFE4440020F2
:10365400D45200001CC3FC4314062642243001400B
:08366400283001402C30014028
:1018EC0081B0002149B204480160044801600448F9
:1018FC00016001B0704700BF000626422006264258
:04190C002406264245
:1017980081B0012149B2044801600448016004484D
:1017A800016001B0704700BF0006264220062642AD
:0417B800240626429B
:1040740081B0CDF800E0FFF72FFA044A04490A6042
:104084000020DDF800E001B0704700BF091E000009
:04409400140D0020E7
:1034DC0082B0CDF800E00346214A22490A60224A14
:1034EC0022490A60224A23490A60234A23490A6076
:1034FC0001932348FDF7C6FD019B012252B22149DD
:10350C000A6000BF00BF00BFFEF72EF9FDF704FEF6
:10351C0040F2E83100FB01F210461901914205D945
:10352C00012252B218490A605A0804E0002252B231
:10353C0015490A601A46C100B1FBF2F1491C4B084F
:10354C009A0912490A6003F03F0211490A6060228D
:10355C0010490A60FEF706F8DDF800E002B070478B
:10356C00091E0000D8440020FFFFFFFFDC440020B0
:10357C00FFFFFFFFE0440020FFFFFFFFE4440020BB
:10358C001C51000008C3FC4314061C4224E00040FC
:08359C0028E000402CE0004093
:1017740081B0002149B20448016004480160044872
:10178400016001B0704700BF00061C4220061C42E5
:0417940024061C42C9
:1015700081B0012149B20448016004480160044877
:10158000016001B0704700BF00061C4220061C42EB
:0415900024061C42CF
:1042640081B0CDF800E0FFF79BF9044A04490A60E5
:104274000020DDF800E001B0704700BF893600007F
:04428400140D0020F5
:10437C0083B0CDF800E0024610460D228DF80820DF
:10438C000A228DF809201FE0FFF756FF23E0027880
:10439C002AB10190FFF750FF0198401CF7E71AE093
:1043AC0002782AB10190FFF747FF0198401CF7E70C
:1043BC0002AA1046FFF740FF0DF109021046FFF765
:1043CC003BFF08E0062007E00029DDD00129DED004
:1043DC000229E5D0F6E70020DDF800E003B07047D5
:1042440081B0CDF800E00178CCB2A0B2034C246870
:10425400A0470020DDF800E001B07047140D0020F5
:101E240081B00449096801B1FBE70349086001B0C6
:0C1E3400704700BF1403184200C00040BB
:101DEC0081B00449096801B1FBE70349086001B0FF
:0C1DFC00704700BF14031A4200D00040E2
:101E080081B00449096801B1FBE70349086001B0E2
:0C1E1800704700BF14031C4200E00040B3
:101D980081B00449096801B1FBE70349086001B053
:0C1DA800704700BF14031E4200F0004012
:101DD00081B00449096801B1FBE70349086001B01B
:0C1DE000704700BF1403204200000140C7
:10366C0081B00449096801B1FBE70349086001B066
:0C367C00704700BF140322420010014000
:1036A40081B00449096801B1FBE70349086001B02E
:0C36B400704700BF1403244200200140B6
:1036880081B00449096801B1FBE70349086001B04A
:0C369800704700BF1403264200300140C0
:1046EC0081B0CDF800E0332207490848FFF792FF6C
:1046FC00FFF7C4FD06480221FFF73AFEFFF7C6FCA0
:10470C00DDF800E001B070470C5500003854000093
:04471C001600002063
:1046200081B0CDF800E00446054B1A700846FFF74C
:10463000E7FD2046FFF7E2FDDDF800E001B070473E
:0446400085000020D1
:10420000026806490A60011D0A6805490A6000F251
:1042100008010A6803490A60704700BF180D0020B2
:08422000944400201C0D002055
:0241FC0070470A
:1042880081B0CDF800E00848FFF7CAFF07490648A3
:10429800FFF764FF0320FFF753FAFFF7F9FEDDF895
:1042A80000E001B0704700BF200D0020A0130020DF
:1042280081B0CDF800E0024640F2403142F2004051
:0C423800FFF786F8DDF800E001B07047E9
:10334800ADF2946DCDF800E0ADF88816CDF88C2676
:103358000DF1060B0BF5D06ADFF8A8C001F054FA9E
:10336800BDF888365B00ADF8903601AC030ADBB2D5
:103378002370641C00F0FF03DBB22370FEF706F92C
:1033880001AC214B1B7802222146D8B20123FEF75B
:1033980011FA0DF106041C4B1B78BDF89026214646
:1033A800D8B20023FEF7FCF8002188B2BDF88836B1
:1033B800984221D24500ADB2A9B24400DDF88C365E
:1033C8001C190DF1060673191B7823804400DDF8DB
:1033D8008C361C1923881B0223804400DDF88C36A8
:1033E8001D194B1C9BB2F3181C782B8823432B8088
:1033F800431C99B288B2D9E7DDF800E00DF2946D6C
:0C340800704700BFC04900008500002094
:1015940040F2000212B201210148017010B27047FA
:0415A4007A000020A9
:1017BC0085B0CDF800E0ADF80C200A468DF810305D
:1017CC0040F20004ADF808401146424C247854B164
:1017DC0001910021404C2468A0470199FFF7D6FDE8
:1017EC0000253C4C2570BDF80C40012C0DD10C781B
:1017FC000721E0B2394C2468A047BDF908400443E6
:10180C00ADF80840FFF7C2FD57E0BDF80C40022CC4
:10181C001CD10C7801910321E0B2304C2468A04714
:10182C000199BDF908400443ADF808404C1C204612
:10183C00FFF7ACFD04780521E0B2284C2468A047E2
:10184C00BDF908400443ADF8084036E00C7801912E
:10185C000321E0B2214C2468A0470199BDF908404E
:10186C000443ADF808404B1CFFF790FD1946BDF83A
:10187C000C40641EA4B2ADF80C40012C12D90C78AB
:10188C0001910121E0B2154C2468A0470199BDF9E2
:10189C0008400443ADF808404C1C2346FFF776FD86
:1018AC001946E4E70C780521E0B20C4C2468A047FB
:1018BC00BDF908400443ADF808409DF81040012CD8
:1018CC0002D10125034C2570BDF90800DDF800E0BC
:1018DC0005B070477A000020180D002094440020B9
:1014C80081B0CDF800E0CAB2C1B20348FFF71AFBF9
:0C14D800DDF800E001B0704700000240A9
:100B0C0081B04B009BB213439BB2036001B07047A2
:1015000081B0CDF800E0CAB2C1B20348FFF7FEFADD
:0C151000DDF800E001B070470010024060
:1014E40081B0CDF800E0CAB2C1B20348FFF70CFBEB
:0C14F400DDF800E001B07047002002406D
:1015380081B0CDF800E0CAB2C1B20348FFF7E2FAC1
:0C154800DDF800E001B070470030024008
:10151C0081B0CDF800E0CAB2C1B20348FFF7F0FACF
:0C152C00DDF800E001B0704700000C404A
:1014740081B0CDF800E0CAB2C1B20348FFF744FB23
:0C148400DDF800E001B0704700100C40E3
:1014580081B0CDF800E0CAB2C1B20348FFF752FB31
:0C146800DDF800E001B0704700200C40EF
:1014AC0081B0CDF800E0CAB2C1B20348FFF728FB07
:0C14BC00DDF800E001B0704700300C408B
:1014900081B0CDF800E0CAB2C1B20348FFF736FB15
:0C14A000DDF800E001B0704700800B4058
:1015540081B0CDF800E0CAB2C1B20348FFF7D4FAB3
:0C156400DDF800E001B0704700900B4083
:10143C0081B0CDF800E0CAB2C1B20348FFF78AFC14
:0C144C00DDF800E001B070470000024035
:100D600082B0CDF800E04FF000045D4B984205D111
:100D70005C4B1D685C4B1B6801935BE05B4B9842CE
:100D800006D15B4B1C685B4B1B680193254651E009
:100D9000594B984206D1594B1C68594B1B6801931B
:100DA000234646E0574B984206D1574B1C68574B99
:100DB0001B68019323463CE0554B984206D1554BA6
:100DC0001C68554B1B680193234632E0534B9842F5
:100DD00006D1534B1C68534B1B680193234628E0F4
:100DE000514B984206D1514B1C68514B1B680193E3
:100DF00023461EE04F4B984206D14F4B1C684F4B89
:100E00001B680193234614E04D4B984206D14D4B8D
:100E10001C684D4B1B68019323460AE04B4B9842DC
:100E200006D14B4B1C684B4B1B680193234600E0DB
:100E300023461D4600F208031960072A05D0032A3D
:100E400003D004462846D1B215E02E46D1B2024660
:100E50002846131D1C68C4F380135BB148B126B942
:100E60000420019CA047012036E0731E1C46264644
:100E7000FFE7EEE71446231D1960FFF725FAFFF799
:100E800023FAFFF721FA024625462B1D1C68C4F3FE
:100E900000034BB138B122B90420019CA0470120C6
:100EA0001AE0521EFFE7F0E72B1D1C68C4F3400355
:100EB0006BB1012902D0032900D008E02B1D1C686A
:100EC000C4F300131BB92C1D40F2040323602B1D37
:100ED0001C68C4F34003D8B2DDF800E002B07047EC
:100EE00000000240880000209C44002000100240C6
:100EF0008C000020A0440020002002409000002030
:100F0000A44400200030024094000020A8440020A7
:100F100000000C4098000020AC44002000100C4061
:100F20009C000020B044002000200C40A0000020C5
:100F3000B444002000300C40A4000020B84400203D
:100F400000800B40A8000020BC44002000900B4013
:080F5000AC000020C0440020A9
:0C02680001490860704700BF907FB84259
:0C025C0001490860704700BF807FB84275
:0C02500001490860704700BF807FB24287
:0C028C0001490860704700BF887FB04245
:0C02800001490860704700BF907FB04249
:0C02740001490860704700BF947FB04251
:0C02200001490860704700BF807FB642B3
:0C02140001490860704700BF907FBA42AB
:0C02080001490860704700BF987FB442B5
:0C02440001490860704700BF9C7FB44275
:0C02380001490860704700BF887FB24297
:0C022C0001490860704700BF8C7FB2429F
:0C02980001490860704700BF947FB84225
:0C03100001490860704700BF847FB842BC
:0C03040001490860704700BF947FB242BE
:0C02F80001490860704700BF887FB042D9
:0C03340001490860704700BF907FB04294
:0C03280001490860704700BF947FB0429C
:0C031C0001490860704700BF847FB642B2
:0C02BC0001490860704700BF987FB642FF
:0C02B00001490860704700BF907FB44215
:0C02A40001490860704700BF947FB4421D
:0C02EC0001490860704700BF887FB242E3
:0C02E00001490860704700BF8C7FB242EB
:1002C80040F22607C0F200077F1EFDD100BF00BF25
:0802D80000BF00BF00BF70472A
:1010740081B0CDF800E0CAB2C1B20348FFF76EFEFA
:0C108400DDF800E001B0704700100240F1
:1011680081B0CDF800E0CAB2C1B20348FFF7F4FD80
:0C117800DDF800E001B0704700200240EC
:10114C0081B0CDF800E0CAB2C1B20348FFF702FE8D
:0C115C00DDF800E001B0704700300240F8
:1011300081B0CDF800E0CAB2C1B20348FFF710FE9B
:0C114000DDF800E001B0704700000C403A
:1010040081B0CDF800E0CAB2C1B20348FFF7A6FE32
:0C101400DDF800E001B0704700100C4057
:1010580081B0CDF800E0CAB2C1B20348FFF77CFE08
:0C106800DDF800E001B0704700200C40F3
:10103C0081B0CDF800E0CAB2C1B20348FFF78AFE16
:0C104C00DDF800E001B0704700300C40FF
:1010200081B0CDF800E0CAB2C1B20348FFF798FE24
:0C103000DDF800E001B0704700800B40CC
:1013B00081B0CDF800E0CAB2C1B20348FFF7D0FC5B
:0C13C000DDF800E001B0704700900B4029
:1013980049F63E47C0F200077F1EFDD100BF00BFDF
:0813A80000BF00BF00BF704749
:1015A80085B0CDF800E0ADF80C200A468DF8103073
:1015B80040F20004ADF8084011463F4C247854B17D
:1015C800019101213D4C2468A0470199FFF7E0FEF5
:1015D8000025394C2570BDF80C40012C0CD108466B
:1015E8000721374C2468A047BDF908400443ADF8EB
:1015F8000840FFF7CDFE51E0BDF80C40022C19D190
:10160800019108460B212E4C2468A0470199BDF989
:1016180008400443ADF808404C1C2046FFF7B8FECC
:101628000521274C2468A047BDF908400443ADF8BC
:10163800084033E0019108460B21214C2468A0475B
:101648000199BDF908400443ADF808404B1CFFF769
:101658009FFE1946BDF80C40641EA4B2ADF80C40BC
:10166800012C11D9019108460921154C2468A0477D
:101678000199BDF908400443ADF808404C1C2346C5
:10168800FFF786FE1946E5E7084605210C4C246855
:10169800A047BDF908400443ADF808409DF8104044
:1016A800012C02D10125044C2570BDF90800DDF894
:1016B80000E005B0704700BF7A000020180D002038
:0416C8001C0D0020D5
:1013780081B0CDF800E0CAB201460348FFF7CAFBC6
:0C138800DDF800E001B0704700000240FA
:100B1C0084B0CDF800E0044603914FF0000302933B
:100B2C005E4B9C4206D15E4B1B6802935D4B1B686F
:100B3C00019358E05C4B9C4206D15C4B1B680293C2
:100B4C005B4B1B6801934EE05A4B9C4206D15A4BAF
:100B5C001B680293594B1B68019344E0584B9C4211
:100B6C0006D1584B1B680293574B1B6801933AE014
:100B7C00564B9C4206D1564B1B680293554B1B6837
:100B8C00019330E0544B9C4206D1544B1B680293AA
:100B9C00534B1B68019326E0524B9C4206D1524B9F
:100BAC001B680293514B1B6801931CE0504B9C42F9
:100BBC0006D1504B1B6802934F4B1B68019312E0FC
:100BCC004E4B9C4206D14E4B1B6802934D4B1B68FF
:100BDC00019308E04C4B9C4205D14C4B1B68029393
:100BEC004B4B1B680193072A03D00B2A01D02046DC
:100BFC0017E0029E2046D1B2031D1C68C4F380137B
:100C0C0073B1029B4BB126B90320019CA047012074
:100C1C0040E0731E1A46134600E033461E46EBE7CF
:100C2C00CAB2031D1A60FFF749FBFFF747FBFFF73A
:100C3C0045FB029E031D1C68C4F3000363B1029BB9
:100C4C003BB126B90320019CA047012022E0711E74
:100C5C0000E031460E46EDE7031D1C68C4F340036B
:100C6C0073B1092A02D00B2A00D008E0031D1C68BE
:100C7C00C4F300131BB9041D40F20403236004E009
:100C8C0000F208031C68039B1C70031D1C68C4F352
:100C9C004003D8B2DDF800E004B070470000024019
:100CAC00880000209C440020001002408C00002092
:100CBC00A04400200020024090000020A44400200A
:100CCC000030024094000020A844002000000C409A
:100CDC0098000020AC44002000100C409C00002028
:100CEC00B044002000200C40A0000020B4440020A0
:100CFC0000300C40A4000020B844002000800B40C1
:100D0C00A8000020BC44002000900B40AC00002048
:040D1C00C0440020AF
:1013CC0081B0CDF800E0CAB201460348FFF7A0FB9C
:0C13DC00DDF800E001B070470010024096
:1014200081B0CDF800E0CAB201460348FFF776FB71
:0C143000DDF800E001B070470020024031
:1014040081B0CDF800E0CAB201460348FFF784FB7F
:0C141400DDF800E001B07047003002403D
:1013E80081B0CDF800E0CAB201460348FFF792FB8E
:0C13F800DDF800E001B0704700000C4080
:1011BC0081B0CDF800E0CAB201460348FFF7A8FCA5
:0C11CC00DDF800E001B0704700100C409E
:1011A00081B0CDF800E0CAB201460348FFF7B6FCB3
:0C11B000DDF800E001B0704700200C40AA
:1011840081B0CDF800E0CAB201460348FFF7C4FCC1
:0C119400DDF800E001B0704700300C40B6
:1011D80081B0CDF800E0CAB201460348FFF79AFC97
:0C11E800DDF800E001B0704700800B4013
:10135C0081B0CDF800E0CAB201460348FFF7D8FBD4
:0C136C00DDF800E001B0704700900B407D
:1041640084B0CDF800E0029003910298FDF720FEA0
:10417400ADF80400C8BB03990298FDF75FFE0399EC
:104184000298FDF77FFE03990298FEF797FC0399C6
:104194000298FEF769FC03990298FEF759FC03990B
:1041A4000298FEF79DFC03990298FEF7FFFF03991E
:1041B4000298FEF733FE03990298FEF7BDFC0399BB
:1041C4000298FEF7F7F803990298FEF739F8039975
:1041D4000298FDF7D7FE03990298FEF7FDF90399BB
:1041E4000298FEF741FBADF80400BDF90400DDF8C8
:0641F40000E004B070477A
:101DB40000F21401098801F0400109B211B90020B0
:0C1DC40000B202E04FF6F97000B2704768
:101E400000F26602128802F47F4292B2120A13B2C2
:101E500012B27F2A04DDA3F5807213B21AB200E039
:101E60001AB2530100F26602128802F0FF0212B2A7
:101E7000A2F5807212B2520112B2A2F5005210B253
:081E80000B808A1C10807047E2
:101E880082B0CDF800E00E4600F26402128802F437
:101E98007C4292B2920A92B200EE902AF8EE600A60
:101EA800B0EE601AB3EE0F0AF4EEC00AF1EE10FAC3
:101EB80006DD4FF0854200EE102A71EE400A01E07F
:101EC800F0EE410A4FF08B4200EE102A80EE800AB5
:101ED800B0EE403A00F26402138840F2FF3203EA9F
:101EE800020292B200EE902AF8EE600AB0EE601A92
:101EF800224A00EE102AF4EEC00AF1EE10FA06DDCE
:101F08004FF0894200EE102A71EE400A01E0F0EE2F
:101F1800410AB2EE000A80EE800AF0EE403A00F282
:101F28006202128817B200F22002128802F470428C
:101F3800ADF80420F2EE0C0AB0EE000AFFF7C2FB7F
:101F4800BDF8042000EE902AF8EE600AC0EE800A80
:101F5800B2EE000A30EE800A321D02ED003A06F2B7
:101F6800080242ED003A06F20C02178006F210024F
:101F780002ED000ADDF800E002B070470080FF4380
:1016CC0082B0CDF800E0F0EE402AB0EE602A0020A7
:1016DC00B5EEC02AF1EE10FA02D1B7EE000A3EE0E8
:1016EC00F5EEC02AF1EE10FA04D14FF0000200EE34
:1016FC00102A34E0F5EEC02AF1EE10FA1BDABDEE3A
:10170C00420A10EE102A104600EE102AB8EEC00A5B
:10171C00B4EEC20AF1EE10FA04D04FF0000200EE63
:10172C00102A1CE000F00102D0B2F1EE620AC5B240
:10173C00B0EE600A05E08DF80400B0EE620A9DF888
:10174C000450FFF7CBFD20EE020AFFF74DFDF0EE43
:10175C00400A15B1B1EE600A01E0B0EE600ADDF8A6
:06176C0000E002B070472E
:1012E80082B0CDF800E0B5EEC00AF1EE10FA04DCE9
:1012F8004FF0000100EE101A23E001A90846FFF79D
:1013080067FEF0EE000A60EE200AB7EE000A30EE43
:10131800C00ABDF90410491EADF8041040F20801D6
:1013280009B20A48FFF7F8FCBDF9041001EE101ADB
:10133800B8EEC11A064900EE901A60EE810A30EE46
:10134800200ADDF800E002B0704700BFE854000052
:041358001872313F97
:100FD80081B00DED000ABDF80210C1F3C7117E39CA
:100FE80009B201807E22BDF8021062F3CE11ADF87D
:0A0FF80002101DED000A01B0704761
:100D200081B0F0EE400A8A00821812ED000AB0EE9F
:100D3000401AB0EE410AB0EE601A79B161EE000AD5
:100D40004A1E12B211B29200821812ED000A30EE61
:100D5000800A0DED000A1DED000AEEE701B07047B4
:1011F40081B0CDF800E0F0EE401AF5EEC01AF1EE41
:1012040010FA02D1B7EE000A5DE0314900EE101A7F
:10121400F4EEC01AF1EE10FA03DD2E4900EE101AB6
:1012240051E02D4900EE101AF4EEC01AF1EE10FA56
:1012340004DA4FF0000100EE101A44E0F5EEC01A93
:10124400F1EE10FA40F2000100DA0121CBB2C9B28A
:1012540011B1F1EE610A01E0F0EE610A1F4900EEFE
:10126400101A20EE800AF0EE401AFFF773FEBDEE6E
:10127400400A10EE101A09B20CB200EE101AB8EEC1
:10128400C00A31EEC00A40F2090109B21448FFF75E
:1012940045FD20B2FFF708FCF0EE400A8BB10D4982
:1012A40000EE101AF4EEC00AF1EE10FA04D14FF079
:1012B400000100EE101A06E0B7EE000A80EE200AE4
:1012C40001E0B0EE600ADDF800E001B0704700BF55
:1012D400FED4B242FFFF7F7F50ACAEC23BAAB83F00
:0412E400C0540000F2
:100F580081B00DED000A00A90968C90D01F0FF0173
:100F680009B27F3909B208B200290EDA1DED000A6C
:100F7800B5EEC00AF1EE10FA02DABFEE000A24E07C
:100F88004FF0000100EE101A1FE081B2182902D9B3
:100F98001DED000A19E01DED000ABDEE400A10EE35
:100FA800101A00EE901AF8EEE00AB0EE601A1DED85
:100FB800000AF4EEC00AF1EE10FA04DDB7EE000AFA
:0E0FC80031EE400A01E0B0EE410A01B0704780
:100AAC0081B00DED000ABDF80210C1F3C711411859
:100ABC0008B209B2002904DA4FF0000100EE101A56
:100ACC0019E0B0F1FF0F0DDDB5EEC00AF1EE10FA32
:100ADC0004DA6FF4000100EE101A0CE0074900EE86
:100AEC00101A08E082B2BDF8021062F3CE11ADF814
:100AFC0002101DED000A01B0704700BFFFFF7F7FA1
:102AC00000F26002128810B213B247F6FF7293420E
:102AD00003DDA0F5803210B2FFE701F2140210808E
:022AE00070473D
:102A6C0000F27802128802F0FF0292B200EE902A75
:102A7C00F8EE600AB0EE601A0D4A00EE102AF4EE81
:102A8C00C00AF1EE10FA06DD4FF0874200EE102A74
:102A9C0071EE400A01E0F0EE410A4FF0844200EE84
:102AAC00102A80EE800A01F2180202ED000A70472B
:042ABC000000FE42D6
:102A540000F27002128802F4405292B2120B01F298
:082A64002403D2B21A7070477E
:102AE40000F27802128802F47F4292B2120A92B281
:102AF40000EE902AF8EE600AB0EE601A0D4A00EE7D
:102B0400102AF4EEC00AF1EE10FA06DD4FF0874207
:102B140000EE102A71EE400A01E0F0EE410A4FF097
:102B24008C4200EE102A80EE800A01F2280202EDA7
:082B3400000A70470000FE4298
:1031B00000F27E02128802F4405292B2130B9BB2CC
:1031C0000A225A4356B201F23C034FF6D87212B2A9
:1031D0001A8001F23C02931C002212B21A8001F202
:1031E0003C02131D00F27E02128802F0F00292B23D
:1031F00012091A8001F23C02931D00F27E0212882D
:1032000002F4706292B2120A1A8001F23C02131D9B
:10321000121DB2F9002072431A8001F23C05AC1D68
:103220002A1DB2F90030AA1DB2F90020724312B271
:103230009A1822800C231BB2012212B29A4014B2B7
:1032400001F22C0300F27A02128802F0FF0292B21D
:1032500000EE102AB8EE400A03ED000A01F22C023B
:10326000131D00F27A02128802F47F4292B2120A0F
:1032700092B200EE102AB8EE400A03ED000A01F205
:103280002C0202F2080300F27C02128802F0FF0214
:1032900092B200EE102AB8EE400A03ED000A01F2E5
:1032A0002C0202F20C0300F27C02128802F47F422C
:1032B00092B2120A92B200EE102AB8EE400A03ED62
:1032C000000A00252DB220B2042D2CDA01F22C03C5
:1032D000AA009A1852ED000A134A00EE102AF4EEE2
:1032E000C00AF1EE10FA0DDD01F22C03AA009C18C1
:1032F00054ED000A4FF0874200EE102A30EEC00A6B
:1033000004ED000A01F22C03AA009B1853ED000AF9
:1033100000EE100AB8EEC00A80EE800A03ED000A43
:0C3320006D1C2DB2D0E770470000FE428B
:102E2000A7B0CDF800E01E901F911E9A4032128884
:102E300002F00F02D7B21E9A4032128802F0F0025E
:102E400092B212098DF875201E9A4032128802F44F
:102E5000706292B2120A8DF874201E9A4032128863
:102E600002F4704292B2120B92B21E32D1B21E9A8A
:102E70004232108840F200090FFA89F90FFA89F6F8
:102E8000062E4ADAB20012B2ADF8802001AD52002F
:102E9000AC1806F2220212B253001E9AD2181288FF
:102EA00002F00F022280BDF98020521C12B25200A3
:102EB000AC1806F2220212B253001E9AD2181288DF
:102EC00002F0F00292B212092280BDF98020921C19
:102ED00012B25200AC1806F2220212B253001E9A2D
:102EE000D218128802F4706292B2120A2280BDF9DE
:102EF0008020D21C12B25200AC1806F2220212B28A
:102F000053001E9AD218128802F4704292B2120B29
:102F10002280721C12B216B2B2E7002424B2CDB2E3
:102F20005FFA87F8182C11DA01AB62009A18B2F92F
:102F30000020072A06DD01AB62009B18B3F90020D0
:102F4000103A1A80621C12B214B2EBE740F2000A87
:102F50000FFA8AFAE9B20FFA8AF6082E4ADAB200B4
:102F600012B2ADF880200DAD5200AC1806F2280266
:102F700012B253001E9AD218128802F00F02228059
:102F8000BDF98020521C12B25200AC1806F2280281
:102F900012B253001E9AD218128802F0F00292B2B6
:102FA00012092280BDF98020921C12B25200AC1886
:102FB00006F2280212B253001E9AD218128802F4A6
:102FC000706292B2120A2280BDF98020D21C12B225
:102FD0005200AC1806F2280212B253001E9AD21800
:102FE000128802F4704292B2120B2280721C12B24A
:102FF00016B2B2E740F2000B0FFA8BFB0FFA80FC1F
:10300000CDB25FFA88F40FFA8BF6202E10DA0DABF2
:1030100072009A18B2F90020072A06DD0DAB720083
:103020009B18B3F90020103A1A80721C16B2ECE714
:10303000002000B2EBB20FFA8CF1182880F2B380B6
:10304000002636B207B20FFA81FC5FFA83FB5FFA03
:1030500084F8202E80F29E807A0112B295192DB24A
:10306000ADF880501F9A02F24403AA009C1805F2A2
:10307000400212B253001E9AD218128802F47C72D7
:1030800092B2120992B200EE102AB8EE400A04ED94
:10309000000A1F9A02F24403BDF9802092009A1898
:1030A00052ED000AB3EE0F0AF4EEC00AF1EE10FA88
:1030B00010DD1F9A02F24403BDF9802092009C1893
:1030C00054ED000A4FF0854200EE102A30EEC00A9F
:1030D00004ED000A1F9A02F24403BDF98020920019
:1030E0009C1854ED000A012212B202FA08F212B240
:1030F00000EE102AB8EEC00A20EE800A04ED000AA5
:103100001F9A02F24403BDF9802092009D1801AB82
:103110007A009A18B2F900309DF8742003FA02F28E
:1031200012B20CEB020424B20DAB72009A18B2F981
:1031300000309DF8752003FA02F212B2A21812B202
:1031400000EE902AF8EEE00A15ED000A30EE800A53
:1031500005ED000A1F9A02F24403BDF98020920097
:103160009A18269212ED000A8DED250A00EE10BA8B
:10317000B8EE400AF0EE400AB0EE000AFEF7A6FAFA
:10318000DDED250A80EE800A269A02ED000A721C07
:1031900016B25EE77A1C10B25FFA88F45FFA8BF31E
:0E31A0000FFA8CF149E7DDF800E027B0704728
:102B3C009CB000F22002128802F00F02D6B200F212
:102B4C002002128802F0F00292B21209D5B200F201
:102B5C002002128802F4706292B2120AD4B200F20D
:102B6C002202128817B213B247F6FF72934204DDA9
:102B7C00A7F5803213B21AB200E03AB240F2000963
:102B8C000FFA89F9804610B20F46E1B2B9F1060F7F
:102B9C0049DA4FEA890212B20FFA82FA00AC5200FB
:102BAC00A31809F1120212B2520008EB02021288A9
:102BBC0002F00F021A800AF1010212B25200A3189D
:102BCC0009F1120212B2520008EB0202128802F052
:102BDC00F00292B212091A800AF1020212B25200E9
:102BEC00A31809F1120212B2520008EB0202128869
:102BFC0002F4706292B2120A1A800AF1030212B243
:102C0C005200A31809F1120212B2520008EB020290
:102C1C00128802F4704292B2120B1A8009F1010967
:102C2C000FFA89F9B2E7002424B2182C10DA00ABA1
:102C3C0062009A18B2F90020072A06DD00AB620088
:102C4C009B18B3F90020103A1A80641C24B2ECE7EC
:102C5C0040F200090FFA89F9B9F1080F49DA4FEA85
:102C6C00890212B20FFA82FA0CAC5200A31809F1C5
:102C7C00180212B2520008EB0202128802F00F0284
:102C8C001A800AF1010212B25200A31809F11802BB
:102C9C0012B2520008EB0202128802F0F00292B259
:102CAC0012091A800AF1020212B25200A31809F199
:102CBC00180212B2520008EB0202128802F470627F
:102CCC0092B2120A1A800AF1030212B25200A3182D
:102CDC0009F1180212B2520008EB0202128802F437
:102CEC00704292B2120B1A8009F101090FFA89F99C
:102CFC00B2E7002212B2F4B2CEB2394607B2404665
:102D0C000FFA82F8B8F1200F14DA0CAB4FEA480234
:102D1C009A18B2F90020072A07DD0CAB4FEA4802DB
:102D2C009B18B3F90020103A1A8008F101080FFA29
:102D3C0088F8E7E740F2000A0FFA8AFA5FFA86F899
:102D4C00E6B20FFA87F9EFB2BAF1180F60DA40F277
:102D5C00000B0FFA8BFBBBF1200F54DA4FEA4A122F
:102D6C0012B202EB0B0424B225B201F6444362000A
:102D7C009B1804F2400212B252008218128802F41C
:102D8C007C4292B2920A1A8001F644436A009A1865
:102D9C00B2F900201F2A07DD01F644436A009B1894
:102DAC00B3F90020403A1A8001F644436A009C189B
:102DBC00B4F90030012212B2B24012B25A4322804E
:102DCC0001F644436A009D1800AB4FEA4A029A1878
:102DDC00B2F9002002FA08F212B209EB020424B292
:102DEC000CAB4FEA4B029A18B2F90020BA4012B25F
:102DFC00A3181BB2B5F900209A182A800BF1010B0D
:102E0C000FFA8BFBA7E70AF1010A0FFA8AFA9BE784
:042E1C001CB070472F
:1023B80084B0CDF800E000F26C02128802F47F428B
:1023C80092B2120A53B252B27F2A03DDA3F5807289
:1023D80053B2FFE701AA137000F26C02128802F0F0
:1023E800FF0253B252B27F2A03DDA3F5807253B2C3
:1023F800FFE701AA921C137000F26E02128802F421
:102408007F4292B2120A53B252B27F2A03DDA3F579
:10241800807253B2FFE701AA521C137000F26E02D9
:10242800128802F0FF0253B252B27F2A03DDA3F5ED
:10243800807253B2FFE701AAD21C137000F2700237
:10244800128802F0F00292B2120992B208325FFAD0
:1024580082F800F27002128802F00F025FFA82F925
:1024680040F2000A0FFA8AFA06460F46BAF1180F28
:1024780080F2AB8040F2000B0FFA8BFBBBF1200F10
:1024880080F29E804FEA4A1212B202EB0B052DB27F
:102498000FFA85FC202212B295FBF2F31BB2402200
:1024A80012B295FBF2F212B2520012B29A1A12B29A
:1024B800540024B202231BB295FBF3F203FB125221
:1024C80012B2A218D0B241F24422BB18AA009B183B
:1024D80005F2400212B25200B218128802F00E023F
:1024E80092B2520892B200EE102AB8EE400A03EDFA
:1024F800000A41F24422BB184FEA8C029A1852EDA6
:10250800000AB0EE080AF4EEC00AF1EE10FA0DDD8A
:1025180041F24422BB184FEA8C029B1853ED000A83
:10252800B2EE000A30EEC00A03ED000A41F244227E
:10253800BB184FEA8C029C1854ED000A012212B213
:1025480002FA09F212B200EE102AB8EEC00A20EE22
:10255800800A04ED000A41F24422BB184FEA8C02BB
:102568009C1801AA121892F9002000EE902AF8EEA1
:10257800E00A14ED000A30EE800A04ED000A41F288
:102588004422BB184FEA8C029A18039212ED000AF3
:102598008DED020A00EE108AB8EE400AF0EE400A0D
:1025A800B0EE000AFFF78EF8DDED020A80EE800A31
:1025B800039A02ED000A0BF1010B0FFA8BFB5DE7A2
:1025C8000AF1010A0FFA8AFA50E7DDF800E004B0D0
:0225D80070474A
:1022440084B0CDF800E000F26802128802F4704213
:1022540092B2120B53B252B2072A03DDA3F2100258
:1022640053B2FFE701AA137000F26802128802F465
:10227400706292B2120A53B252B2072A03DDA3F279
:10228400100253B2FFE701AA921C137000F2680215
:10229400128802F0F00292B2120953B252B2072A23
:1022A40003DDA3F2100253B2FFE701AA521C13701C
:1022B40000F26802128802F00F0253B252B2072AE7
:1022C40003DDA3F2100253B2FFE701AAD21C13707C
:1022D40000F27002128802F4706292B2120A5FFA7B
:1022E40082F840F200090FFA89F90F46B9F1180F84
:1022F4005BDA40F2000A0FFA8AFABAF1200F4FDAD9
:102304004FEA491212B202EB0A0636B230B2202268
:1023140012B296FBF2F31BB2402212B296FBF2F217
:1023240012B2520012B29A1A12B2540024B2022308
:102334001BB296FBF3F203FB126212B2A5182DB284
:1023440041F64462BB18B2009C1801ABEAB29A1879
:1023540092F9002000EE102AB8EEC00A04ED000A3B
:1023640041F64462BB1882009A18039212ED000AE7
:102374008DED020A00EE108AB8EE400AF0EE400A33
:10238400B0EE000AFFF7A0F9DDED020A80EE800A44
:10239400039A02ED000A0AF1010A0FFA8AFAACE77D
:1023A40009F101090FFA89F9A0E7DDF800E004B0AA
:0223B400704770
:101F880086B0CDF800E006460F4606F240021288F9
:101F980002F4704292B2120B92B21B32D0B203AC6E
:101FA80006F27402138840F2FF3203EA020222802A
:101FB800B4F9003040F2FF12934205DD03ABB3F9E8
:101FC8000020A2F580621A8003ACA31C06F27402FA
:101FD800128802F47C4292B2920A1A80A21CB2F9C8
:101FE80000201F2A06DD03AA931C921CB2F90020C8
:101FF800403A1A8003ADAC1CAA1CB2F90030B5F9FE
:1020080000209A18228001AC06F27202138840F26E
:10201800FF3203EA020292B200EE102AB8EE400A3A
:1020280004ED000A54ED000A824A00EE102AF4EE8C
:10203800C00AF1EE10FA0ADD01AB53ED000A4FF0C9
:10204800894200EE102A30EEC00A03ED000A01AB07
:102058001A46059213ED000A8DED040A00EE100AE7
:10206800B8EE400AF0EE400AB0EE000AFFF72AFB8D
:10207800DDED040A80EE800A059A02ED000A01AC43
:10208800231D06F27202128802F47C4292B2920A6E
:1020980092B200EE102AB8EE400A03ED000A221DA3
:1020A80052ED000AB3EE0F0AF4EEC00AF1EE10FA90
:1020B8000CDD01AA131D121D52ED000A4FF08542D6
:1020C80000EE102A30EEC00A03ED000A01AC231D11
:1020D800221D52ED000A4FF0864200EE102AC0EE93
:1020E800800AB7EE000A70EE200A14ED000A20EE0E
:1020F800800A03ED000A06F27602128802F0FF0257
:1021080092B200EE902AF8EE600AB0EE601A4A4ADF
:1021180000EE102AF4EEC00AF1EE10FA0ADD4FF0D4
:10212800874200EE102A31EE400AF0EE400AB0EE87
:10213800603A01E0B0EE413A06F27002128802F00D
:10214800F00292B2120992B202F208039BB207F2AD
:102158002002049200EE103AB8EE400AF0EE400A6F
:10216800B0EE000AFFF7AEFA83EE000A049A02ED19
:10217800000A06F27602128802F47F4292B2120A2C
:1021880092B200EE902AF8EE600AB0EE601A2A4A7F
:1021980000EE102AF4EEC00AF1EE10FA0ADD4FF054
:1021A800874200EE102A31EE400AF0EE400AB0EE07
:1021B800603A01E0B0EE413A06F27002128802F489
:1021C800706292B2130A9BB207F21C02049200EEEC
:1021D800103AB8EE400AF0EE400AB0EE000AFFF7F7
:1021E80071FA83EE000A049A02ED000A42F64422CC
:1021F800BB1801AC14ED000A03ED000A42F64422B4
:10220800BA18131D221D12ED000A03ED000A42F64A
:102218004C22BB1803ACB4F900201A8042F64C22B9
:10222800BA18931CA21CB2F900201A80DDF800E04D
:0C22380006B070470080FF430000FE422B
:1025DC0083B000F21402128802F4006292B2120963
:1025EC00D2B282F08002D5B200AB00F26A0212883D
:1025FC0002F03F0292B200EE102AB8EE400A03ED50
:10260C00000A53ED000AB3EE0F0AF4EEC00AF1EE25
:10261C0010FA0ADD00AB53ED000A4FF0854200EED4
:10262C00102A30EEC00A03ED000A00AC54ED000A8B
:10263C00B3EE000A80EE800A04ED000A231D00F2BE
:10264C006A02128802F4F86292B2920992B200EE17
:10265C00102AB8EE400A03ED000A221D52ED000AC2
:10266C00B2EE0E0AF4EEC00AF1EE10FA0CDD00AA7E
:10267C00131D121D52ED000A4FF0844200EE102A79
:10268C0030EEC00A03ED000A00AC231D221D52EDF2
:10269C00000AB0EE000A80EE800A03ED000A04F294
:1026AC00080300F26A02128802F4784292B2D20A4B
:1026BC0092B200EE102AB8EE400A03ED000A04F2C2
:1026CC00080252ED000AB2EE0E0AF4EEC00AF1EE68
:1026DC0010FA0DDD00AA02F20803083252ED000ACE
:1026EC004FF0844200EE102A30EEC00A03ED000ACF
:1026FC0000AC04F2080304F2080252ED000AB2EE38
:10270C00000A80EE800A03ED000A01F22502157022
:10271C0042F650228B1814ED000A03ED000A42F623
:10272C0050228A18131D221D12ED000A03ED000A17
:10273C0042F650228A1802F2080304F2080212ED43
:0A274C00000A03ED000A03B0704715
:10286C0082B0CDF800E040F2000640F2000240F2E7
:10287C0000031BB20027054690B20C4619B2052F77
:10288C0012D242F65C22A3187A009B184FF6FF7204
:10289C001A8042F66622A3187A009B184FF6FF7234
:1028AC001A807F1CBFB2EAE7002287B220462C4672
:1028BC0095B2B5F5407F2AD2052E28D2052F26D207
:1028CC0005F2400292B25200A218128842B942F6A6
:1028DC005C22831872009A181580761CB6B213E02D
:1028EC0005F2400292B25200A218128802F00102C4
:1028FC0092B24AB142F6662283187A009A18158071
:10290C007A1C93B29FB2FFE76D1CADB2D1E7042ED7
:10291C0003D94FF6FD7000B291E0042F03D94FF6A6
:10292C00FC7000B28BE0F21992B2042A03D94FF674
:10293C00FB7000B283E000221FFA87F8B7B206469C
:10294C0090B2B8421FD2451C2DB21FFA80F9BD427D
:10295C0015D242F65C22B4186A00A218128893B2FF
:10296C004FEA4902A218128899B290B2FEF7EEFF14
:10297C0001B208B108B262E06D1C2DB2E7E709F1B3
:10298C00010080B2DDE7002001961FFA88F6DDF821
:10299C000480B04220D2451C2DB21FFA80F9B542FA
:1029AC0016D242F6662208EB02046A00A2181288BC
:1029BC0093B24FEA4902A218128899B290B2FEF76C
:1029CC00C5FF01B208B108B239E06D1C2DB2E6E7C3
:1029DC0009F1010290B2DCE740F20009ADF80460A5
:1029EC004546BEB208B2BDF80470B14527D240F2DC
:1029FC0000080FFA88F8B8451CD242F66622AB18CC
:102A0C004FEA48029A18128894B242F65C22AB182C
:102A1C004FEA49029A181288A1B290B2FEF796FFBB
:102A2C0001B208B108B20AE008F101080FFA88F8FF
:102A3C0008B2E0E709F101091FFA89F9D5E7DDF8D9
:062A4C0000E002B070473B
:10195800421A10B213B26FF02102934207DD6FF002
:101968001D02904203DA4FF6FA7000B213E06FF0EE
:101978000102904205DD022803DA4FF6FA7000B240
:1019880009E01E2805DD222803DA4FF6FA7000B2B6
:0819980001E0002000B27047DD
:1037480082B0CDF800E000F00701C9B2C901ADF8B8
:10375800061001A90A46012148F20D00FFF7F0FD05
:10376800BDF804204FF67F410A4092B2BDF9061019
:1037780042EA010189B248F20D00FFF74DF8DDF881
:0637880000E002B07047F2
:1028200082B0CDF800E001AC020AD2B22270631C83
:1028300000F0FF02D2B21A70A31C0A0AD2B21A70B8
:10284000E31C01F0FF02D2B21A70FEF7A3FE01AB47
:10285000054A127819460023D0B20422FEF7AEFFD3
:0C286000DDF800E002B0704785000020A9
:1040980040F6FE07C0F23D077F1EFDD100BF00BFFE
:0840A80000BF00BF00BF70471C
:1047200081B0CDF800E02F492F48FFF7E9FD2F4871
:104730000121FFF723FE2C4810ED000A2C48FFF75B
:1047400079FE02212A48FFF719FE2A480221FFF7C5
:1047500015FE29480221FFF711FE0021274801809C
:1047600026480088B0F5407F29D22448008881007F
:104770001C48401810ED000A1D48FFF75BFE0021A1
:104780001F48017001211A48FFF7F8FD1D4801215B
:10479000FFF7F4FDFCF700FE1848008800F01F004A
:1047A00080B238B915480088002803D9164802217C
:1047B000FFF7E4FD11490888401C0880D0E7134842
:1047C0000221FFF7DBFD42F6FE47C0F2311700BFC2
:1047D00000BF7F1EFDD100BF00BF00BFDDF800E0BD
:1047E00001B07047B00000203000002034000020ED
:1047F000B00C00204B0000204D000020860000205F
:10480000B50C002074000020760000207800002005
:1043000085B0CDF800E0039004914FF0000200EE7C
:10431000102A174A02920022ADF80420BDF80420AA
:10432000022A1DD21348FFF7C3FE13491148FFF7B5
:104330002FFAF2EE000A30EE600AF0EE405A049ACC
:10434000F0EE400A9DED020A0B490A48FFF7A2FA77
:10435000BDF80420521CADF80420B0EE650ADDE77C
:10436000039A02ED000ADDF800E005B0704700BFD7
:0C4370003333733F103E0020A0130020E8
:1040B00084B0CDF800E0039000218DF808100021B5
:1040C00061B90DF106010A46012148F20000FFF72F
:1040D0003BF9BDF8061001F00801F1E788B210B312
:1040E0009DF8081005291ED2302148F20000FEF785
:1040F00097FB039A40F2403140F20040FFF724F969
:104100000DF106010A46012148F20000FFF71CF9F3
:10411000BDF8061001F0080188B29DF80810491C8E
:104120008DF80810DBE701A90A46012148F20D00CD
:10413000FFF70AF9039901F5D062BDF80410118068
:10414000039901F28262BDF8061001F001011180AD
:10415000039901F28261098808B2DDF800E004B039
:024160007047A6
:1037900082B0CDF800E08146884641464846FEF7B3
:1037A000DBFFB0EE403A09F5C862128800EE902ABD
:1037B000F8EE600AB0EE601A344A00EE102AF4EE19
:1037C000C00AF1EE10FA06DD4FF08F4200EE102A2B
:1037D00031EE401AFFE709F5C062128800EE902A28
:1037E000F8EE600AF0EE601A284A00EE102AF4EEB5
:1037F000C00AF1EE10FA06DD4FF08F4200EE102AFB
:1038000071EEC00A01E0F0EE610A08F1100212ED5B
:10381000000A21EE000A30EE200A81EE000A8DED4A
:10382000010AF3EE020AB0EE000AFDF74FFFDDEDEC
:10383000010A20EE801A08F10403154A00EE102A4E
:1038400073EE400A13ED000A60EE200AB7EE000A9C
:1038500030EE200AC1EE000A08F10C02128800EED8
:10386000102AB8EE400A70EEC00A08F1080212ED04
:10387000000AC0EE800AB3EE090A30EE800AB0EE0C
:10388000400ADDF800E002B0704700BF00FEFF46CE
:04389000333353403B
:1027580082B0CDF800E00E4600F25462128800EE16
:10276800902AF8EE600AB0EE603A294A00EE102A84
:10277800F4EEC00AF1EE10FA06DD4FF08F4200EEDB
:10278800102A33EE403AFFE700F5D062128802F4CF
:10279800406292B2920A17B206F22402127800EE50
:1027A800102AB8EE400AF0EE400AB0EE000AFEF732
:1027B80089FF8DED010A00EE107AB8EEC00AF0EE3E
:1027C800400AB0EE000AFEF77DFFDDED010A80EE5B
:1027D800800A60EE030AB21CB2F9002000EE102A4B
:1027E800B8EEC00A70EEC00A3246B2F9002000EE18
:1027F800102AB8EEC00AC0EE800A064A00EE102A77
:1028080030EE800AB0EE400ADDF800E002B0704712
:0828180000FEFF46333353407C
:103894008FB0CDF800E082468B46F0EE403AF0EE71
:1038A400604A94460AF282631B8898B2ADF8040019
:1038B40059465046FEF74EFFBDF80400B0EE404AAC
:1038C400ADF8040059465046FFF760FFBDF8040008
:1038D400B0EE403AF34B00EE903A30EE200AADF8E9
:1038E4000400F1EE000AFDF7EFFEBDF80400B0EEAF
:1038F400405AEC4B00EE103A34EE800AADF8040066
:10390400F1EE000AFDF7E0FEBDF8040070EE450A92
:10391400C0EEA30A70EE602A0AAE0BF12C0353ED3D
:10392400000AE14B00EE103A60EE800AB7EE000A9E
:1039340070EE200AB7EE000A80EE200A06ED000AB7
:10394400331DB7EE000A03ED000A06F208050BF179
:103954002C0303F208040BF13C031B1DB3F90030E4
:1039640000EE903AF8EEE00A14ED000A60EE200A48
:10397400B7EE000A30EE200A05ED000A06F20C0745
:1039840006F2080313ED001A0BF12C0303F20C06E4
:103994000BF13C05AB1DB3F900402B1DB3F900300E
:1039A400E31A1BB200EE903AF8EEE00A16ED000AB4
:1039B40060EE200AB7EE000A30EE200A21EE000A7B
:1039C40007ED000A0AF214631B8800EE903AF8EE41
:1039D400600AB0EE601AB54B00EE103AF4EEC00A7D
:1039E400F1EE10FA06DD4FF08F4300EE103A71EE5F
:1039F400400A01E0F0EE410A0BF11403B3F9003080
:103A040002EE103AB8EEC22A82EE202A0AF5D063FA
:103A14001B8803F480539BB25B09D9B205AC0AF549
:103A2400C2631B8800EE103AB8EE400A04ED000AA7
:103A3400241D0AF5CA631B8800EE103AB8EE400A4A
:103A440004ED000A002636B2ADF804608DF80610C5
:103A5400F0EE443AB0EE634A5746D846624681B225
:103A64009DF80600BDF90460022E31DA05ACB300FE
:103A7400E31853ED000A8D4B00EE103AF4EEC00A41
:103A8400F1EE10FA0CDD05ACB300E51855ED000AB3
:103A94004FF08F4300EE103A30EEC00A05ED000AF5
:103AA40005ACB300E41814ED000A20EE020A04ED9C
:103AB400000A761C36B2ADF804608DED024ACDEDF5
:103AC400033ADDED033A9DED024ABDF90460CBE70C
:103AD40005AD55ED001A42F64C2308EB03031C46D2
:103AE40008F12003B3EE090A73EE400A13ED000A4D
:103AF40060EE200AB7EE000A70EE200AB4F9003036
:103B040000EE103AB8EEC00A20EE201A08F11C04A8
:103B1400674B00EE103A73EEC00A14ED000A60EE33
:103B2400200AB7EE000A30EE200A21EE000A31EE38
:103B3400C00A05ED000A08F125031B78984235D127
:103B440005AB1D1D1B1D53ED001A42F64C2308EB5B
:103B540003039C1C08F12003B3EE090A73EE400A28
:103B640013ED000A60EE200AB7EE000A70EE200A98
:103B7400B4F9003000EE103AB8EEC00A20EE201A74
:103B840008F11C044A4B00EE103A73EEC00A14ED1F
:103B9400000A60EE200AB7EE000A30EE200A21EE99
:103BA400000A31EEC00A05ED000A3CE005AB1D1D1C
:103BB4001B1D53ED001A42F64C2308EB03039B1C18
:103BC400B3F9004042F6502308EB030300EE904A99
:103BD400F8EEE00A13ED000A30EE801A08F1200333
:103BE400B3EE090A73EE400A13ED000A60EE200AF0
:103BF400B7EE000A30EE200A21EE001A08F11C0488
:103C04002B4B00EE103A73EEC00A14ED000A60EE7E
:103C1400200AB7EE000A30EE200A21EE000A31EE47
:103C2400C00A05ED000A40F2000C0FFA8CFC019763
:103C34008DED024A5FFA80FBB0EE425AF0EE624A22
:103C4400B0EE434A1FFA81FA91469DED023A019F74
:103C5400BCF5407F80F2ED8120231BB29CFBF3F482
:103C640024B240231BB29CFBF3F31BB25B001BB2D8
:103C7400E61A70B202231BB29CFBF3F31BB25B0087
:103C84001BB2ACEB030424B273B263405AB20CF11E
:103C9400020424B204231BB294FBF3F52DB20CF1FD
:103CA400030407E0339388430000204200FEFF46EC
:103CB4003333534024B204231BB294FBF3F31BB2FB
:103CC400ED1A2DB20CF1010424B204231BB294FBAF
:103CD400F3F31BB2EC1824B204231BB29CFBF3F3E2
:103CE4001BB2E41A24B273B25B001BB2C3F101032A
:103CF4001BB2634359B2BBF1000F01D142B201E0E0
:103D040053B25AB207F282631B889A4240F07E8112
:103D14004FEA4C03FB181B8800EE903AF8EE600A59
:103D2400CDED070AC54B00EE103AF4EEC00AF1EEF1
:103D340010FA09DDDDED070A4FF08F4300EE103A6B
:103D440030EEC00A8DED070A9DED070A60EE051AF4
:103D5400CDED071A08F644444FEA4C03E51841F246
:103D6400442308EB03034FEA8C069C19B3EE090ABB
:103D740074EE400A14ED000A60EE200AB7EE000A61
:103D840070EE200AB5F9003000EE103AB8EEC00A21
:103D940020EE201A41F6446308EB03039C19A84B58
:103DA40000EE103A73EEC00A14ED000A60EE200A29
:103DB400B7EE000A30EE200A21EE000A31EEC00A06
:103DC4008DED070A08F125031B789B4522D042F6A6
:103DD400502308EB030505F2080443001BB25B1EE5
:103DE4001BB200EE903AF8EEE00A14ED000A60EE21
:103DF400200A9DED070A30EE201A2B1D00EE901AC2
:103E0400F8EEE00A13ED000A20EE200A31EE400A33
:103E14008DED070A9DED070A80EE031A8DED071A52
:103E240008F1180605AB4FEA8A055B1953ED000A41
:103E340016ED000A20EE200A31EE400A8DED070A45
:103E440008F144044FEA8C03E31813ED001A42F618
:103E5400442308EB03035B1953ED000A16ED000A33
:103E640020EE200A31EE401A08F12803B3EE090AC5
:103E740074EE400A13ED000A60EE200AB7EE000A61
:103E840030EE200A21EE000A8DED080AF0EE080A51
:103E9400B0EE400AFDF718FCDDED080A20EEA41A86
:103EA400DDED070A70EE810A20EE200AF5EE000A25
:103EB400B0EE400AFDF708FC08F12C04231D53ED75
:103EC400000A20EE201A231D53ED000A5D4B00EE7C
:103ED400103A60EE800AB7EE000A70EE600A9DEDBB
:103EE400080A20EE200A70EE010A9DED070A80EE12
:103EF400200A30EE240AF5EE000AFDF7E5FB514BEB
:103F040000EE903A70EE600ACDED090A08F13C0328
:103F14009B1CB3F9003000EE103AB8EEC00AF4EE80
:103F2400C00AF1EE10FA04DA00235BB28DF83830DF
:103F34002DE008F13C031B1DB3F9003000EE903A6C
:103F4400F8EEE00A9DED090AB4EEE00AF1EE10FA8B
:103F540004DA01235BB28DF8383018E008F13C0331
:103F64009B1DB3F9003000EE903AF8EEE00A9DEDA7
:103F7400090AB4EEE00AF1EE10FA04DA02235BB2A5
:103F84008DF8383003E003235BB28DF838300AAC87
:103F94009DF938309D00631953ED000A9DED080A20
:103FA40020EE201A08F12C035D1908F13C049DF958
:103FB40038305B00E318B3F9003000EE903AF8EEC5
:103FC400E00A9DED090A70EE600A15ED000A60EE44
:103FD400200AB7EE000A30EE200A61EE000A9DEDD9
:103FE400070A80EE200A30EE240AF5EE000AFDF7F7
:103FF4006BFB144B00EE903A30EE600A8DED090A2B
:104004004FEA8C0309EB030303ED000A0CF1010CE6
:104014000FFA8CFC0197CDF80880CDF80C90ADF820
:1040240010A0BDF810A0DDF80C90DDF80880019F09
:104034000EE6DDF800E00FB0704700BF00FEFF465B
:084044003333534033938843EA
:1044340083B0CDF800E00446002000235BB28DED8C
:10444400020A0299B1F1FF3F05D170492046FFF7F6
:10445400FBFD0320D5E0012502A9C91C097801F060
:104464008001C9B269B102A9CA1C117881F0800126
:104474001170691CCAB22D212170641CD7B2264662
:1044840001E02646EFB2029929B961493046FFF7A7
:10449400DBFD0020B5E00299B1F1FF4F05D15D4984
:1044A4003046FFF7D1FDF8B2ABE08DF80430C3B26B
:1044B40034469DF90400DDED020AB7EE000AF4EE7D
:1044C400C00AF1EE10FA0ADADDED020AB2EE040ACD
:1044D40020EE800A8DED020A401E40B2EBE7DDEDCE
:1044E400020AB2EE040AF4EEC00AF1EE10FA0BDB93
:1044F400DDED020A484900EE101A20EE800A8DED27
:10450400020A401C40B2EAE702994900029102A95A
:10451400C91C09787F39CDB202A9CA1C01211170C6
:104524000299A940029102A9C91C0978303121706D
:10453400621C012803DB062801DC154603E02E215A
:104544001170551C0123062144B2C8B210B302A94C
:10455400CA1C0021117002998A00029989180291DB
:1045640002994900029102A9C91C097830312970C5
:104574006D1C63B9611E49B24AB221B92E2129705A
:104584006D1C012100E0D9B254B2CBB2FFE7401E4A
:10459400C0B2DBE72A4660B2511E0978302901D146
:1045A400521EF9E7511E09782E2901D1521EFFE748
:1045B40018B365211170521C002806DA2D211170E0
:1045C400521C414248B243B200E043B2D8B2D9B21D
:1045D400092907D90A21B0FBF1F1C9B230311170B0
:1045E400531C00E013460A22B0FBF2F102FB110156
:1045F400C9B230311970581C00E010460021017016
:104604000020DDF800E003B0704700BF7B0000200D
:0C4614007F00002081000020CDCCCC3DB8
:10404C0081B00091014600980B461C465A1C15463F
:10405C000346421C10461A78227022780AB12B466D
:08406C00F3E7084601B07047BC
:10486C0081B0CDF800E0344A344B354C354D364EE2
:10487C004FF03011354801600021354801606FF070
:10488C00010003EA000133480160C3F3C00018B90A
:10489C00FFF7D4FEFFF7D2FEC3F3000018B10121DD
:1048AC0049B22D4801602D48864203D92C4927482E
:1048BC00016021E02B48864203D92B492348016033
:1048CC001AE04CF25030864203D928491F48016047
:1048DC0012E047F23050864203D925491B4801604B
:1048EC000AE0B6F57A5F03D922491848016003E063
:1048FC004FF03011154801601F4804601F480560D7
:10490C006FF0805002EA000111480160012149B2A8
:10491C001B4801601B48016002F0805038B11A48F6
:10492C00006800B9FBE7012149B218480160DDF8C5
:10493C0000E001B0704700BF0400303311000000EC
:10494C001800800000000000C0D40100C0E00F403F
:10495C00B0E00F407CE00F40800FFC43A0860100CC
:10496C00960130008038010055013000D300300032
:10497C00B20030007100300060E10F4064E10F4084
:10498C007C16FC437816FC43002DFC437016FC434C
:1046480041F67E27C0F206077F1EFDD100BF00BFDE
:0846580000BF00BF00BF704766
:1048580081B002490248016001B07047C0D401002C
:044868009844002050
:0848240081B0FEE701B070470E
:10482C0081B04EF68850CEF20000016841F4700160
:10483C00016000BF00BF00BF00BFF1EE100A40F4E2
:0A484C004000E1EE100A01B07047D1
:1055180000B5DFF824B0DFF824A0DFF824C0FFF7D7
:1055280073F9DFF820B0DFF820A0DFF820C0FFF71C
:105538006BF900BD704700BF000000208500002007
:10554800B053000088000020B000002098540000EC
:1055B40000B5DFF810B0DFF810A0FFF74FF800BD1A
:0C55C400704700BF00000020E8440020F9
:04139400A08601002E
:1049C00000000000000000000000000000000000E7
:1049D00000000000000000000000000000000000D7
:1049E00000000000000000000000000000000000C7
:1049F00000000000000000000000000000000000B7
:1050400000F00540400040050100000000F0054070
:10505000800040050100000000000000000000008A
:105060000000000000000000000000000000000040
:105070000000000000000000000000000000000030
:105080000000000000000000000000000000000020
:105090000000000000000000000000000000000010
:1050A0000000000000000000000000000000000000
:1050B00000000000000000000000000000000000F0
:1050C00000000000000000000000000000000000E0
:1050D00000000000000000000000000000000000D0
:1050E00000000000000000000000000000000000C0
:1050F00000000000000000000000000000000000B0
:10510000000000000000000000000000000000009F
:0C51100000000000000000000200000091
:10511C0000B00540100040050100000000B0054043
:10512C00200040050100000000000000000000000D
:10513C000000000000000000000000000000000063
:10514C000000000000000000000000000000000053
:10515C000000000000000000000000000000000043
:10516C000000000000000000000000000000000033
:10517C000000000000000000000000000000000023
:10518C000000000000000000000000000000000013
:10519C000000000000000000000000000000000003
:1051AC0000000000000000000000000000000000F3
:1051BC0000000000000000000000000000000000E3
:1051CC0000000000000000000000000000000000D3
:1051DC0000000000000000000000000000000000C3
:0C51EC00000000000000000002000000B5
:1051F80000900540040040050200000000900540B2
:10520800080008050200000000000000000000007F
:105218000000000000000000000000000000000086
:105228000000000000000000000000000000000076
:105238000000000000000000000000000000000066
:105248000000000000000000000000000000000056
:105258000000000000000000000000000000000046
:105268000000000000000000000000000000000036
:105278000000000000000000000000000000000026
:105288000000000000000000000000000000000016
:105298000000000000000000000000000000000006
:1052A80000000000000000000000000000000000F6
:1052B80000000000000000000000000000000000E6
:0C52C800000000000000000002000000D8
:1052D40000A00540100040050100000000A00540AA
:1052E4002000400501000000000000000000000054
:1052F40000000000000000000000000000000000AA
:105304000000000000000000000000000000000099
:105314000000000000000000000000000000000089
:105324000000000000000000000000000000000079
:105334000000000000000000000000000000000069
:105344000000000000000000000000000000000059
:105354000000000000000000000000000000000049
:105364000000000000000000000000000000000039
:105374000000000000000000000000000000000029
:105384000000000000000000000000000000000019
:105394000000000000000000000000000000000009
:0C53A400000000000000000002000000FB
:1053B000202D2D2D2053797374656D20496E6974ED
:0653C000202D2D2D200020
:1053C6002D2D2D205374617274206D656173757275
:0A53D600656D656E74202D2D2D000D
:0453E00000000000C9
:1053E400416D6269656E742074656D706572617477
:1053F4007572653A20200020002D2D2D20506978EB
:10540400656C2074656D7065726174757265206D6C
:105414006174726978203332783234202D2D2D0056
:025424007C000A
:02542600200064
:02542800200062
:0B542A00004E614E003000494E46006D
:10543800690200005D020000510200008D020000B8
:105448008102000075020000210200001502000020
:105458000902000045020000390200002D02000088
:10546800FFFFFFFFFFFFFFFFFFFFFFFFFFFFFFFF44
:10547800FFFFFFFFFFFFFFFFFFFFFFFFFFFFFFFF34
:10548800FFFFFFFFFFFFFFFFFFFFFFFFFFFFFFFF24
:045498000000000010
:04549C00000000000C
:0454A0000000000008
:0454A4000000000004
:0454A8000000000000
:0454AC0000000000FC
:0454B00000000000F8
:0454B40000000000F4
:0454B80000000000F0
:0454BC0000000000EC
:1054C0000000803F1872313FF0FD753E4758633D44
:1054D00058951D3C82C4AE3AA8782139EF938037A5
:0854E000A092A73546561534D1
:1054E800FFE6DB2EC4FF7F3F80EFFFBE90E1A93EC1
:1054F800EC8276BE82AD2B3E0E3CC3BD87D1133DF8
:045508004178D3BB58
:0C550C00C91400003D14000079130000D9
:00000001FF
