:10000000FCFF002015430000CD420000CD4200005F
:10001000CD420000CD420000CD420000CD420000A4
:10002000CD420000CD420000CD420000CD42000094
:10003000CD420000CD420000CD420000CD42000084
:10004000CD420000CD420000CD420000CD42000074
:10005000CD420000CD420000CD420000CD42000064
:10006000CD420000CD420000CD420000CD42000054
:10007000CD420000CD420000CD420000CD42000044
:10008000CD420000CD420000CD420000CD42000034
:10009000CD420000CD420000CD420000CD42000024
:1000A000CD420000CD420000CD420000CD42000014
:1000B000CD420000CD420000CD420000CD42000004
:1000C000CD420000CD420000CD420000CD420000F4
:1000D000CD420000CD420000CD420000CD420000E4
:1000E000CD420000CD420000CD420000CD420000D4
:1000F000CD420000CD420000CD420000CD420000C4
:1043140000F010F8FFF7DCFF00F0DEFEFFF7EEFF21
:1043240000F08CFEFFF712FFFFF7E6FEFFF736FF03
:04433400FCE7FEE7BD
:1040E80081B01CF8019B0BF8019BBBEB0A0FF8D1C0
:0440F80001B070475C
:1042900081B04FF000094FF0000CBDEB0A0F04DCB9
:1042A000BDEB0B0F01DBD446EA464BF8049BBBEB9E
:1042B0000A0FFAD1BCEB0A0F05DDE246D9F800B0CF
:0A42C0000BF1040BF1E701B07047A9
:1041500081B0CDF800E0FFF7BBFF0E48014600201C
:10416000FFF738FF42F280510120FFF715FF0A48A0
:104170000221FFF75FFF44F67D77C0F2120700BF10
:104180007F1EFDD100BF00BF00BF00BFDDF800E013
:0C41900001B070470C1700006400002014
:1040D00040F2A537C0F2000700BF00BF7F1EFDD130
:0840E00000BF00BF00BF7047E4
:103FD40081B0CDF800E009E00846FFF76BF90AE08C
:103FE4000846FFF763FE06E0012004E00028F3D052
:0E3FF4000128F5D0F8E7DDF800E001B07047D5
:1032B80081B0CDF800E0011D0A6801680846114692
:1032C800034AFFF7A5FE0020DDF800E001B07047D3
:0432D800904D000015
:1030180081B0CDF800E013460A4601460348FEF7A2
:103028007FFBDDF800E001B0704700BF00240040DE
:1017280087B0CDF800E08446059106921846FFF789
:10173800BBFC6046FFF702FD06996046FFF720FDF7
:10174800BCF8005040F6017445EA0404ACF80040C7
:1017580001AC2046FFF734FE069C402C05D1059DC0
:10176800019CB4FBF5F4A0B209E0069C802C05D1DD
:10177800059D049CB4FBF5F4A0B200E000200CF138
:10178800060420801D4CA44506D11D4D1D4C256026
:101798001D4D1E4C25601CE01D4CA44506D11D4D59
:1017A800184C25601C4D194C256012E01B4CA445B3
:1017B80006D11B4D134C25601A4D144C256008E0CA
:1017C800194CA44505D1194D0E4C2560184D0F4CE8
:1017D800256040F201016046FFF7DEFC6046FFF736
:1017E800C7FC03216046FFF7B1FC02216046FFF702
:1017F800B7FCDDF800E007B0704700BF00200040EC
:10180800A513000094370020291500009837002000
:1018180000240040F5110000951400000028004045
:10182800D1110000DD140000002C00401912000046
:04183800B9140000DF
:1013C80082B0CDF800E004462849096801F4E061DC
:1013D800090A08462549096801F0E061090E0A462C
:1013E800214601911146FFF75BF9019908601F49F1
:1013F800096801F07001090908461C49096801F4E7
:10140800E001090D0A4604F2080101911146FFF7AF
:1014180047F9019908601549096801F0700109093F
:1014280008461249096801F0E041090F0A4604F22A
:101438000C0101911146FFF733F9019908600B4936
:10144800096801F0070108460849096801F4E02124
:10145800090C0A46211D01911146FFF721F901994E
:101468000860DDF800E002B0704700BF08040140E2
:1006A80081B0CDF800E002460846FFF7DBFFC3B291
:1006B80071E0424A126802F00102D2B140F2010030
:1006C800FFF7D8FF3D4A126802F001028AB13C4A9E
:1006D800126802F400422AB14FF4FA3292FBF3F2A4
:1006E800104666E048F20002B2FBF3F292B290B212
:1006F8005FE0344A1268B2FBF3F2104659E02F4A21
:10070800126802F00202D2B140F20200FFF7B2FF13
:100718002A4A126802F002028AB1294A126802F4CF
:1007280000422AB14FF4FA3292FBF3F2104640E04D
:1007380048F20002B2FBF3F292B290B239E0224AD8
:100748001268B2FBF3F2104633E0204A1268B2FB9B
:10075800F3F210462DE01A4A126802F400422AB158
:100768004FF4FA3292FBF3F2104622E048F200020C
:10077800B2FBF3F292B290B21BE0FFF727FFB0FB97
:10078800F3F2104615E0124A1268B2FBF3F2104673
:100798000FE000200DE0002A3FF48BAF052AAED011
:1007A800012AD2D0022AD6D0032AE6D0042AEAD0D7
:1007B800EFE7DDF800E001B0704700BF48040140F2
:1007C80030040140A0370020A43700209800002002
:0407D8009C00002061
:10066C0081B0012109B2814009B208B201B07047D2
:10067C0081B0074A07490A600749096841EA000244
:10068C0005490A60012203490A6001B0704700BFA6
:0C069C005A6900000004014050040140B5
:1005D40082B01748006800F4E02114E01548019047
:1005E40023E01548019020E0144801901DE01448D0
:1005F40001901AE01348019017E01348019014E0A9
:100604000020019011E00029E8D0B1F5803FE8D046
:10061400B1F5003FE8D0B1F5403FE8D0B1F5802F07
:10062400E8D0B1F5A02FE8D0EAE7019802B070470E
:100634000404014060E31600C0C62D00808D5B00F9
:0C064400001BB70000366E01006CDC02E9
:1010B00081B0CDF800E040F2000A814609F1D80184
:1010C00009788A453AD20C210AFB01F109EB0101AA
:1010D0008B460BF1080109781F2915D10BF1080186
:1010E0000978CCB20BF1060109888BB20BF104012F
:1010F00009888AB2DBF80010084691B2002210B4C9
:10110000FFF782FB01B014E00BF108010978CCB2C3
:101110000BF1060109888BB20BF1040109888AB230
:10112000DBF80010084691B2FF2210B4FFF76CFB09
:1011300001B00AF1010A5FFA8AFABFE7DDF800E0C0
:0411400001B0704743
:1008080083B0CDF800E08DB20146D0B2BDF90C201E
:1008180001F0010414B12F02BFB200E0AFB28F4C57
:100828000C1B640965018D4C6419A0468C4CA042D0
:1008380007D108F10406FD43ADB234882C4034805A
:1008480007E0884CA04204D108F104052C883C43F9
:100858002C8040F2010403EA0404A4B23CB108F17C
:100868000606FD43ADB234882C4034800AE040F2DD
:10087800020403EA0404A4B224B108F106052C8892
:100888003C432C8040F2040403EA0404A4B23CB1C3
:1008980008F10806FD43ADB234882C4034800AE0E4
:1008A80040F2080403EA0404A4B224B108F10805DC
:1008B8002C883C432C8040F2100403EA0404A4B2C0
:1008C8003CB108F11806FD43ADB234882C403480A1
:1008D8000AE040F2200403EA0404A4B224B108F1B7
:1008E80018052C883C432C8040F2400403EA040499
:1008F800A4B23CB108F11A06FD43ADB234882C40CD
:1009080034800AE040F2800403EA0404A4B224B16B
:1009180008F11A052C883C432C8003F48074A4B297
:100928007CB908F10A06FD43ADB234882C40348006
:1009380008F10C06FD43ADB234882C403480002009
:1009480087E01F2A01DD012083E0FFF77DFE0020FC
:10095800B9B2C7B24046102F80F07A8021FA07F466
:10096800A4B204F00104A4B2002C00F06E8000F2DE
:100978000A06CD43ADB234882C40348000F20C0610
:10098800CD43ADB234882C40348003F48064A4B2E3
:100998002CB1ADF806100024ADF808400DE003F4C2
:1009A8000064A4B22CB10024ADF80640ADF80810DC
:1009B80003E0ADF80610ADF8081000F20A06358815
:1009C800BDF8064045EA0404348000F20C06358878
:1009D800BDF8084045EA04043480234C041B64092C
:1009E800ADF80440214CA24218D0BDF80440E40000
:1009F800A4B265001E4C65197C08E4B264002E1987
:100A080007F00104E4B2E5002DB240F2FF04AC4067
:100A1800A4B2E543ADB234882C403480BDF804401C
:100A2800E400A4B26500124C65197C08E4B26400C5
:100A38002E1907F00104E4B2E5002DB294B204FACD
:100A480005F5ADB234882C4334807F1CFFB282E7B1
:100A58000020DDF800E003B0704700BF004C004004
:100A68000000000001000000004C004000000000F1
:040A780008500040E2
:1006500081B042F6525103480180022102480180D4
:0C06600001B07047005000400250004004
:1011440081B00122018862F30001018001B070477F
:1011880081B003884FF63F7203EA020202800288A8
:081198000A43028001B0704718
:1011A00081B08BB2028863F30412028001B07047F1
:1011780081B00022018862F30001018001B070474C
:1011540081B000F22C04CB439BB222881A40228037
:0411640001B070471F
:1011680081B000F22A031A880A431A8001B0704736
:103CB00081B0CDF800E0011D0A6801680846114690
:103CC000034AFFF7A9F90020DDF800E001B07047D2
:043CD000904D000013
:103F980081B0CDF800E00DE00846FFF777FD10E0AE
:103FA8000846FFF7EDFD0CE00846FFF71FFE08E0A6
:103FB800012006E00028EFD00128F1D01028F3D026
:0A3FC800F6E7DDF800E001B07047F5
:103A940081B0CDF800E0FEF74BF8044A04490A600F
:103AA4000020DDF800E001B0704700BFC52F000022
:043AB400A00000204E
:101B340081B0CDF800E084460B4A0C490A600C4A97
:101B44000C490A600C4A0D490A600D4A0D490A60A5
:101B54000D48FFF7ABFA61460C48FFF7FDFEDDF8D0
:101B640000E001B0704700BFC52F0000A837002077
:101B7400FFFFFFFFAC370020FFFFFFFFB03700205F
:101B8400FFFFFFFFB4370020FC4A000000180040AC
:10195C0081B0CDF800E007460C463846FFF7CAFDCB
:10196C0040F280013846FFF7CDFD40F200013846C9
:10197C00FFF77CFD40F200013846FFF713FC40F204
:10198C0000013846FFF768FB40F200013846FFF7CC
:10199C0051FB40F200013846FFF7DCFD214638468A
:1019AC00FFF7E8FD3846FFF7CBFDDDF800E001B0AE
:0219BC00704772
:0E15000081B0018841F00101018001B0704707
:1015100081B003884FF63F7203EA0202028002881C
:081520000A43028001B070478C
:1014780081B031B903884DF6FF7203EA0202028097
:0C14880002E002880A43028001B07047B5
:1011B00081B0B1F5006F03D102880A43028005E0D7
:1011C00003884FF2FF7203EA0202028001B0704707
:1010640081B019E0038847F6FF7203EA02020280A6
:1010740019E0028842F40042028002880A43028096
:1010840011E0028842F40042028003884BF6FF72AA
:1010940003EA0202028006E00029E3D0B1F5804FA2
:0A10A400E7D00029EDD001B070473D
:1010400081B0B1F5807F04D1028842F480720280C1
:1010500005E003884FF6FF6203EA0202028001B056
:021060007047D7
:1015600081B0B1F5805F03D102880A43028005E0B3
:1015700003884EF6FF7203EA0202028001B0704750
:1015800088B0CDF800E005460E4604AA1046FFF7E5
:101590001BFF04AA11462846FFF76EFC00EE900AD6
:1015A000F8EE600A00EE106AB8EE400A80EE800A9B
:1015B000B0EE401A01AA1046FFF7EAFCDDED010A81
:1015C000FCEE600A10EE902A92B291B2414A00EE0F
:1015D000902A20EE200ABCEE400A10EE100A80B2DB
:1015E00005F2080423884FF6FE7203EA0202228005
:1015F00010292ED905F208031A8842F001021A8038
:10160000B3EE000A81EE000ABCEE400A10EE102A8A
:1016100092B2ADF80820B3EE000AC1EE000AB3EEB4
:10162000000A81EE000ABCEE400A10EE102A92B2C7
:1016300000EE102AB8EE400A70EEC00AB3EE000ABF
:1016400020EE800ABCEE400A10EE102A92B2ADF8ED
:101650000A2020B90022ADF80C20284616E001240B
:101660002946242C11D263001B4AD21812889042BA
:1016700008D2621E12B25300184AD2181288ADF86E
:101680000C2002E0641CE4B2EBE70846831D002254
:101690001A80841D2388BDF8082043EA02022280B4
:1016A00000F208031A8802F001021A8000F208040E
:1016B000BDF80C2013029BB2BDF80A20120192B2B1
:1016C00013439BB222881A432280DDF800E008B061
:1016D000704700BF00401C46AC4F0000644F000044
:100E780081B0028802F0C00292B2920992B290B296
:100E88000AB900200EE0012802D10A68104609E0DC
:100E9800022802D0032800D004E001F20C021268F4
:080EA8001046FFE701B070479E
:100F900082B08DED010A9DED010AB5EEC00AF1EEB9
:100FA00010FA0ADBDDED010AB7EE000AF4EEC00A22
:100FB000F1EE10FA01DA012100E0002189B9DDED3E
:100FC000010ABFEE000AF4EEC00AF1EE10FA07DDE6
:100FD0009DED010AB5EEC00AF1EE10FA00DC00E06A
:100FE00008E04FF0000100EE101A00ED000A9DED40
:100FF000010A23E001A90968C90D01F0FF017F3949
:1010000089B2182908D99DED010A00ED000A4FF0B8
:10101000000100EE101A11E09DED010ABDEE400A3C
:1010200010EE101A00EE101AB8EEC00A00ED000A19
:1010300050ED000A9DED010A30EE600A02B07047E3
:10154C0081B002884FF6FE7102EA0101018001B000
:02155C007047D6
:103B880081B0CDF800E0FDF72BFF044A04490A6034
:103B98000020DDF800E001B0704700BFE12F000011
:043BA800A000002059
:1019E80081B0CDF800E084460B4A0C490A600C4AE5
:1019F8000C490A600C4A0D490A600D4A0D490A60F3
:101A08000D48FFF751FB61460C48FFF7A3FFDDF8CF
:101A180000E001B0704700BFE12F0000A8370020A8
:101A2800FFFFFFFFAC370020FFFFFFFFB0370020AC
:101A3800FFFFFFFFB4370020D84B00000014004020
:103BF40081B0CDF800E0FDF7D9FF044A04490A601A
:103C04000020DDF800E001B0704700BF85300000FF
:043C1400A0000020EC
:101BB00081B0CDF800E084460B4A0C490A600C4A1B
:101BC0000C490A600C4A0D490A600D4A0D490A6029
:101BD0000D48FFF76DFA61460C48FFF7BFFEDDF8D0
:101BE00000E001B0704700BF85300000A83700203A
:101BF000FFFFFFFFAC370020FFFFFFFFB0370020E3
:101C0000FFFFFFFFB4370020B44C0000001000407D
:1040340083B0CDF800E0024610460D228DF808202A
:104044000A228DF809201FE0FFF754FE23E00278CE
:104054002AB10190FFF74EFE0198401CF7E71AE0E1
:1040640002782AB10190FFF745FE0198401CF7E75A
:1040740002AA1046FFF73EFE0DF109021046FFF7B3
:1040840039FE08E0062007E00029DDD00129DED052
:104094000229E5D0F6E70020DDF800E003B0704720
:103CF80081B0CDF800E00178CCB2A0B2034C2468C2
:103D0800A0470020DDF800E001B07047A0000020C7
:1030840081B0CDF800E081B20348FEF74DFCDDF8D5
:0C30940000E001B0704700BF00100040D9
:10192C0081B0ADF800100146BDF8000001F20A02CA
:10193C00128802F0010292B202B1F7E701F20E0234
:06194C00108001B070479D
:102FE00081B0CDF800E081B20348FEF79FFCDDF828
:0C2FF00000E001B0704700BF001400407A
:102FC40081B0CDF800E081B20348FEF7ADFCDDF836
:0C2FD40000E001B0704700BF0018004092
:102FFC0081B0CDF800E081B20348FEF791FCDDF81A
:0C300C0000E001B0704700BF001C004055
:1040FC0081B0CDF800E0332207490848FFF7CCFF28
:10410C00FFF77AFF06480221FFF78EFFFFF7E2FD6B
:10411C00DDF800E001B07047D43C0000044F000013
:04412C00000000206F
:1040A40081B0CDF800E00446054B1A700846FFF7CE
:1040B40001FD2046FFF70AFDDDF800E001B070477E
:0440C4009500002043
:103AB800026803490A60011D0A6802490A607047E2
:083AC800080D00200C0D002088
:023AD00070473D
:1040040081B0CDF800E00848FFF7B0F8074906484A
:10401400FFF700FE0320FFF7C7FDFFF75FFEDDF8A3
:1040240000E001B0704700BFB8370020100D002039
:1031700081B0CDF800E0024640F2403142F200401A
:0C318000FFF78EFFDDF800E001B07047A3
:1030A000ADF2946DCDF800E0ADF88816CDF88C2621
:1030B0000DF1060B0BF5D06ADFF8ACC001F014F887
:1030C000BDF888365B00ADF8903601AC030ADBB280
:1030D0002370641C00F0FF03DBB22370FEF73AFCA0
:1030E00001AC224B1B7802222146D8B20023FEF706
:1030F00067FCFEF70DFB0DF106041C4B1B78BDF8B9
:1031000090262146D8B20123FEF7EAFA002188B2C0
:10311000BDF88836984221D24500ADB2A9B244002C
:10312000DDF88C361C190DF1060673191B78238007
:103130004400DDF88C361C1923881B0223804400D0
:10314000DDF88C361D194B1C9BB2F3181C782B88AC
:1031500023432B80431C99B288B2D9E7DDF800E005
:103160000DF2946D704700BF7C4400009500002074
:0819540040F2000000B27047F0
:1019C00082B0CDF800E040F20004ADF80440054CD0
:1019D0002468A047BDF90440044320B2DDF800E0CC
:0819E00002B07047080D002061
:1015280081B0CDF800E008B413460A46C1B20448B9
:10153800FFF7BCFB01B0DDF800E001B0704700BF69
:04154800002000403F
:100CB40087B0CDF800E08DF8041001469DF80400DB
:100CC40005920693079C07944C4CA1420AD14C4DC3
:100CD4002C6803942C46246804944A4C25684A4C96
:100CE400256028E0494CA1420AD1494D2C6803945F
:100CF4002C4624680494474C2568434C25601AE02C
:100D0400454CA1420AD1454D2C6803942C462468D5
:100D14000494434C25683C4C25600CE0414CA142B2
:100D240009D1414D2C6803942C46246804943F4C0B
:100D34002568354C256001910291C1B20298FFF7F4
:100D4400BBFA01993A4C247854B90191084601211F
:100D5400FFF768FB019908B101204BE00D461FE045
:100D640001250C8865F304140C8008460588C5F336
:100D740080046CB1049C54B1039C2CB90720224C10
:100D84002468A047012035E0039C641E0394EDE72A
:100D9400048844F0020404800025254C257005468F
:100DA40000262A463146069CA14214D2059C6418AA
:100DB400247801920291E1B21046FFF7ABFA02994E
:100DC400019A20B11046FFF793FA012012E04C1C5F
:100DD40026463146E7E7079C012C07D11046FFF76A
:100DE40087FA002801D0012004E002E00125104C1C
:100DF40025700020DDF800E007B0704700200040B7
:100E04008400002084370020803700200024004024
:100E14008800002088370020002800408C00002033
:100E24008C370020002C00409000002090370020D8
:040E34009400002006
:0C025C0001490870704700BF608809422B
:0C02500001490870704700BF588809423F
:0C02440001490870704700BF4088094263
:0C02680001490870704700BF5480094233
:0C028C0001490870704700BF5C80094207
:0C02800001490870704700BF5880094217
:0C02740001490870704700BF7C800942FF
:0C02080001490870704700BF7080094277
:0C01FC0001490870704700BF48840942A8
:0C01F00001490870704700BF4C840942B0
:0C02140001490870704700BF748809425F
:0C02380001490870704700BF708809423F
:0C022C0001490870704700BF6C84094253
:0C02200001490870704700BF7C8809424B
:0C05980001490870704700BF4888094204
:0C058C0001490870704700BF548009420C
:0C05800001490870704700BF5C80094210
:0C05A40001490870704700BF58800942F0
:0C05C80001490870704700BF78800942AC
:0C05BC0001490870704700BF78880942B0
:0C05B00001490870704700BF68800942D4
:0C02B00001490870704700BF6C800942D3
:0C02A40001490870704700BF74880942CF
:0C02980001490870704700BF70880942DF
:1002BC0081B000F2140212888A420FD000F21602AA
:1002CC0012888A420AD000F2180212888A4205D09B
:1002DC0000F21A0212888A4200D000E002E000F21A
:0802EC002002118001B07047EF
:1004280085B0CDF800E0CCB20146464A91420AD1E7
:10043800454B1A6803921A4612680492434A136895
:10044800434A136028E0434A91420AD1424B1A6852
:1004580003921A4612680492404A13683C4A136091
:100468001AE03F4A91420AD13E4B1A6803921A4653
:10047800126804923C4A1368354A13600CE03B4A00
:10048800914209D13A4B1A6803921A4612680492AB
:10049800384A13682E4A13608DF8044002910846C2
:1004A800FFF736FE02999DF8044008B1012044E0A8
:1004B800E3B20A8863F304120A800A8842F002024F
:1004C8000A80012C1CD1084600F22C021388C3F3C1
:1004D80040026AB9049A52B1039A2AB906201C4C00
:1004E8002468A047012028E0039A521E0392EBE7F4
:1004F80000F22C040023228863F3410222801BE0CF
:10050800084600F22C021388C3F300026AB9049A61
:1005180052B1039A2AB906200D4C2468A04701203D
:100528000BE0039A521E0392EBE700F22C0400231F
:10053800228863F3000222800020DDF800E005B085
:10054800704700BF0020004084000020843700204E
:1005580080370020002400408800002088370020D1
:10056800002800408C0000208C370020002C004020
:080578009000002090370020E4
:1001180083B0CDF800E0274988420AD1264A116801
:10012800019111460968029124490A6824490A6024
:1001380028E0244988420AD1234A116801911146CE
:100148000968029121490A681D490A601AE0204994
:1001580088420AD11F4A1168019111460968029123
:100168001D490A6816490A600CE01C49884209D1F1
:100178001B4A1168019111460968029119490A68D8
:100188000F490A6003461846FFF7B6FF68B9029997
:1001980051B1019929B90520094C2468A0470120CB
:1001A80004E00199491E0191EDE70020DDF800E027
:1001B80003B07047002000408400002084370020EE
:1001C8008037002000240040880000208837002065
:1001D800002800408C0000208C370020002C0040B4
:0801E800900000209037002078
:1001000081B000F208010A88C2F3001181F00101F8
:08011000C9B2C8B201B070478A
:1003180083B0CDF800E0354A90420AD1344B1A68D0
:1003280001921A4612680292324A1368324A1360DE
:1003380028E0324A90420AD1314B1A6801921A4693
:10034800126802922F4A13682B4A13601AE02E4A49
:1003580090420AD12D4B1A6801921A4612680292ED
:100368002B4A1368244A13600CE02A4A904209D1A8
:10037800294B1A6801921A4612680292274A136892
:100388001D4A136000F22C021388C3F3401232B1E5
:1003980000F22C040023228863F34512228000F225
:1003A8000E02118000F22C021388C3F340026AB9CE
:1003B800029A52B1019A2AB904200F4C2468A04726
:1003C80001200FE0019A521E0192EBE700F22C0483
:1003D8000023228863F34102228000F22C02138852
:1003E800C3F34010DDF800E003B070470020004080
:1003F800840000208437002080370020002400403B
:100408008800002088370020002800408C00002049
:100418008C370020002C00409000002090370020EE
:1002F40081B0CDF800E00122018862F3820101801F
:10030400FFF708FF08B1012000E00020DDF800E05D
:0403140001B070477D
:1014940081B0CDF800E008B413460A46C1B204484E
:1014A400FFF706FC01B0DDF800E001B0704700BFB3
:0414B40000240040D0
:1014DC0081B0CDF800E008B413460A46C1B2044806
:1014EC00FFF7E2FB01B0DDF800E001B0704700BF90
:0414FC000028004084
:1014B80081B0CDF800E008B413460A46C1B204482A
:1014C800FFF7F4FB01B0DDF800E001B0704700BFA2
:0414D800002C0040A4
:101710004DF2BD47C0F2010700BF00BF7F1EFDD1E3
:0817200000BF00BF00BF7047CD
:1016E00082B0CDF800E040F20004ADF80440044CB4
:1016F0002468A047BDF90400DDF800E002B070479F
:041700000C0D0020AC
:1013A40081B0CDF800E008B413460A46C1B204483F
:1013B400FFF762FB01B0DDF800E001B0704700BF49
:0413C40000200040C5
:100A7C0087B0CDF800E08DF8041001469DF8040015
:100A8C00079E7B4CA1420AD17A4D2C6805942C46CA
:100A9C0024680694784C2568784C256028E0784CBE
:100AAC00A1420AD1774D2C6805942C4624680694F3
:100ABC00754C2568714C25601AE0744CA1420AD122
:100ACC00734D2C6805942C4624680694714C25684B
:100ADC006A4C25600CE0704CA14209D16F4D2C681A
:100AEC0005942C46246806946D4C2568634C25604F
:100AFC00019202910391C1B20398FFF7D9FB0299BD
:100B0C00019A684C24787CB9019602930392049163
:100B1C0008460021FFF782FC0499039A029B019E70
:100B2C0000B1A0E0304661E000250C8865F30414A8
:100B3C000C80012B39D130460D88C5F3800464B18B
:100B4C00069C4CB1059C24B907204C4C2468A0474A
:100B5C0089E0059C641E0594EEE7069C05940C88C0
:100B6C0044F002040C80019111461A460346019888
:100B7C000588C5F3400464B1069C4CB1059C24B9AE
:100B8C0006203E4C2468A0476DE0059C641E05942D
:100B9C00EEE7069C0594048844F00404048001925A
:100BAC000A4601461846019B1DE001930B46304650
:100BBC0001991D88C5F3800464B1069C4CB1059C59
:100BCC0024B907202D4C2468A0474CE0059C641EDA
:100BDC000594EEE7069C05941C8844F002041C80E6
:100BEC0001930B46019900252E4C25705C1E234663
:100BFC0001931346019A002A31DB01F22C0425885B
:100C0C00C5F3000464B9069C4CB1059C24B90320BF
:100C1C001A4C2468A04726E0059C641E0594ECE75A
:100C2C0016E001F20C0424881C705B1C15E00125F5
:100C3C000C8865F382040C8001F20C0424881C706F
:100C4C005B1C0AE001F20C0424881C705B1C04E0A1
:100C5C00002AE6D0012AEAD0F4E7521ECBE710B9FD
:100C6C000125104C2570DDF800E007B0704700BF7F
:100C7C0000200040840000208437002080370020B2
:100C8C000024004088000020883700200028004005
:100C9C008C0000208C370020002C0040900000209D
:080CAC009037002094000020A5
:1011F40081B0CDF800E008B413460A46C1B20448F1
:10120400FFF73AFC01B0DDF800E001B0704700BF21
:041214000024004072
:1011D00081B0CDF800E008B413460A46C1B2044815
:1011E000FFF74CFC01B0DDF800E001B0704700BF34
:0411F0000028004093
:1012180081B0CDF800E008B413460A46C1B20448CC
:10122800FFF728FC01B0DDF800E001B0704700BF0F
:04123800002C004046
:103C180084B0CDF800E0029003910298FDF7B6FF5A
:103C2800ADF80400C8BB03990298FEF76DF8039934
:103C38000298FDF7E9FF03990298FDF701FF039940
:103C48000298FEF7DFFE03990298FEF7CFFE03996C
:103C58000298FEF701FF03990298FFF7F1F803991C
:103C68000298FEF725FF03990298FEF74DFD039988
:103C78000298FEF727F903990298FEF769F8039965
:103C88000298FEF731FA03990298FEF77FFC039930
:103C98000298FEF787FBADF80400BDF90400DDF8D3
:063CA80000E004B07047CB
:101B940000F21401098801F0400109B211B90020D2
:0C1BA40000B202E04FF6F97000B270478A
:101D100000F26602128802F47F4292B2120A13B2F3
:101D200012B27F2A04DDA3F5807213B21AB200E06A
:101D30001AB2530100F26602128802F0FF0212B2D8
:101D4000A2F5807212B2520112B2A2F5005210B284
:081D50000B808A1C1080704713
:101C100082B0CDF800E00E4600F26402128802F4B1
:101C20007C4292B2920A92B200EE902AF8EE600ADA
:101C3000B0EE601AB3EE0F0AF4EEC00AF1EE10FA3D
:101C400006DD4FF0854200EE102A71EE400A01E0F9
:101C5000F0EE410A4FF08B4200EE102A80EE800A2F
:101C6000B0EE403A00F26402138840F2FF3203EA19
:101C7000020292B200EE902AF8EE600AB0EE601A0C
:101C8000224A00EE102AF4EEC00AF1EE10FA06DD48
:101C90004FF0894200EE102A71EE400A01E0F0EEAA
:101CA000410AB2EE000A80EE800AF0EE403A00F2FD
:101CB0006202128817B200F22002128802F4704207
:101CC000ADF80420F2EE0C0AB0EE000AFFF7B6FD04
:101CD000BDF8042000EE902AF8EE600AC0EE800AFB
:101CE000B2EE000A30EE800A321D02ED003A06F232
:101CF000080242ED003A06F20C02178006F21002CA
:101D000002ED000ADDF800E002B070470080FF43FA
:10183C0082B0CDF800E0F0EE402AB0EE602A002035
:10184C00B5EEC02AF1EE10FA02D1B7EE000A3EE076
:10185C00F5EEC02AF1EE10FA04D14FF0000200EEC2
:10186C00102A34E0F5EEC02AF1EE10FA1BDABDEEC8
:10187C00420A10EE102A104600EE102AB8EEC00AEA
:10188C00B4EEC20AF1EE10FA04D04FF0000200EEF2
:10189C00102A1CE000F00102D0B2F1EE620AC5B2CF
:1018AC00B0EE600A05E08DF80400B0EE620A9DF817
:1018BC000450FFF737FD20EE020AFFF7B9FCF0EEFB
:1018CC00400A15B1B1EE600A01E0B0EE600ADDF835
:0618DC0000E002B07047BD
:1013300082B0CDF800E0B5EEC00AF1EE10FA04DCA0
:101340004FF0000100EE101A23E001A90846FFF754
:1013500045FAF0EE000A60EE200AB7EE000A30EE21
:10136000C00ABDF90410491EADF8041040F208018E
:1013700009B20A48FFF760FDBDF9041001EE101A2A
:10138000B8EEC11A064900EE901A60EE810A30EEFE
:10139000200ADDF800E002B0704700BF1C500000DA
:0413A0001872313F4F
:1007DC0081B00DED000ABDF80210C1F3C7117E39CE
:1007EC0009B201807E22BDF8021062F3CE11ADF881
:0A07FC0002101DED000A01B0704765
:100E380081B0F0EE400A8A00821812ED000AB0EE86
:100E4800401AB0EE410AB0EE601A79B161EE000ABC
:100E58004A1E12B211B29200821812ED000A30EE48
:100E6800800A0DED000A1DED000AEEE701B070479B
:10123C0081B0CDF800E0F0EE401AF5EEC01AF1EEF8
:10124C0010FA02D1B7EE000A5DE0314900EE101A37
:10125C00F4EEC01AF1EE10FA03DD2E4900EE101A6E
:10126C0051E02D4900EE101AF4EEC01AF1EE10FA0E
:10127C0004DA4FF0000100EE101A44E0F5EEC01A4B
:10128C00F1EE10FA40F2000100DA0121CBB2C9B242
:10129C0011B1F1EE610A01E0F0EE610A1F4900EEB6
:1012AC00101A20EE800AF0EE401AFFF7FBFDBDEE9F
:1012BC00400A10EE101A09B20CB200EE101AB8EE79
:1012CC00C00A31EEC00A40F2090109B21448FFF716
:1012DC00ADFD20B2FFF726FEF0EE400A8BB10D49B2
:1012EC0000EE101AF4EEC00AF1EE10FA04D14FF031
:1012FC00000100EE101A06E0B7EE000A80EE200A9C
:10130C0001E0B0EE600ADDF800E001B0704700BF0C
:10131C00FED4B242FFFF7F7F50ACAEC23BAAB83FB7
:04132C00F44F00007A
:100EB00081B00DED000A00A90968C90D01F0FF011C
:100EC00009B27F3909B208B200290EDA1DED000A15
:100ED000B5EEC00AF1EE10FA02DABFEE000A24E025
:100EE0004FF0000100EE101A1FE081B2182902D95C
:100EF0001DED000A19E01DED000ABDEE400A10EEDE
:100F0000101A00EE901AF8EEE00AB0EE601A1DED2D
:100F1000000AF4EEC00AF1EE10FA04DDB7EE000AA2
:0E0F200031EE400A01E0B0EE410A01B0704728
:100F300081B00DED000ABDF80210C1F3C7114118D0
:100F400008B209B2002904DA4FF0000100EE101ACD
:100F500019E0B0F1FF0F0DDDB5EEC00AF1EE10FAA9
:100F600004DA6FF4000100EE101A0CE0074900EEFD
:100F7000101A08E082B2BDF8021062F3CE11ADF88B
:100F800002101DED000A01B0704700BFFFFF7F7F18
:101A480000F26002128810B213B247F6FF72934296
:101A580003DDA0F5803210B2FFE701F21402108016
:021A68007047C5
:102A0C0000F27802128802F0FF0292B200EE902AD5
:102A1C00F8EE600AB0EE601A0D4A00EE102AF4EEE1
:102A2C00C00AF1EE10FA06DD4FF0874200EE102AD4
:102A3C0071EE400A01E0F0EE410A4FF0844200EEE4
:102A4C00102A80EE800A01F2180202ED000A70478B
:042A5C000000FE4236
:1029F40000F27002128802F4405292B2120B01F2F9
:082A04002403D2B21A707047DE
:102A600000F27802128802F47F4292B2120A92B205
:102A700000EE902AF8EE600AB0EE601A0D4A00EE01
:102A8000102AF4EEC00AF1EE10FA06DD4FF087428C
:102A900000EE102A71EE400A01E0F0EE410A4FF01C
:102AA0008C4200EE102A80EE800A01F2280202ED2C
:082AB000000A70470000FE421D
:102E480000F27E02128802F4405292B2130B9BB237
:102E58000A225A4356B201F23C034FF6D87212B214
:102E68001A8001F23C02931C002212B21A8001F26D
:102E78003C02131D00F27E02128802F0F00292B2A8
:102E880012091A8001F23C02931D00F27E02128898
:102E980002F4706292B2120A1A8001F23C02131D07
:102EA800121DB2F9002072431A8001F23C05AC1DD4
:102EB8002A1DB2F90030AA1DB2F90020724312B2DD
:102EC8009A1822800F231BB2012212B29A4014B220
:102ED80001F22C0300F27A02128802F0FF0292B289
:102EE80000EE102AB8EE400A03ED000A01F22C02A7
:102EF800131D00F27A02128802F47F4292B2120A7B
:102F080092B200EE102AB8EE400A03ED000A01F270
:102F18002C0202F2080300F27C02128802F0FF027F
:102F280092B200EE102AB8EE400A03ED000A01F250
:102F38002C0202F20C0300F27C02128802F47F4297
:102F480092B2120A92B200EE102AB8EE400A03EDCD
:102F5800000A00252DB220B2042D2CDA01F22C0330
:102F6800AA009A1852ED000A134A00EE102AF4EE4D
:102F7800C00AF1EE10FA0DDD01F22C03AA009C182C
:102F880054ED000A4FF0874200EE102A30EEC00AD6
:102F980004ED000A01F22C03AA009B1853ED000A65
:102FA80000EE100AB8EEC00A80EE800A03ED000AAF
:0C2FB8006D1C2DB2D0E770470000FE42F7
:102AB800A7B0CDF800E01E901F911E9A40321288F0
:102AC80002F00F02D7B21E9A4032128802F0F002CA
:102AD80092B212098DF875201E9A4032128802F4BB
:102AE800706292B2120A8DF874201E9A40321288CF
:102AF80002F4704292B2120B92B21E32D1B21E9AF6
:102B08004232108840F200090FFA89F90FFA89F663
:102B1800062E4ADAB20012B2ADF8802001AD52009A
:102B2800AC1806F2220212B253001E9AD21812886A
:102B380002F00F022280BDF98020521C12B252000E
:102B4800AC1806F2220212B253001E9AD21812884A
:102B580002F0F00292B212092280BDF98020921C84
:102B680012B25200AC1806F2220212B253001E9A98
:102B7800D218128802F4706292B2120A2280BDF949
:102B88008020D21C12B25200AC1806F2220212B2F5
:102B980053001E9AD218128802F4704292B2120B95
:102BA8002280721C12B216B2B2E7002424B2CDB24F
:102BB8005FFA87F8182C11DA01AB62009A18B2F99B
:102BC8000020072A06DD01AB62009B18B3F900203C
:102BD800103A1A80621C12B214B2EBE740F2000AF3
:102BE8000FFA8AFAE9B20FFA8AF6082E4ADAB20020
:102BF80012B2ADF880200DAD5200AC1806F22802D2
:102C080012B253001E9AD218128802F00F022280C4
:102C1800BDF98020521C12B25200AC1806F22802EC
:102C280012B253001E9AD218128802F0F00292B221
:102C380012092280BDF98020921C12B25200AC18F1
:102C480006F2280212B253001E9AD218128802F411
:102C5800706292B2120A2280BDF98020D21C12B290
:102C68005200AC1806F2280212B253001E9AD2186B
:102C7800128802F4704292B2120B2280721C12B2B5
:102C880016B2B2E740F2000B0FFA8BFB0FFA80FC8A
:102C9800CDB25FFA88F40FFA8BF6202E10DA0DAB5E
:102CA80072009A18B2F90020072A06DD0DAB7200EF
:102CB8009B18B3F90020103A1A80721C16B2ECE780
:102CC800002000B2EBB20FFA8CF1182880F2B38022
:102CD800002636B207B20FFA81FC5FFA83FB5FFA6F
:102CE80084F8202E80F29E807A0112B295192DB2B6
:102CF800ADF880501F9A02F24403AA009C1805F20E
:102D0800400212B253001E9AD218128802F47C7242
:102D180092B2120992B200EE102AB8EE400A04EDFF
:102D2800000A1F9A02F24403BDF9802092009A1803
:102D380052ED000AB3EE0F0AF4EEC00AF1EE10FAF3
:102D480010DD1F9A02F24403BDF9802092009C18FE
:102D580054ED000A4FF0854200EE102A30EEC00A0A
:102D680004ED000A1F9A02F24403BDF98020920084
:102D78009C1854ED000A012212B202FA08F212B2AB
:102D880000EE102AB8EEC00A20EE800A04ED000A10
:102D98001F9A02F24403BDF9802092009D1801ABEE
:102DA8007A009A18B2F900309DF8742003FA02F2FA
:102DB80012B20CEB020424B20DAB72009A18B2F9ED
:102DC80000309DF8752003FA02F212B2A21812B26E
:102DD80000EE902AF8EEE00A15ED000A30EE800ABF
:102DE80005ED000A1F9A02F24403BDF98020920003
:102DF8009A18269212ED000A8DED250A00EE10BAF7
:102E0800B8EE400AF0EE400AB0EE000AFEF712FDF6
:102E1800DDED250A80EE800A269A02ED000A721C72
:102E280016B25EE77A1C10B25FFA88F45FFA8BF389
:0E2E38000FFA8CF149E7DDF800E027B0704793
:102710009CB000F22002128802F00F02D6B200F242
:102720002002128802F0F00292B21209D5B200F231
:102730002002128802F4706292B2120AD4B200F23D
:102740002202128817B213B247F6FF72934204DDD9
:10275000A7F5803213B21AB200E03AB240F2000993
:102760000FFA89F9804610B20F46E1B2B9F1060FAF
:1027700049DA4FEA890212B20FFA82FA00AC52002B
:10278000A31809F1120212B2520008EB02021288D9
:1027900002F00F021A800AF1010212B25200A318CD
:1027A00009F1120212B2520008EB0202128802F082
:1027B000F00292B212091A800AF1020212B2520019
:1027C000A31809F1120212B2520008EB0202128899
:1027D00002F4706292B2120A1A800AF1030212B273
:1027E0005200A31809F1120212B2520008EB0202C1
:1027F000128802F4704292B2120B1A8009F1010998
:102800000FFA89F9B2E7002424B2182C10DA00ABD1
:1028100062009A18B2F90020072A06DD00AB6200B8
:102820009B18B3F90020103A1A80641C24B2ECE71C
:1028300040F200090FFA89F9B9F1080F49DA4FEAB5
:10284000890212B20FFA82FA0CAC5200A31809F1F5
:10285000180212B2520008EB0202128802F00F02B4
:102860001A800AF1010212B25200A31809F11802EB
:1028700012B2520008EB0202128802F0F00292B289
:1028800012091A800AF1020212B25200A31809F1C9
:10289000180212B2520008EB0202128802F47062AF
:1028A00092B2120A1A800AF1030212B25200A3185D
:1028B00009F1180212B2520008EB0202128802F467
:1028C000704292B2120B1A8009F101090FFA89F9CC
:1028D000B2E7002212B2F4B2CEB2394607B2404695
:1028E0000FFA82F8B8F1200F14DA0CAB4FEA480265
:1028F0009A18B2F90020072A07DD0CAB4FEA48020C
:102900009B18B3F90020103A1A8008F101080FFA59
:1029100088F8E7E740F2000A0FFA8AFA5FFA86F8C9
:10292000E6B20FFA87F9EFB2BAF1180F60DA40F2A7
:10293000000B0FFA8BFBBBF1200F54DA4FEA4A125F
:1029400012B202EB0B0424B225B201F6444362003A
:102950009B1804F2400212B252008218128802F44C
:102960007C4292B2920A1A8001F644436A009A1895
:10297000B2F900201F2A07DD01F644436A009B18C4
:10298000B3F90020403A1A8001F644436A009C18CB
:10299000B4F90030012212B2B24012B25A4322807E
:1029A00001F644436A009D1800AB4FEA4A029A18A8
:1029B000B2F9002002FA08F212B209EB020424B2C2
:1029C0000CAB4FEA4B029A18B2F90020BA4012B28F
:1029D000A3181BB2B5F900209A182A800BF1010B3D
:1029E0000FFA8BFBA7E70AF1010A0FFA8AFA9BE7B5
:0429F0001CB0704760
:101ECC0084B0CDF800E000F26C02128802F47F427C
:101EDC0092B2120A53B252B27F2A03DDA3F580727A
:101EEC0053B2FFE701AA137000F26C02128802F0E1
:101EFC00FF0253B252B27F2A03DDA3F5807253B2B4
:101F0C00FFE701AA921C137000F26E02128802F411
:101F1C007F4292B2120A53B252B27F2A03DDA3F56A
:101F2C00807253B2FFE701AA521C137000F26E02CA
:101F3C00128802F0FF0253B252B27F2A03DDA3F5DE
:101F4C00807253B2FFE701AAD21C137000F2700228
:101F5C00128802F0F00292B2120992B208325FFAC1
:101F6C0082F800F27002128802F00F025FFA82F916
:101F7C0040F2000A0FFA8AFA06460F46BAF1180F19
:101F8C0080F2AB8040F2000B0FFA8BFBBBF1200F01
:101F9C0080F29E804FEA4A1212B202EB0B052DB270
:101FAC000FFA85FC202212B295FBF2F31BB24022F1
:101FBC0012B295FBF2F212B2520012B29A1A12B28B
:101FCC00540024B202231BB295FBF3F203FB125212
:101FDC0012B2A218D0B241F24422BB18AA009B182C
:101FEC0005F2400212B25200B218128802F00E0230
:101FFC0092B2520892B200EE102AB8EE400A03EDEB
:10200C00000A41F24422BB184FEA8C029A1852ED96
:10201C00000AB0EE080AF4EEC00AF1EE10FA0DDD7B
:10202C0041F24422BB184FEA8C029B1853ED000A74
:10203C00B2EE000A30EEC00A03ED000A41F244226F
:10204C00BB184FEA8C029C1854ED000A012212B204
:10205C0002FA09F212B200EE102AB8EEC00A20EE13
:10206C00800A04ED000A41F24422BB184FEA8C02AC
:10207C009C1801AA121892F9002000EE902AF8EE92
:10208C00E00A14ED000A30EE800A04ED000A41F279
:10209C004422BB184FEA8C029A18039212ED000AE4
:1020AC008DED020A00EE108AB8EE400AF0EE400AFE
:1020BC00B0EE000AFFF7BCFBDDED020A80EE800AF1
:1020CC00039A02ED000A0BF1010B0FFA8BFB5DE793
:1020DC000AF1010A0FFA8AFA50E7DDF800E004B0C1
:0220EC0070473B
:101D580084B0CDF800E000F26802128802F4704204
:101D680092B2120B53B252B2072A03DDA3F2100249
:101D780053B2FFE701AA137000F26802128802F456
:101D8800706292B2120A53B252B2072A03DDA3F26A
:101D9800100253B2FFE701AA921C137000F2680206
:101DA800128802F0F00292B2120953B252B2072A14
:101DB80003DDA3F2100253B2FFE701AA521C13700D
:101DC80000F26802128802F00F0253B252B2072AD8
:101DD80003DDA3F2100253B2FFE701AAD21C13706D
:101DE80000F27002128802F4706292B2120A5FFA6C
:101DF80082F840F200090FFA89F90F46B9F1180F75
:101E08005BDA40F2000A0FFA8AFABAF1200F4FDAC9
:101E18004FEA491212B202EB0A0636B230B2202259
:101E280012B296FBF2F31BB2402212B296FBF2F208
:101E380012B2520012B29A1A12B2540024B20223F9
:101E48001BB296FBF3F203FB126212B2A5182DB275
:101E580041F64462BB18B2009C1801ABEAB29A186A
:101E680092F9002000EE102AB8EEC00A04ED000A2C
:101E780041F64462BB1882009A18039212ED000AD8
:101E88008DED020A00EE108AB8EE400AF0EE400A24
:101E9800B0EE000AFFF7CEFCDDED020A80EE800A04
:101EA800039A02ED000A0AF1010A0FFA8AFAACE76E
:101EB80009F101090FFA89F9A0E7DDF800E004B09B
:021EC800704761
:1020F00086B0CDF800E006460F4606F24002128890
:1021000002F4704292B2120B92B21B32D0B203AC04
:1021100006F27402138840F2FF3203EA02022280C0
:10212000B4F9003040F2FF12934205DD03ABB3F97E
:102130000020A2F580621A8003ACA31C06F2740290
:10214000128802F47C4292B2920A1A80A21CB2F95E
:1021500000201F2A06DD03AA931C921CB2F900205E
:10216000403A1A8003ADAC1CAA1CB2F90030B5F994
:1021700000209A18228001AC06F27202138840F205
:10218000FF3203EA020292B200EE102AB8EE400AD1
:1021900004ED000A54ED000A824A00EE102AF4EE23
:1021A000C00AF1EE10FA0ADD01AB53ED000A4FF060
:1021B000894200EE102A30EEC00A03ED000A01AB9E
:1021C0001A46059213ED000A8DED040A00EE100A7E
:1021D000B8EE400AF0EE400AB0EE000AFFF72EFB20
:1021E000DDED040A80EE800A059A02ED000A01ACDA
:1021F000231D06F27202128802F47C4292B2920A05
:1022000092B200EE102AB8EE400A03ED000A221D39
:1022100052ED000AB3EE0F0AF4EEC00AF1EE10FA26
:102220000CDD01AA131D121D52ED000A4FF085426C
:1022300000EE102A30EEC00A03ED000A01AC231DA7
:10224000221D52ED000A4FF0864200EE102AC0EE29
:10225000800AB7EE000A70EE200A14ED000A20EEA4
:10226000800A03ED000A06F27602128802F0FF02ED
:1022700092B200EE902AF8EE600AB0EE601A4A4A76
:1022800000EE102AF4EEC00AF1EE10FA0ADD4FF06B
:10229000874200EE102A31EE400AF0EE400AB0EE1E
:1022A000603A01E0B0EE413A06F27002128802F0A4
:1022B000F00292B2120992B202F208039BB207F244
:1022C0002002049200EE103AB8EE400AF0EE400A06
:1022D000B0EE000AFFF7B2FA83EE000A049A02EDAC
:1022E000000A06F27602128802F47F4292B2120AC3
:1022F00092B200EE902AF8EE600AB0EE601A2A4A16
:1023000000EE102AF4EEC00AF1EE10FA0ADD4FF0EA
:10231000874200EE102A31EE400AF0EE400AB0EE9D
:10232000603A01E0B0EE413A06F27002128802F41F
:10233000706292B2130A9BB207F21C02049200EE82
:10234000103AB8EE400AF0EE400AB0EE000AFFF78D
:1023500075FA83EE000A049A02ED000A42F644225E
:10236000BB1801AC14ED000A03ED000A42F644224A
:10237000BA18131D221D12ED000A03ED000A42F6E1
:102380004C22BB1803ACB4F900201A8042F64C2250
:10239000BA18931CA21CB2F900201A80DDF800E0E4
:0C23A00006B070470080FF430000FE42C2
:1025940083B000F21402128802F4006292B21209AB
:1025A400D2B282F08002D5B200AB00F26A02128885
:1025B40002F03F0292B200EE102AB8EE400A03ED98
:1025C400000A53ED000AB3EE0F0AF4EEC00AF1EE6E
:1025D40010FA0ADD00AB53ED000A4FF0854200EE1D
:1025E400102A30EEC00A03ED000A00AC54ED000AD4
:1025F400B3EE000A80EE800A04ED000A231D00F207
:102604006A02128802F4F86292B2920992B200EE5F
:10261400102AB8EE400A03ED000A221D52ED000A0A
:10262400B2EE0E0AF4EEC00AF1EE10FA0CDD00AAC6
:10263400131D121D52ED000A4FF0844200EE102AC1
:1026440030EEC00A03ED000A00AC231D221D52ED3A
:10265400000AB0EE000A80EE800A03ED000A04F2DC
:10266400080300F26A02128802F4784292B2D20A93
:1026740092B200EE102AB8EE400A03ED000A04F20A
:10268400080252ED000AB2EE0E0AF4EEC00AF1EEB0
:1026940010FA0DDD00AA02F20803083252ED000A16
:1026A4004FF0844200EE102A30EEC00A03ED000A17
:1026B40000AC04F2080304F2080252ED000AB2EE80
:1026C400000A80EE800A03ED000A01F2250215706B
:1026D40042F650228B1814ED000A03ED000A42F66C
:1026E40050228A18131D221D12ED000A03ED000A60
:1026F40042F650228A1802F2080304F2080212ED8C
:0A270400000A03ED000A03B070475D
:1023AC0082B0CDF800E040F2000640F2000240F2AC
:1023BC0000031BB20027054690B20C4619B2052F3C
:1023CC0012D242F65C22A3187A009B184FF6FF72C9
:1023DC001A8042F66622A3187A009B184FF6FF72F9
:1023EC001A807F1CBFB2EAE7002287B220462C4637
:1023FC0095B2B5F5407F2AD2052E28D2052F26D2CC
:10240C0005F2400292B25200A218128842B942F66A
:10241C005C22831872009A181580761CB6B213E0F1
:10242C0005F2400292B25200A218128802F0010288
:10243C0092B24AB142F6662283187A009A18158035
:10244C007A1C93B29FB2FFE76D1CADB2D1E7042E9C
:10245C0003D94FF6FD7000B291E0042F03D94FF66B
:10246C00FC7000B28BE0F21992B2042A03D94FF639
:10247C00FB7000B283E000221FFA87F8B7B2064661
:10248C0090B2B8421FD2451C2DB21FFA80F9BD4242
:10249C0015D242F65C22B4186A00A218128893B2C4
:1024AC004FEA4902A218128899B290B2FFF714FAB7
:1024BC0001B208B108B262E06D1C2DB2E7E709F178
:1024CC00010080B2DDE7002001961FFA88F6DDF8E6
:1024DC000480B04220D2451C2DB21FFA80F9B542BF
:1024EC0016D242F6662208EB02046A00A218128881
:1024FC0093B24FEA4902A218128899B290B2FFF730
:10250C00EBF901B208B108B239E06D1C2DB2E6E767
:10251C0009F1010290B2DCE740F20009ADF8046069
:10252C004546BEB208B2BDF80470B14527D240F2A0
:10253C0000080FFA88F8B8451CD242F66622AB1890
:10254C004FEA48029A18128894B242F65C22AB18F1
:10255C004FEA49029A181288A1B290B2FFF7BCF95F
:10256C0001B208B108B20AE008F101080FFA88F8C4
:10257C0008B2E0E709F101091FFA89F9D5E7DDF89E
:06258C0000E002B0704700
:1018E400421A10B213B26FF02102934207DD6FF077
:1018F4001D02904203DA4FF6FA7000B213E06FF063
:101904000102904205DD022803DA4FF6FA7000B2B4
:1019140009E01E2805DD222803DA4FF6FA7000B22A
:0819240001E0002000B2704751
:103BAC0082B0CDF800E000F00701C9B2C901ADF850
:103BBC00061001A90A46012148F20D00FFF76AFA26
:103BCC00BDF804204FF67F410A4092B2BDF90610B1
:103BDC0042EA010189B248F20D00FFF727FADDF83D
:063BEC0000E002B070478A
:1030380082B0CDF800E001AC020AD2B22270631C63
:1030480000F0FF02D2B21A70A31C0A0AD2B21A7098
:10305800E31C01F0FF02D2B21A70FEF777FC01AB55
:10306800054A127819460123D0B20422FEF7A4FCBF
:0C307800DDF800E002B070479500002079
:103CE00044F67D77C0F2120700BF00BF7F1EFDD1F2
:083CF00000BF00BF00BF7047D8
:1041A00081B0CDF800E02F492F48FFF7B5FD2F482B
:1041B0000121FFF73FFF2C4810ED000A2C48FFF7C4
:1041C000E9FD02212A48FFF735FF2A480221FFF7BF
:1041D00031FF29480221FFF72DFF002127480180E8
:1041E00026480088B0F5407F29D224480088810005
:1041F0001C48401810ED000A1D48FFF7CBFD0021B8
:104200001F48017001211A48FFF714FF1D480121C2
:10421000FFF710FFFFF7B4FE1848008800F01F00FA
:1042200080B238B915480088002803D91648022101
:10423000FFF700FF11490888401C0880D0E71348A9
:104240000221FFF7F7FE48F67D57C0F25B0700BF7B
:104250007F1EFDD100BF00BF00BF00BFDDF800E042
:1042600001B07047A40000201C00002020000020A6
:10427000A40C00201A000020370000209600002027
:10428000A90C00205E0000206000002062000020D9
:103D180085B0CDF800E0039004914FF0000200EE6A
:103D2800102A174A02920022ADF80420BDF8042098
:103D3800022A1DD21348FFF7C9FE13491148FFF79D
:103D480035FAF2EE000A30EE600AF0EE405A049AB4
:103D5800F0EE400A9DED020A0B490A48FFF7BAFA4D
:103D6800BDF80420521CADF80420B0EE650ADDE76A
:103D7800039A02ED000ADDF800E005B0704700BFC5
:0C3D88003333733F383E0020100D002044
:103AD40084B0CDF800E0039000218DF80810002197
:103AE40061B90DF106010A46012148F20000FFF711
:103AF400D5FABDF8061001F00801F1E788B210B359
:103B04009DF8081005291ED2302148F20000FFF765
:103B140091FA039A40F2403140F20040FFF7BEFAB6
:103B24000DF106010A46012148F20000FFF7B6FA3A
:103B3400BDF8061001F0080188B29DF80810491C70
:103B44008DF80810DBE701A90A46012148F20D00AF
:103B5400FFF7A4FA039901F5D062BDF804101180AF
:103B6400039901F28262BDF8061001F0010111808F
:103B7400039901F28261098808B2DDF800E004B01B
:023B8400704788
:1031B40082B0CDF800E08146884641464846FEF795
:1031C40053FCB0EE403A09F5C862128800EE902A2A
:1031D400F8EE600AB0EE601A344A00EE102AF4EEFB
:1031E400C00AF1EE10FA06DD4FF08F4200EE102A0D
:1031F40031EE401AFFE709F5C062128800EE902A0A
:10320400F8EE600AF0EE601A284A00EE102AF4EE96
:10321400C00AF1EE10FA06DD4FF08F4200EE102ADC
:1032240071EEC00A01E0F0EE610A08F1100212ED3D
:10323400000A21EE000A30EE200A81EE000A8DED2C
:10324400010AF3EE020AB0EE000AFEF7F5FADDED2C
:10325400010A20EE801A08F10403154A00EE102A30
:1032640073EE400A13ED000A60EE200AB7EE000A7E
:1032740030EE200AC1EE000A08F10C02128800EEBA
:10328400102AB8EE400A70EEC00A08F1080212EDE6
:10329400000AC0EE800AB3EE090A30EE800AB0EEEE
:1032A400400ADDF800E002B0704700BF00FEFF46B0
:0432B400333353401D
:101A6C0082B0CDF800E00E4600F25462128800EE0F
:101A7C00902AF8EE600AB0EE603A294A00EE102A7D
:101A8C00F4EEC00AF1EE10FA06DD4FF08F4200EED4
:101A9C00102A33EE403AFFE700F5D062128802F4C8
:101AAC00406292B2920A17B206F22402127800EE49
:101ABC00102AB8EE400AF0EE400AB0EE000AFFF72A
:101ACC00B7FE8DED010A00EE107AB8EEC00AF0EE0A
:101ADC00400AB0EE000AFFF7ABFEDDED010A80EE26
:101AEC00800A60EE030AB21CB2F9002000EE102A44
:101AFC00B8EEC00A70EEC00A3246B2F9002000EE11
:101B0C00102AB8EEC00AC0EE800A064A00EE102A6F
:101B1C0030EE800AB0EE400ADDF800E002B070470B
:081B2C0000FEFF463333534075
:1032DC008FB0CDF800E082468B46F0EE403AF0EE2F
:1032EC00604A94460AF282631B8898B2ADF80400D7
:1032FC0059465046FEF7B4FBBDF80400B0EE404A08
:10330C00ADF8040059465046FFF74EFFBDF80400D7
:10331C00B0EE403AF34B00EE903A30EE200AADF8A6
:10332C000400F1EE000AFEF783FABDF80400B0EEDB
:10333C00405AEC4B00EE103A34EE800AADF8040023
:10334C00F1EE000AFEF774FABDF8040070EE450ABF
:10335C00C0EEA30A70EE602A0AAE0BF12C0353EDFB
:10336C00000AE14B00EE103A60EE800AB7EE000A5C
:10337C0070EE200AB7EE000A80EE200A06ED000A75
:10338C00331DB7EE000A03ED000A06F208050BF137
:10339C002C0303F208040BF13C031B1DB3F90030A2
:1033AC0000EE903AF8EEE00A14ED000A60EE200A06
:1033BC00B7EE000A30EE200A05ED000A06F20C0703
:1033CC0006F2080313ED001A0BF12C0303F20C06A2
:1033DC000BF13C05AB1DB3F900402B1DB3F90030CC
:1033EC00E31A1BB200EE903AF8EEE00A16ED000A72
:1033FC0060EE200AB7EE000A30EE200A21EE000A39
:10340C0007ED000A0AF214631B8800EE903AF8EEFE
:10341C00600AB0EE601AB54B00EE103AF4EEC00A3A
:10342C00F1EE10FA06DD4FF08F4300EE103A71EE1C
:10343C00400A01E0F0EE410A0BF11403B3F900303D
:10344C0002EE103AB8EEC22A82EE202A0AF5D063B8
:10345C001B8803F480539BB25B09D9B205AC0AF507
:10346C00C2631B8800EE103AB8EE400A04ED000A65
:10347C00241D0AF5CA631B8800EE103AB8EE400A08
:10348C0004ED000A002636B2ADF804608DF8061083
:10349C00F0EE443AB0EE634A5746D846624681B2E3
:1034AC009DF80600BDF90460022E31DA05ACB300BC
:1034BC00E31853ED000A8D4B00EE103AF4EEC00AFF
:1034CC00F1EE10FA0CDD05ACB300E51855ED000A71
:1034DC004FF08F4300EE103A30EEC00A05ED000AB3
:1034EC0005ACB300E41814ED000A20EE020A04ED5A
:1034FC00000A761C36B2ADF804608DED024ACDEDB3
:10350C00033ADDED033A9DED024ABDF90460CBE7C9
:10351C0005AD55ED001A42F64C2308EB03031C468F
:10352C0008F12003B3EE090A73EE400A13ED000A0A
:10353C0060EE200AB7EE000A70EE200AB4F90030F3
:10354C0000EE103AB8EEC00A20EE201A08F11C0466
:10355C00674B00EE103A73EEC00A14ED000A60EEF1
:10356C00200AB7EE000A30EE200A21EE000A31EEF6
:10357C00C00A05ED000A08F125031B78984235D1E5
:10358C0005AB1D1D1B1D53ED001A42F64C2308EB19
:10359C0003039C1C08F12003B3EE090A73EE400AE6
:1035AC0013ED000A60EE200AB7EE000A70EE200A56
:1035BC00B4F9003000EE103AB8EEC00A20EE201A32
:1035CC0008F11C044A4B00EE103A73EEC00A14EDDD
:1035DC00000A60EE200AB7EE000A30EE200A21EE57
:1035EC00000A31EEC00A05ED000A3CE005AB1D1DDA
:1035FC001B1D53ED001A42F64C2308EB03039B1CD6
:10360C00B3F9004042F6502308EB030300EE904A56
:10361C00F8EEE00A13ED000A30EE801A08F12003F0
:10362C00B3EE090A73EE400A13ED000A60EE200AAD
:10363C00B7EE000A30EE200A21EE001A08F11C0445
:10364C002B4B00EE103A73EEC00A14ED000A60EE3C
:10365C00200AB7EE000A30EE200A21EE000A31EE05
:10366C00C00A05ED000A40F2000C0FFA8CFC019721
:10367C008DED024A5FFA80FBB0EE425AF0EE624AE0
:10368C00B0EE434A1FFA81FA91469DED023A019F32
:10369C00BCF5407F80F2ED8120231BB29CFBF3F440
:1036AC0024B240231BB29CFBF3F31BB25B001BB296
:1036BC00E61A70B202231BB29CFBF3F31BB25B0045
:1036CC001BB2ACEB030424B273B263405AB20CF1DC
:1036DC00020424B204231BB294FBF3F52DB20CF1BB
:1036EC00030407E0339388430000204200FEFF46AA
:1036FC003333534024B204231BB294FBF3F31BB2B9
:10370C00ED1A2DB20CF1010424B204231BB294FB6C
:10371C00F3F31BB2EC1824B204231BB29CFBF3F39F
:10372C001BB2E41A24B273B25B001BB2C3F10103E7
:10373C001BB2634359B2BBF1000F01D142B201E09D
:10374C0053B25AB207F282631B889A4240F07E81D0
:10375C004FEA4C03FB181B8800EE903AF8EE600A17
:10376C00CDED070AC54B00EE103AF4EEC00AF1EEAF
:10377C0010FA09DDDDED070A4FF08F4300EE103A29
:10378C0030EEC00A8DED070A9DED070A60EE051AB2
:10379C00CDED071A08F644444FEA4C03E51841F204
:1037AC00442308EB03034FEA8C069C19B3EE090A79
:1037BC0074EE400A14ED000A60EE200AB7EE000A1F
:1037CC0070EE200AB5F9003000EE103AB8EEC00ADF
:1037DC0020EE201A41F6446308EB03039C19A84B16
:1037EC0000EE103A73EEC00A14ED000A60EE200AE7
:1037FC00B7EE000A30EE200A21EE000A31EEC00AC4
:10380C008DED070A08F125031B789B4522D042F663
:10381C00502308EB030505F2080443001BB25B1EA2
:10382C001BB200EE903AF8EEE00A14ED000A60EEDE
:10383C00200A9DED070A30EE201A2B1D00EE901A7F
:10384C00F8EEE00A13ED000A20EE200A31EE400AF1
:10385C008DED070A9DED070A80EE031A8DED071A10
:10386C0008F1180605AB4FEA8A055B1953ED000AFF
:10387C0016ED000A20EE200A31EE400A8DED070A03
:10388C0008F144044FEA8C03E31813ED001A42F6D6
:10389C00442308EB03035B1953ED000A16ED000AF1
:1038AC0020EE200A31EE401A08F12803B3EE090A83
:1038BC0074EE400A13ED000A60EE200AB7EE000A1F
:1038CC0030EE200A21EE000A8DED080AF0EE080A0F
:1038DC00B0EE400AFDF7ACFFDDED080A20EEA41AAD
:1038EC00DDED070A70EE810A20EE200AF5EE000AE3
:1038FC00B0EE400AFDF79CFF08F12C04231D53ED9C
:10390C00000A20EE201A231D53ED000A5D4B00EE39
:10391C00103A60EE800AB7EE000A70EE600A9DED78
:10392C00080A20EE200A70EE010A9DED070A80EECF
:10393C00200A30EE240AF5EE000AFDF779FF514B10
:10394C0000EE903A70EE600ACDED090A08F13C03E6
:10395C009B1CB3F9003000EE103AB8EEC00AF4EE3E
:10396C00C00AF1EE10FA04DA00235BB28DF838309D
:10397C002DE008F13C031B1DB3F9003000EE903A2A
:10398C00F8EEE00A9DED090AB4EEE00AF1EE10FA49
:10399C0004DA01235BB28DF8383018E008F13C03EF
:1039AC009B1DB3F9003000EE903AF8EEE00A9DED65
:1039BC00090AB4EEE00AF1EE10FA04DA02235BB263
:1039CC008DF8383003E003235BB28DF838300AAC45
:1039DC009DF938309D00631953ED000A9DED080ADE
:1039EC0020EE201A08F12C035D1908F13C049DF916
:1039FC0038305B00E318B3F9003000EE903AF8EE83
:103A0C00E00A9DED090A70EE600A15ED000A60EE01
:103A1C00200AB7EE000A30EE200A61EE000A9DED96
:103A2C00070A80EE200A30EE240AF5EE000AFDF7B4
:103A3C00FFFE144B00EE903A30EE600A8DED090A51
:103A4C004FEA8C0309EB030303ED000A0CF1010CA4
:103A5C000FFA8CFC0197CDF80880CDF80C90ADF8DE
:103A6C0010A0BDF810A0DDF80C90DDF80880019FC7
:103A7C000EE6DDF800E00FB0704700BF00FEFF4619
:083A8C003333534033938843A8
:103D940083B0CDF800E00446002000235BB28DED33
:103DA400020A0299B1F1FF3F05D170492046FFF79D
:103DB400EBF90320D5E0012502A9C91C097801F01B
:103DC4008001C9B269B102A9CA1C117881F08001CD
:103DD4001170691CCAB22D212170641CD7B2264609
:103DE40001E02646EFB2029929B961493046FFF74E
:103DF400CBF90020B5E00299B1F1FF4F05D15D493F
:103E04003046FFF7C1F9F8B2ABE08DF80430C3B225
:103E140034469DF90400DDED020AB7EE000AF4EE23
:103E2400C00AF1EE10FA0ADADDED020AB2EE040A73
:103E340020EE800A8DED020A401E40B2EBE7DDED74
:103E4400020AB2EE040AF4EEC00AF1EE10FA0BDB39
:103E5400DDED020A484900EE101A20EE800A8DEDCD
:103E6400020A401C40B2EAE702994900029102A901
:103E7400C91C09787F39CDB202A9CA1C012111706D
:103E84000299A940029102A9C91C09783031217014
:103E9400621C012803DB062801DC154603E02E2101
:103EA4001170551C0123062144B2C8B210B302A9F3
:103EB400CA1C0021117002998A0002998918029182
:103EC40002994900029102A9C91C0978303129706C
:103ED4006D1C63B9611E49B24AB221B92E21297001
:103EE4006D1C012100E0D9B254B2CBB2FFE7401EF1
:103EF400C0B2DBE72A4660B2511E0978302901D1ED
:103F0400521EF9E7511E09782E2901D1521EFFE7EE
:103F140018B365211170521C002806DA2D21117086
:103F2400521C414248B243B200E043B2D8B2D9B2C3
:103F3400092907D90A21B0FBF1F1C9B23031117056
:103F4400531C00E013460A22B0FBF2F102FB1101FC
:103F5400C9B230311970581C00E0104600210170BC
:103F64000020DDF800E003B0704700BF7A000020B5
:0C3F74007E00002080000020CDCCCC3D61
:10318C0081B00091014600980B461C465A1C15460E
:10319C000346421C10461A78227022780AB12B463C
:0831AC00F3E7084601B070478B
:103F800042F6DD67C0F2000700BF00BF7F1EFDD113
:083F900000BF00BF00BF704735
:1043380083B0CDF800E0374B374C384D384E394F05
:10434800394845F680213948018004F007000528DE
:1043580004D004F07000502800D00BE0012252B2C3
:1043680033480280002149B2324801803248028035
:1043780032480180802132480160019502961E462C
:1043880025463A46029B019C2E48006800F480703E
:1043980000B1F9E72C492D480160019511463246D4
:1043A8001D46019B2748006800F4807000B1F9E7BA
:1043B80027480160274801602749284801602848A4
:1043C800026028480360200D00F0070028B944F077
:1043D8000301254801602A4610E044F4803040F08B
:1043E8000301214801602A462048006830B1FFF7E0
:1043F8009BFE012149B21E480160F5E700211748DC
:10440800016042F4B44109480180DDF800E003B0DE
:10441800704700BF000005003300000003000100E2
:10442800840000000010000080BB00000C48004021
:104438004CA509428CA5094248A5094288A509420C
:10444800143004E00400014001005A6900000140F2
:1044580010100140141001405A6900000004014086
:1044680004040140080401400C040140048920426E
:04447800048A204250
:1041300040F20907C0F2000700BF00BF7F1EFDD19B
:0841400000BF00BF00BF704783
:1043000081B002490248016001B0704780BB0000E3
:044310009C370020B6
:0842CC0081B0FEE701B070476C
:1042D40081B04EF68850CEF20000016841F47001BE
:1042E400016000BF00BF00BF00BFF1EE100A40F440
:0A42F4004000E1EE100A01B070472F
:1050400000B5DFF824B0DFF824A0DFF824C0FFF7B4
:105050004BF8DFF820B0DFF820A0DFF820C0FFF722
:1050600043F800BD704700BF0000002095000020FD
:105070006C4E000098000020A000002004170000E3
:1050DC0000B5DFF810B0DFF810A0FFF7D3F800BD73
:0C50EC00704700BF00000020BC44002002
:0417040010270000AA
:0417080000366E0138
:04170C00801A060039
:083CD40095140000F511000039
:10447C000000000000000000000000000000000030
:10448C000000000000000000000000000000000020
:10449C000000000000000000000000000000000010
:1044AC000000000000000000000000000000000000
:104AFC00204C00400400050500000000204C004044
:104B0C000800050500000000000000000000000087
:104B1C000000000000000000000000000000000089
:104B2C000000000000000000000000000000000079
:104B3C000000000000000000000000000000000069
:104B4C000000000000000000000000000000000059
:104B5C000000000000000000000000000000000049
:104B6C000000000000000000000000000000000039
:104B7C000000000000000000000000000000000029
:104B8C000000000000000000000000000000000019
:104B9C000000000000000000000000000000000009
:104BAC0000000000000000000000000000000000F9
:104BBC0000000000000000000000000000000000E9
:0C4BCC00000000000000000002000000DB
:104BD800004C00400004050500000000004C0040A7
:104BE80000080505000000000000000000000000AB
:104BF80000000000000000000000000000000000AD
:104C0800000000000000000000000000000000009C
:104C1800000000000000000000000000000000008C
:104C2800000000000000000000000000000000007C
:104C3800000000000000000000000000000000006C
:104C4800000000000000000000000000000000005C
:104C5800000000000000000000000000000000004C
:104C6800000000000000000000000000000000003C
:104C7800000000000000000000000000000000002C
:104C8800000000000000000000000000000000001C
:104C9800000000000000000000000000000000000C
:0C4CA800000000000000000002000000FE
:104CB400004C00400400050500000000004C0040CA
:104CC40008000505000000000000000000000000CE
:104CD40000000000000000000000000000000000D0
:104CE40000000000000000000000000000000000C0
:104CF40000000000000000000000000000000000B0
:104D0400000000000000000000000000000000009F
:104D1400000000000000000000000000000000008F
:104D2400000000000000000000000000000000007F
:104D3400000000000000000000000000000000006F
:104D4400000000000000000000000000000000005F
:104D5400000000000000000000000000000000004F
:104D6400000000000000000000000000000000003F
:104D7400000000000000000000000000000000002F
:0C4D840000000000000000000200000021
:104D9000404C00400010000500000000404C004066
:104DA00000200005000000000000000000000000DE
:104DB00000000000000000000000000000000000F3
:104DC00000000000000000000000000000000000E3
:104DD00000000000000000000000000000000000D3
:104DE00000000000000000000000000000000000C3
:104DF00000000000000000000000000000000000B3
:104E000000000000000000000000000000000000A2
:104E10000000000000000000000000000000000092
:104E20000000000000000000000000000000000082
:104E30000000000000000000000000000000000072
:104E40000000000000000000000000000000000062
:104E50000000000000000000000000000000000052
:0C4E600000000000000000000200000044
:104E6C002D2D2D205374617274206D6561737572D4
:0A4E7C00656D656E74202D2D2D006C
:024E860020000A
:044E88000000000026
:104E8C00416D6269656E742074656D7065726174D4
:104E9C007572653A2020002D2D2D20506978656C97
:104EAC002074656D7065726174757265206D6174C6
:0E4EBC00726978203332783234202D2D2D008B
:024ECA007C006A
:024ECC002000C4
:024ECE002000C2
:104ED000202D2D2D2053797374656D20496E6974D2
:064EE000202D2D2D200005
:044EE6004E614E00CB
:024EEA00300096
:044EEC00494E4600E5
:044EF00000000000BE
:044EF40000000000BA
:044EF80000000000B6
:044EFC0000000000B2
:014F000000B0
:104F04005D02000051020000450200006902000039
:104F14008D020000810200007502000009020000F9
:104F2400FD010000F101000015020000390200003B
:104F3400FFFFFFFFFFFFFFFFFFFFFFFFFFFFFFFF7D
:104F4400FFFFFFFFFFFFFFFFFFFFFFFFFFFFFFFF6D
:104F5400FFFFFFFFFFFFFFFFFFFFFFFFFFFFFFFF5D
:104F640000000100020004000800100020001100ED
:104F7400210022004400250049004A00520092000A
:104F840053005500AA006B00AD00B500B600D60072
:104F9400B700BB00DD00ED00EE00BF00DF00EF0056
:084FA400F700FB00FD00FE0018
:104FAC0000001102CB024303E903E40496058606D4
:104FBC006308B008C709B80B070DF70DA90EA30FAE
:104FCC00BE101A118A13531673176E1820190B1A68
:104FDC00591BEB1B4F1DB51E441F8D2010217C212E
:084FEC002F222C23D2234824BC
:104FF4000000803F1872313FF0FD753E4758633D15
:1050040058951D3C82C4AE3AA8782139EF93803775
:08501400A092A73546561534A1
:10501C00FFE6DB2EC4FF7F3F80EFFFBE90E1A93E91
:10502C00EC8276BE82AD2B3E0E3CC3BD87D1133DC8
:04503C004178D3BB29
:00000001FF
