:10000000FCFF02207D440000354400003544000020
:1000100035440000354400003544000035440000FC
:1000200035440000354400003544000035440000EC
:1000300035440000354400003544000035440000DC
:1000400035440000354400003544000035440000CC
:1000500035440000354400003544000035440000BC
:1000600035440000354400003544000035440000AC
:10007000354400003544000035440000354400009C
:10008000354400003544000035440000354400008C
:10009000354400003544000035440000354400007C
:1000A000354400003544000035440000354400006C
:1000B000354400003544000035440000354400005C
:1000C000354400003544000035440000354400004C
:1000D000354400003544000035440000354400003C
:1000E000354400003544000035440000354400002C
:1000F000354400003544000035440000354400001C
:10010000354400003544000035440000354400000B
:1001100035440000354400003544000035440000FB
:1001200035440000354400003544000035440000EB
:1001300035440000354400003544000035440000DB
:1001400035440000354400003544000035440000CB
:1001500035440000354400003544000035440000BB
:1001600035440000354400003544000035440000AB
:10017000354400003544000035440000354400009B
:10018000354400003544000035440000354400008B
:08019000354400003544000075
:10447C0000F010F8FFF7DCFF01F068F8FFF7EEFF33
:10448C0001F024F8FFF7FAFEFFF71EFFFFF736FFE7
:04449C00FCE7FEE754
:1042740081B01CF8019B0BF8019BBBEB0A0FF8D132
:0442840001B07047CE
:1043F80081B04FF000094FF0000CBDEB0A0F04DC50
:10440800BDEB0B0F01DBD446EA464BF8049BBBEB34
:104418000A0FFAD1BCEB0A0F05DDE246D9F800B065
:0A4428000BF1040BF1E701B070473F
:1042880081B0CDF800E0FFF7E5FF0E4801460020B9
:10429800FFF746FE42F280511020FFF7A5FF0A48BB
:1042A8000221FFF769FF40F6FE07C0F23D0700BF95
:1042B80000BF7F1EFDD100BF00BF00BFDDF800E0DA
:0C42C80001B07047D45400001A00FF1F22
:10425C0040F62E47C0F2000700BF00BF7F1EFDD105
:08426C0000BF00BF00BF704756
:103F280081B0CDF800E00DE00846FFF7BBF910E0DE
:103F38000846FFF78BFF0CE00846FFF797FF08E0FD
:103F4800012006E00028EFD00128F1D00228F3D0A4
:0A3F5800F6E7DDF800E001B0704765
:1032AC0081B0CDF800E0016808460449FEF76CFDDA
:1032BC000020DDF800E001B0704700BF445300006F
:101D940081B0CDF800E00A4601460348FFF736FD5E
:0C1DA400DDF800E001B070470060064070
:101810008AB0CDF800E0504B984210D100244F4BD5
:101820001C60012464B24E4B1C604E4C4E4B1C603D
:101830004E4C4F4B1C604F4C4F4B1C6026E04F4BA7
:10184000984210D100244E4B1C60012464B24D4BD1
:101850001C604D4C444B1C604C4C454B1C604C4C2C
:10186000454B1C6012E04B4B98420FD100244A4B71
:101870001C60012464B2494B1C60494C3A4B1C600B
:10188000484C3B4B1C60484C3B4B1C600191029008
:101890001046FFF76DFE06AB1846FFF7F5FB029802
:1018A00001994FF0FF39002740F200080022022A78
:1018B00037D8B9F1000F34D001231BB203FA02F577
:1018C0002DB20026322E28D2F400384B1B191B1DD6
:1018D0001B6805FB03F4079BB3FBF4F304939942E5
:1018E00003D9049BCB1A039302E0049B5B1A039376
:1018F000039B0593039B4B450BD21746F4002B4BE0
:101900001B19D3F80080059C059B002B00D105E036
:1019100000E04C46761CA146D4E74C46521CA1463A
:10192000C5E7441CBB0143EA08032370851C01245E
:101930002B7864F3C7132B70851C01242B7864F378
:1019400086132B70851D01242B7864F345132B70AF
:10195000DDF800E00AB07047006006408400FF1F19
:1019600098069042E51400008837FF1F8D11000093
:101970008C37FF1FB11100009037FF1F0070064029
:101980008800FF1F9C069042711000006113000048
:10199000D511000000600E408C00FF1F180590421A
:1019A0005910000085130000691100004C50000020
:1010880081B0CDF800E00446FFF7E4FE40F2E83115
:1010980000FB01F3194909680A0F1849096801F0AA
:1010A8007061090EC8B21549096801F47001090D8B
:1010B800CDB21249096801F47021090CCEB2D1B23F
:1010C800491C09B259430F462360221D411C09B22D
:1010D800B7FBF1F1116004F20802691C09B2B7FB11
:1010E800F1F1116004F20C02711C09B2B7FBF1F1C5
:1010F8001160DDF800E001B0704700BF4480044093
:0C0E5C0001480068704700BF7837FF1F96
:1015700081B0CDF800E040F2000C83464FEA8C01C8
:101580000BEB01010968B1F1FF3F12D00BF13401FF
:101590004FEA8C03C91809680A460BEB0301096876
:1015A00008461146FFF7B0FC0CF1010C1FFA8CFC49
:0A15B000E4E7DDF800E001B0704749
:100F080082B0CDF800E080464FEA581202F007029E
:100F1800914608F01F04A24693010D4AD3184FF0DA
:100F28000102A240019218460A460199FFF74AFDBC
:100F38004FEA0933074AD3184FEA8A029C1808F483
:100F4800E06322681A432260DDF800E002B07047CF
:080F580000F00F40009004407E
:1009CC0081B0CDF800E0FFF741FDDDF800E001B0AB
:0209DC00704762
:1004580083B0CDF800E006460C4615463046FFF757
:10046800D3FF40F2FF1306EA030080090026224664
:100478002946202E39D24FF0010303FA06F402EA86
:1004880004031F46A3422ED104031A4B1C19B300C0
:10049800E51801952C68184B04EA03032B60174BE9
:1004A80001EA0304019B1B6843EA0404019B1C60E6
:1004B80001F48033B3F5803F15D08401104B1B192C
:1004C8001433029301F400333BB1FC43029B1B68D5
:1004D80003EA0404029B1C6005E0029B1B6843EAD4
:1004E8000704029B1C60761CC3E7DDF800E003B03C
:1004F800704700BF009004400000FFFFFFFF0000AE
:0405080000F00F40B0
:1004100081B040F2FF1100EA01018909084600F2AB
:1004200009024FF0010101FA02F20449096841EAA8
:10043000020202490A6001B0704700BF38800440E0
:103E540081B0CDF800E0016808460449FDF798FFF9
:103E64000020DDF800E001B0704700BF44530000BB
:103E740081B0CDF800E0016808460449FDF788FFE9
:103E84000020DDF800E001B0704700BF445300009B
:1041F00081B0CDF800E011E00846FFF743FD16E07E
:104200000846FFF763F812E00846FFF7B7F80EE03C
:104210000846FFF7A1F80AE0012008E00028EBD0EB
:104220000128EDD00228EFD01028F1D0F4E7DDF816
:0642300000E001B0704740
:103C840081B0CDF800E0FFF7A7FA044A04490A60BE
:103C94000020DDF800E001B0704700BF893100006A
:043CA400F80CFF1FFA
:1031DC0081B0CDF800E003460A48FEF7E3FB0A4A4B
:1031EC0040F2000104B402B440F20002194640F26D
:1031FC0000030448FEF77CFC02B0DDF800E001B0EF
:0C320C00704700BF00C00640D852000010
:1019B00081B0304988420CD12F4A30490A60304A00
:1019C00030490A60304A31490A60314A31490A6077
:1019D0004EE0314988420CD1304A28490A60304AE9
:1019E00028490A602F4A29490A602F4A29490A6072
:1019F0003EE02E4988420CD12D4A20490A602D4AEA
:101A000020490A602C4A21490A602C4A21490A606F
:101A10002EE02B4988420CD12A4A18490A602A4AEA
:101A200018490A60294A19490A60294A19490A606D
:101A30001EE0284988420CD1274A10490A60274AEB
:101A400010490A60264A11490A60264A11490A606B
:101A50000EE0254988420BD1244A08490A60244AED
:101A600008490A60234A09490A60234A09490A6069
:101A700001B0704700A00640C13100009437FF1F3D
:101A8000391100009837FF1F211100009C37FF1FFC
:101A900009110000A037FF1F00B006406D310000A3
:101AA000E10F0000291000004110000000C00640B6
:101AB00089310000F90F00001110000051110000E1
:101AC00000D00640A5310000F11300000914000009
:101AD000C113000000A00E4091320000D913000095
:101AE000511400006914000000B00E40811B00007A
:0C1AF0002114000039140000A9130000AC
:101AFC0085B0CDF800E001900291ADF80C20ADF866
:101B0C001030BDF81440ADF814400698FFF72AFDCC
:101B1C000198FFF75DFD02990198FFF7E9FCBDF80C
:101B2C000C100198FFF744FDBDF810100198FFF759
:101B3C00A7FCBDF814100198FFF79CFC0198FFF767
:101B4C00C3FC0198FFF7B8FCDDF800E005B0704766
:1015DC0081B01849884204D1012252B216490A60DE
:1015EC0026E01649884204D1012252B214490A60FD
:1015FC001EE01449884204D1012252B212490A60F9
:10160C0016E01249884204D1012252B210490A60F4
:10161C000EE01049884204D1012252B20E490A60F0
:10162C0006E00E49884203D1012252B20C490A60ED
:10163C0001B0704700A00640A806904200B00640DA
:10164C00AC06904200C00640B006904200D0064066
:10165C00B406904200A00E402805904200B00E4007
:04166C002C05904277
:1014FC0085B0CDF800E08046894601AA1046FFF77A
:10150C00BDFD164A904503D0154A904500D001E028
:10151C00019800E002984FEA0912B0FBF2F291B286
:10152C0092B2130A9BB298F800201A4388F8002054
:10153C0008F10103CAB21A7043014FEA0912B3FB56
:10154C00F2F34A0192B29A1AD0B208F10A031A784D
:10155C0002431A70DDF800E005B0704700A00640A9
:04156C0000B0064085
:1015BC0081B0841C23784FF6EF7212B203EA020258
:1015CC002270841C0B0122781A43227001B07047E0
:10148C0081B001F0020262B1841C01F002032278E7
:10149C001A432270841C01F0010322781A43227033
:1014AC0007E0841C23784FF6FD7212B203EA0202A5
:0614BC00227001B0704730
:0C14800081B002780A43027001B070478E
:1014D40081B0C21C117841F00401117001B0704751
:1014C40081B0C21C117841F00801117001B070475D
:1032CC0081B0CDF800E0FFF7A1FF044A04490A6081
:1032DC000020DDF800E001B0704700BFA531000010
:0432EC00F80CFF1FBC
:1032180081B0CDF800E003460A48FEF7C5FB0A4A2C
:1032280040F2000104B402B440F20002194640F230
:1032380000030448FEF75EFC02B0DDF800E001B0D0
:0C324800704700BF00D00640B0530000EB
:10337C0081B0CDF800E0FFF749FF044A04490A6028
:10338C000020DDF800E001B0704700BFA53100005F
:04339C00F80CFF1F0B
:1033580081B0CDF800E0FFF779FF044A04490A601C
:103368000020DDF800E001B0704700BFC131000067
:04337800F80CFF1F2F
:1032540081B0CDF800E003460A48FEF7A7FB0A4A0E
:1032640040F2000104B402B440F20002194640F2F4
:1032740000030448FEF740FC02B0DDF800E001B0B2
:0C328400704700BF00A006406C52000024
:1041800083B0CDF800E0024610460D228DF80820DD
:104190000A228DF809201FE0FFF7CEF823E002780D
:1041A0002AB10190FFF7C8F80198401CF7E71AE020
:1041B00002782AB10190FFF7BFF80198401CF7E799
:1041C00002AA1046FFF7B8F80DF109021046FFF7F2
:1041D000B3F808E0062007E00029DDD00129DED091
:1041E0000229E5D0F6E70020DDF800E003B07047D3
:1033380081B0CDF800E00178CCB2A0B2034C24688B
:10334800A0470020DDF800E001B07047F80CFF1F2F
:1031C00081B0CDF800E081B20348FEF7F1FADDF8F6
:0C31D00000E001B0704700BF00A0064006
:1017B00081B0ADF800100146BDF800000A1D137895
:1017C000C3F3C01202B9F9E7CA1D107001B0704727
:10316C0081B0CDF800E081B20348FEF71BFBDDF81F
:0C317C0000E001B0704700BF00B006404A
:1031880081B0CDF800E081B20348FEF70DFBDDF811
:0C31980000E001B0704700BF00C006401E
:1031A40081B0CDF800E081B20348FEF7FFFADDF804
:0C31B40000E001B0704700BF00D00640F2
:1032900081B0CDF800E081B20348FEF789FADDF88D
:0C32A00000E001B0704700BF00A00E402D
:101B800081B0CDF800E081B20348FFF711FEDDF827
:0C1B900000E001B0704700BF00B00E4044
:1042D40081B0CDF800E0332207490848FFF7AAFF70
:1042E400FFF734FF06480221FFF748FFFFF7DAFC27
:1042F400DDF800E001B07047C85400001C54000011
:044304000000FF1F97
:1042380081B0CDF800E00446054B1A700846FFF738
:10424800EFFD2046FFF700FEDDF800E001B0704703
:04425800F60CFF1F42
:103E2800026806490A60011D0A6805490A6000F22D
:103E380008010A6803490A60704700BF7037FF1F0E
:083E4800FC0CFF1F7437FF1F83
:023E50007047B9
:1041500081B0CDF800E00848FFF758FE074906484F
:10416000FFF708FE0320FFF7C3F8FFF79DFDDDF81A
:1041700000E001B0704700BFA437FF1F000DFF1F14
:103E0C0081B0CDF800E0024640F2403142F2004071
:0C3E1C00FDF72EFFDDF800E001B070475C
:101C7C00ADF2946DCDF800E0ADF88816CDF88C2659
:101C8C000DF1060B0BF5D06ADFF8ACC002F0ECFAE4
:101C9C00BDF888365B00ADF8903601AC030ADBB2B8
:101CAC002370641C00F0FF03DBB22370FFF7DAFC37
:101CBC0001AC224B1B7802222146D8B20023FFF73D
:101CCC0081FDFFF793FD0DF106041C4B1B78BDF84D
:101CDC0090262146D8B20123FFF752FD002188B28D
:101CEC00BDF88836984221D24500ADB2A9B2440065
:101CFC00DDF88C361C190DF1060673191B78238040
:101D0C004400DDF88C361C1923881B022380440008
:101D1C00DDF88C361D194B1C9BB2F3181C782B88E4
:101D2C0023432B80431C99B288B2D9E7DDF800E03D
:101D3C000DF2946D704700BFCC490000F60CFF1FEC
:1016700082B0CDF800E040F20004ADF80440064C22
:101680002468A047BDF9041041EA000000B2DDF86B
:0C16900000E002B0704700BF7037FF1F81
:1014E40081B0CDF800E00348FFF778FADDF800E0BA
:0814F40001B0704700600640E2
:1009E00084B0CDF800E04FF000024349884205D1C1
:1009F00042490C6842490968039115E0414988421F
:100A000006D141490A6841490968039114460BE03F
:100A10003F49884206D13F490A683F490968039126
:100A2000114600E011460C4601940290FFF746FF84
:100A30000298019C831C0122197862F345111970F8
:100A4000C11C0A78C2F30011C9B1C31C0122197874
:100A500062F304111970811D0A78C2F3001129B1E3
:100A6000831D0122197862F304111970C31C01223D
:100A7000197862F3410119704FF6FF7038E0234690
:100A8000019404460198E11C0A78C2F3400151B96F
:100A900040B123B90520039CA047012028E05A1E3D
:100AA0001346FFE7EFE7A11D0A78C2F3001129B151
:100AB000A31D0122197862F304111970E31C0122AD
:100AC000197862F34101197005462346D91C0A784A
:100AD000C2F3400159B148B125B90520039CA04794
:100AE000012005E0691E0A461546FFE7EEE70020F3
:100AF000DDF800E004B07047006006408400FF1F8E
:100B00007C37FF1F007006408800FF1F8037FF1FE3
:0C0B100000600E408C00FF1F8437FF1FA8
:0C059C0001490860704700BF0808FE43DA
:0C05A80001490860704700BF2C08FE43AA
:0C05900001490860704700BF1010FE43D6
:0C05780001490860704700BF1410FE43EA
:0C05840001490860704700BF1C10FE43D6
:0C05B40001490860704700BF1810FE43AA
:0C05E40001490860704700BF2800FE437A
:0C05F00001490860704700BF3408FE435A
:0C05D80001490860704700BF0818FE438E
:0C05C00001490860704700BF0C18FE43A2
:0C05CC0001490860704700BF2018FE4382
:0C05180001490860704700BF2418FE4332
:0C05240001490860704700BF0C08FE434E
:0C050C0001490860704700BF4C08FE4326
:0C05300001490860704700BF0C10FE433A
:0C05600001490860704700BF1410FE4302
:0C056C0001490860704700BF1C10FE43EE
:0C05540001490860704700BF1810FE430A
:0C053C0001490860704700BF2C00FE431E
:0C05480001490860704700BF2008FE4316
:0C09780001490860704700BF4010FE43BA
:0C09840001490860704700BF4410FE43AA
:0C096C0001490860704700BF2018FE43DE
:0C09540001490860704700BF2418FE43F2
:0C09600001490860704700BF1808FE4302
:0C09B40001490860704700BF2808FE439E
:0C09C00001490860704700BF0810FE43AA
:0C09A80001490860704700BF1410FE43B6
:0C09900001490860704700BF1C10FE43C6
:0C099C0001490860704700BF1810FE43BE
:0C06200001490860704700BF1000FE4355
:0C062C0001490860704700BF1C08FE4335
:0C06140001490860704700BF4010FE4321
:0C05FC0001490860704700BF4410FE4336
:0C06080001490860704700BF2018FE4345
:0C08B00001490860704700BF2418FE4397
:1008BC0082B0CDF800E04FF000021A49884205D111
:1008CC0019490B6819490968019115E018498842C2
:1008DC0006D118490A6818490968019113460BE0BA
:1008EC001649884206D116490A68164909680191C9
:1008FC00114600E011460B461D4604462046FFF704
:10090C0099FD50B943B11DB90720019CA04704E0E3
:10091C00691E08460546FFE7F0E7DDF800E002B087
:10092C00704700BF006006408400FF1F7C37FF1F2C
:10093C00007006408800FF1F8037FF1F00600E40CC
:08094C008C00FF1F8437FF1F20
:1004400081B0C11C0A78C2F3401181F00101C9B228
:06045000C8B201B07047C4
:1010700081B0CDF800E00348FFF7B2FCDDF800E0F6
:0810800001B07047007006404A
:1010580081B0CDF800E00348FFF7BEFCDDF800E002
:0810680001B0704700600E406A
:1011380081B0CDF800E00348FFF76AFEDDF800E073
:0811480001B0704700A0064051
:100E180081B0011D0A78C2F3401101B9F9E7C11D7B
:080E28000978C8B201B070475F
:1011200081B0CDF800E00348FFF76EFEDDF800E087
:0811300001B0704700A0064069
:0E0E080081B0011D0978C1F3401001B07047A0
:1011080081B0CDF800E00348FFF772FEDDF800E09B
:0811180001B0704700A0064081
:0E0DF80081B0011D0978C1F3801001B0704771
:100FE00081B0CDF800E00348FFF716FFDDF800E020
:080FF00001B0704700B006409B
:1010280081B0CDF800E00348FFF7EAFEDDF800E004
:0810380001B0704700B0064052
:1010400081B0CDF800E00348FFF7D6FEDDF800E000
:0810500001B0704700B006403A
:100FF80081B0CDF800E00348FFF70AFFDDF800E014
:0810080001B0704700C0064072
:1010100081B0CDF800E00348FFF7F6FEDDF800E010
:0810200001B0704700C006405A
:1011500081B0CDF800E00348FFF74EFEDDF800E077
:0811600001B0704700C0064019
:1013F00081B0CDF800E00348FFF70EFDDDF800E016
:0814000001B0704700D0064066
:1014080081B0CDF800E00348FFF7FAFCDDF800E012
:0814180001B0704700D006404E
:1013C00081B0CDF800E00348FFF716FDDDF800E03E
:0813D00001B0704700D0064097
:1013D80081B0CDF800E00348FFF71AFDDDF800E022
:0813E80001B0704700A00E40A7
:1014500081B0CDF800E00348FFF7D6FCDDF800E0EE
:0814600001B0704700A00E402E
:1014680081B0CDF800E00348FFF7C2FCDDF800E0EA
:0814780001B0704700A00E4016
:1014200081B0CDF800E00348FFF7F6FCDDF800E0FE
:0814300001B0704700B00E404E
:1014380081B0CDF800E00348FFF7E2FCDDF800E0FA
:0814480001B0704700B00E4036
:1013A80081B0CDF800E00348FFF722FDDDF800E04A
:0813B80001B0704700B00E40C7
:1017D00082B0CDF800E040F20004ADF80440054CC2
:1017E0002468A047BDF90440044320B2DDF800E0BE
:0817F00002B07047FC0CFF1F62
:1011B00081B0CDF800E008B413460A46C1B2044835
:1011C000FFF724FD01B0DDF800E001B0704700BF7B
:0411D0000060064075
:100C0C0087B0CDF800E005920246C8B20693079C67
:100C1C0007944FF000016C4CA24206D16B4C266835
:100C2C006B4C24680494314614E06A4CA24205D102
:100C3C00694C2668694C246804940AE0684CA2420A
:100C4C0006D1684C2168684C246804940E4600E078
:100C5C000E463146440001910292E1B21046FFF774
:100C6C00BDFD029A019920B91046FFF7DFFC002068
:100C7C00A5E000273B46069CA34216D2059CE4182F
:100C8C002478019202910393E1B21046FFF7A6FD7E
:100C9C00039B0299019A20B91046FFF7C7FC00206C
:100CAC008DE05C1C27463B46E5E7079C012C48D1B0
:100CBC000B461046C41C2578C5F3400464B141B101
:100CCC0023B90420049CA047012078E05A1E144646
:100CDC0000E01C462346EDE7861C0025347865F3BE
:100CEC00451434700A46C41C2578C5F340045CB91D
:100CFC0039B122B90420049CA04701205FE0531EA7
:100D0C0000E013461A46EEE7841D2578C5F300145F
:100D1C002CB1861D0125347865F304143470841DC0
:100D2C002578C5F380142CB1861D0125347865F324
:100D3C0086143470C61C0125347865F34104347074
:100D4C002AE0961C0125347865F3820434700B4636
:100D5C001046C41C2578C5F3400464B941B123B9CD
:100D6C000420049CA047012029E05A1E144600E0F0
:100D7C001C462346EDE7841D2578C5F300142CB1E1
:100D8C00861D0125347865F304143470C61C0125C6
:100D9C00347865F3410434700A46C41C2578C5F3D5
:100DAC0040045CB139B122B90420049CA047012055
:100DBC0005E0531E00E013461A46EEE70020DDF86E
:100DCC0000E007B0704700BF006006408400FF1FC2
:100DDC007C37FF1F007006408800FF1F8037FF1F05
:0C0DEC0000600E408C00FF1F8437FF1FCA
:1007E80082B0CDF800E04FF00003264A904205D1D0
:1007F800254A1568254A1268019215E0244A904254
:1008080006D1244A1368244A126801921D460BE057
:10081800224A904206D1224A1368224A126801925B
:100828001A4600E01A461546841C0123227863F311
:1008380004122270021D11702C462946C21C13781E
:10084800C3F340025AB949B124B90420019CA04716
:10085800012012E0621E13461C46FFE7EEE7C41CA7
:100868000123227863F341022270C21C1378C3F378
:10087800000282F00102D2B2D0B2DDF800E002B08C
:10088800704700BF006006408400FF1F7C37FF1FD1
:10089800007006408800FF1F8037FF1F00600E4071
:0808A8008C00FF1F8437FF1FC5
:1006380084B0CDF800E04FF000023549884205D17A
:1006480034490C6834490968039115E033498842F4
:1006580006D133490A6833490968039114460BE007
:100668003149884206D131490A68314909680391FC
:10067800114600E011460C46831C0022197862F3EB
:1006880045111970831C0022197862F3041119703E
:100698000194029000F00EF90298019C2346C11CB7
:1006A8000A78C2F3400151B944B123B90620039C2A
:1006B800A047012027E05A1E1346FFE7EFE7811DF8
:1006C8000A78C2F3801129B1831D0122197862F3D7
:1006D80086111970C31C0122197862F3410119703F
:1006E8002346C11C0A78C2F3400159B14CB123B961
:1006F8000620039CA047012005E0591E0A46134620
:10070800FFE7EEE70020DDF800E004B0704700BF27
:10071800006006408400FF1F7C37FF1F0070064002
:100728008800FF1F8037FF1F00600E408C00FF1FEE
:040738008437FF1FE4
:1011D40081B0CDF800E008B413460A46C1B2044811
:1011E400FFF712FD01B0DDF800E001B0704700BF69
:0411F4000070064041
:1011680081B0CDF800E008B413460A46C1B204487D
:10117800FFF748FD01B0DDF800E001B0704700BF9F
:0411880000600E40B5
:1017F80041F67E27C0F2060700BF00BF7F1EFDD15D
:0818080000BF00BF00BF7047E4
:10178C0082B0CDF800E040F20004ADF80440044C07
:10179C002468A047BDF90400DDF800E002B07047F2
:0417AC007437FF1F70
:10118C0081B0CDF800E008B413460A46C1B2044859
:10119C00FFF7BEFC01B0DDF800E001B0704700BF06
:0411AC000060064099
:100B1C0085B0CDF800E08DF8041001469DF8040076
:100B2C0003920493059C05944400A4B244F0010480
:100B3C0001910846E1B2FFF751FE019918B9084638
:100B4C00FFF774FD58E08E1C0025347865F304140F
:100B5C003470049C012C06D18E1C0125347865F36D
:100B6C00C304347005E08E1C0025347865F3C3048F
:100B7C00347001910846FFF7DBFD0199049C621E5D
:100B8C00002A34DB15E0019102920846FFF74EFD76
:100B9C00029A019912E08E1C0125347865F3C30486
:100BAC0034700BE08E1C0025347865F3C30434706C
:100BBC0004E0002AE7D0012AEDD0F3E73AB90C1D86
:100BCC002578039C2570039C641C03940BE0019115
:100BDC0002920846FFF7ACFD029A0199039C207023
:100BEC00039C641C0394541E23461A46C8E7059CB8
:100BFC0014B90846FFF7EEFEDDF800E005B07047CB
:10073C0082B0CDF800E04FF000021F49884205D18D
:10074C001E490B681E490968019115E01D49884234
:10075C0006D11D490A681D490968019113460BE031
:10076C001B49884206D11B490A681B49096801913B
:10077C00114600E011460B46011D0C781D46C11CAC
:10078C000A78C2F3400159B94BB125B90320019C39
:10079C00A04701200BE0691E0A461546FFE7EEE76D
:1007AC00C31C0122197862F341011970E0B2DDF823
:1007BC0000E002B0704700BF006006408400FF1FDD
:1007CC007C37FF1F007006408800FF1F8037FF1F1B
:0C07DC0000600E408C00FF1F8437FF1FE0
:1013600081B0CDF800E008B413460A46C1B2044883
:10137000FFF7D4FB01B0DDF800E001B0704700BF1B
:0413800000700640B3
:1013840081B0CDF800E008B413460A46C1B204485F
:10139400FFF7C2FB01B0DDF800E001B0704700BF09
:0413A40000600E4097
:103D740084B0CDF800E0029003910298FDF76EFF45
:103D8400ADF80400C8BB03990298FDF7DDFF039961
:103D94000298FEF70BF803990298FDF7DDFE0399EC
:103DA4000298FDF7F9FE03990298FDF74BFF03997A
:103DB4000298FDF71BFF03990298FEF7D9FD0399BA
:103DC4000298FEF70DFC03990298FEF78FFE039903
:103DD4000298FFF7B7F803990298FEF7F9FF0399E1
:103DE4000298FEF721F903990298FEF75FF8039908
:103DF4000298FEF777FAADF80400BDF90400DDF887
:063E040000E004B070476D
:101C600000F21401098801F0400109B211B9002005
:0C1C700000B202E04FF6F97000B27047BD
:101D4C0000F26602128802F47F4292B2120A13B2B7
:101D5C0012B27F2A04DDA3F5807213B21AB200E02E
:101D6C001AB2530100F26602128802F0FF0212B29C
:101D7C00A2F5807212B2520112B2A2F5005210B248
:081D8C000B808A1C10807047D7
:101DB00082B0CDF800E00E4600F26402128802F410
:101DC0007C4292B2920A92B200EE902AF8EE600A39
:101DD000B0EE601AB3EE0F0AF4EEC00AF1EE10FA9C
:101DE00006DD4FF0854200EE102A71EE400A01E058
:101DF000F0EE410A4FF08B4200EE102A80EE800A8E
:101E0000B0EE403A00F26402138840F2FF3203EA77
:101E1000020292B200EE902AF8EE600AB0EE601A6A
:101E2000224A00EE102AF4EEC00AF1EE10FA06DDA6
:101E30004FF0894200EE102A71EE400A01E0F0EE08
:101E4000410AB2EE000A80EE800AF0EE403A00F25B
:101E50006202128817B200F22002128802F4704265
:101E6000ADF80420F2EE0C0AB0EE000AFFF716FC03
:101E7000BDF8042000EE902AF8EE600AC0EE800A59
:101E8000B2EE000A30EE800A321D02ED003A06F290
:101E9000080242ED003A06F20C02178006F2100228
:101EA00002ED000ADDF800E002B070470080FF4359
:10169C0082B0CDF800E0F0EE402AB0EE602A0020D7
:1016AC00B5EEC02AF1EE10FA02D1B7EE000A3EE018
:1016BC00F5EEC02AF1EE10FA04D14FF0000200EE64
:1016CC00102A34E0F5EEC02AF1EE10FA1BDABDEE6A
:1016DC00420A10EE102A104600EE102AB8EEC00A8C
:1016EC00B4EEC20AF1EE10FA04D04FF0000200EE94
:1016FC00102A1CE000F00102D0B2F1EE620AC5B271
:10170C00B0EE600A05E08DF80400B0EE620A9DF8B8
:10171C000450FFF76BFD20EE020AFFF7A1FDF0EE7F
:10172C00400A15B1B1EE600A01E0B0EE600ADDF8D6
:06173C0000E002B070475E
:1011F80082B0CDF800E0B5EEC00AF1EE10FA04DCDA
:101208004FF0000100EE101A23E001A90846FFF78D
:101218000BFEF0EE000A60EE200AB7EE000A30EE90
:10122800C00ABDF90410491EADF8041040F20801C7
:1012380009B20A48FFF714FEBDF9041001EE101AAE
:10124800B8EEC11A064900EE901A60EE810A30EE37
:10125800200ADDF800E002B0704700BFA454000087
:041268001872313F88
:100E300081B00DED000ABDF80210C1F3C7117E3973
:100E400009B201807E22BDF8021062F3CE11ADF826
:0A0E500002101DED000A01B070470A
:100E680081B0F0EE400A8A00821812ED000AB0EE56
:100E7800401AB0EE410AB0EE601A79B161EE000A8C
:100E88004A1E12B211B29200821812ED000A30EE18
:100E9800800A0DED000A1DED000AEEE701B070476B
:10126C0081B0CDF800E0F0EE401AF5EEC01AF1EEC8
:10127C0010FA02D1B7EE000A5DE0314900EE101A07
:10128C00F4EEC01AF1EE10FA03DD2E4900EE101A3E
:10129C0051E02D4900EE101AF4EEC01AF1EE10FADE
:1012AC0004DA4FF0000100EE101A44E0F5EEC01A1B
:1012BC00F1EE10FA40F2000100DA0121CBB2C9B212
:1012CC0011B1F1EE610A01E0F0EE610A1F4900EE86
:1012DC00101A20EE800AF0EE401AFFF73BFEBDEE2E
:1012EC00400A10EE101A09B20CB200EE101AB8EE49
:1012FC00C00A31EEC00A40F2090109B21448FFF7E6
:10130C00ADFD20B2FFF7CAFDF0EE400A8BB10D49DE
:10131C0000EE101AF4EEC00AF1EE10FA04D14FF000
:10132C00000100EE101A06E0B7EE000A80EE200A6B
:10133C0001E0B0EE600ADDF800E001B0704700BFDC
:10134C00FED4B242FFFF7F7F50ACAEC23BAAB83F87
:04135C007C540000BD
:100F600081B00DED000A00A90968C90D01F0FF016B
:100F700009B27F3909B208B200290EDA1DED000A64
:100F8000B5EEC00AF1EE10FA02DABFEE000A24E074
:100F90004FF0000100EE101A1FE081B2182902D9AB
:100FA0001DED000A19E01DED000ABDEE400A10EE2D
:100FB000101A00EE901AF8EEE00AB0EE601A1DED7D
:100FC000000AF4EEC00AF1EE10FA04DDB7EE000AF2
:0E0FD00031EE400A01E0B0EE410A01B0704778
:100EA80081B00DED000ABDF80210C1F3C711411859
:100EB80008B209B2002904DA4FF0000100EE101A56
:100EC80019E0B0F1FF0F0DDDB5EEC00AF1EE10FA32
:100ED80004DA6FF4000100EE101A0CE0074900EE86
:100EE800101A08E082B2BDF8021062F3CE11ADF814
:100EF80002101DED000A01B0704700BFFFFF7F7FA1
:101B5C0000F26002128810B213B247F6FF72934281
:101B6C0003DDA0F5803210B2FFE701F21402108001
:021B7C007047B0
:101B9C0000F27802128802F0FF0292B200EE902A54
:101BAC00F8EE600AB0EE601A0D4A00EE102AF4EE60
:101BBC00C00AF1EE10FA06DD4FF0874200EE102A53
:101BCC0071EE400A01E0F0EE410A4FF0844200EE63
:101BDC00102A80EE800A01F2180202ED000A70470A
:041BEC000000FE42B5
:101C480000F27002128802F4405292B2120B01F2B2
:081C58002403D2B21A70704798
:101BF00000F27802128802F47F4292B2120A92B284
:101C000000EE902AF8EE600AB0EE601A0D4A00EE7F
:101C1000102AF4EEC00AF1EE10FA06DD4FF087420A
:101C200000EE102A71EE400A01E0F0EE410A4FF09A
:101C30008C4200EE102A80EE800A01F2280202EDAA
:081C4000000A70470000FE429B
:1029740000F27E02128802F4405292B2130B9BB210
:102984000A225A4356B201F23C034FF6D87212B2ED
:102994001A8001F23C02931C002212B21A8001F246
:1029A4003C02131D00F27E02128802F0F00292B281
:1029B40012091A8001F23C02931D00F27E02128871
:1029C40002F4706292B2120A1A8001F23C02131DE0
:1029D400121DB2F9002072431A8001F23C05AC1DAD
:1029E4002A1DB2F90030AA1DB2F90020724312B2B6
:1029F4009A1822800F231BB2012212B29A4014B2F9
:102A040001F22C0300F27A02128802F0FF0292B261
:102A140000EE102AB8EE400A03ED000A01F22C027F
:102A2400131D00F27A02128802F47F4292B2120A53
:102A340092B200EE102AB8EE400A03ED000A01F249
:102A44002C0202F2080300F27C02128802F0FF0258
:102A540092B200EE102AB8EE400A03ED000A01F229
:102A64002C0202F20C0300F27C02128802F47F4270
:102A740092B2120A92B200EE102AB8EE400A03EDA6
:102A8400000A00252DB220B2042D2CDA01F22C0309
:102A9400AA009A1852ED000A134A00EE102AF4EE26
:102AA400C00AF1EE10FA0DDD01F22C03AA009C1805
:102AB40054ED000A4FF0874200EE102A30EEC00AAF
:102AC40004ED000A01F22C03AA009B1853ED000A3E
:102AD40000EE100AB8EEC00A80EE800A03ED000A88
:0C2AE4006D1C2DB2D0E770470000FE42D0
:1025E400A7B0CDF800E01E901F911E9A40321288C9
:1025F40002F00F02D7B21E9A4032128802F0F002A3
:1026040092B212098DF875201E9A4032128802F493
:10261400706292B2120A8DF874201E9A40321288A7
:1026240002F4704292B2120B92B21E32D1B21E9ACE
:102634004232108840F200090FFA89F90FFA89F63C
:10264400062E4ADAB20012B2ADF8802001AD520073
:10265400AC1806F2220212B253001E9AD218128843
:1026640002F00F022280BDF98020521C12B25200E7
:10267400AC1806F2220212B253001E9AD218128823
:1026840002F0F00292B212092280BDF98020921C5D
:1026940012B25200AC1806F2220212B253001E9A71
:1026A400D218128802F4706292B2120A2280BDF922
:1026B4008020D21C12B25200AC1806F2220212B2CE
:1026C40053001E9AD218128802F4704292B2120B6E
:1026D4002280721C12B216B2B2E7002424B2CDB228
:1026E4005FFA87F8182C11DA01AB62009A18B2F974
:1026F4000020072A06DD01AB62009B18B3F9002015
:10270400103A1A80621C12B214B2EBE740F2000ACB
:102714000FFA8AFAE9B20FFA8AF6082E4ADAB200F8
:1027240012B2ADF880200DAD5200AC1806F22802AA
:1027340012B253001E9AD218128802F00F0222809D
:10274400BDF98020521C12B25200AC1806F22802C5
:1027540012B253001E9AD218128802F0F00292B2FA
:1027640012092280BDF98020921C12B25200AC18CA
:1027740006F2280212B253001E9AD218128802F4EA
:10278400706292B2120A2280BDF98020D21C12B269
:102794005200AC1806F2280212B253001E9AD21844
:1027A400128802F4704292B2120B2280721C12B28E
:1027B40016B2B2E740F2000B0FFA8BFB0FFA80FC63
:1027C400CDB25FFA88F40FFA8BF6202E10DA0DAB37
:1027D40072009A18B2F90020072A06DD0DAB7200C8
:1027E4009B18B3F90020103A1A80721C16B2ECE759
:1027F400002000B2EBB20FFA8CF1182880F2B380FB
:10280400002636B207B20FFA81FC5FFA83FB5FFA47
:1028140084F8202E80F29E807A0112B295192DB28E
:10282400ADF880501F9A02F24403AA009C1805F2E6
:10283400400212B253001E9AD218128802F47C721B
:1028440092B2120992B200EE102AB8EE400A04EDD8
:10285400000A1F9A02F24403BDF9802092009A18DC
:1028640052ED000AB3EE0F0AF4EEC00AF1EE10FACC
:1028740010DD1F9A02F24403BDF9802092009C18D7
:1028840054ED000A4FF0854200EE102A30EEC00AE3
:1028940004ED000A1F9A02F24403BDF9802092005D
:1028A4009C1854ED000A012212B202FA08F212B284
:1028B40000EE102AB8EEC00A20EE800A04ED000AE9
:1028C4001F9A02F24403BDF9802092009D1801ABC7
:1028D4007A009A18B2F900309DF8742003FA02F2D3
:1028E40012B20CEB020424B20DAB72009A18B2F9C6
:1028F40000309DF8752003FA02F212B2A21812B247
:1029040000EE902AF8EEE00A15ED000A30EE800A97
:1029140005ED000A1F9A02F24403BDF980209200DB
:102924009A18269212ED000A8DED250A00EE10BACF
:10293400B8EE400AF0EE400AB0EE000AFEF7ACFE34
:10294400DDED250A80EE800A269A02ED000A721C4B
:1029540016B25EE77A1C10B25FFA88F45FFA8BF362
:0E2964000FFA8CF149E7DDF800E027B070476C
:102AF0009CB000F22002128802F00F02D6B200F25F
:102B00002002128802F0F00292B21209D5B200F24D
:102B10002002128802F4706292B2120AD4B200F259
:102B20002202128817B213B247F6FF72934204DDF5
:102B3000A7F5803213B21AB200E03AB240F20009AF
:102B40000FFA89F9804610B20F46E1B2B9F1060FCB
:102B500049DA4FEA890212B20FFA82FA00AC520047
:102B6000A31809F1120212B2520008EB02021288F5
:102B700002F00F021A800AF1010212B25200A318E9
:102B800009F1120212B2520008EB0202128802F09E
:102B9000F00292B212091A800AF1020212B2520035
:102BA000A31809F1120212B2520008EB02021288B5
:102BB00002F4706292B2120A1A800AF1030212B28F
:102BC0005200A31809F1120212B2520008EB0202DD
:102BD000128802F4704292B2120B1A8009F10109B4
:102BE0000FFA89F9B2E7002424B2182C10DA00ABEE
:102BF00062009A18B2F90020072A06DD00AB6200D5
:102C00009B18B3F90020103A1A80641C24B2ECE738
:102C100040F200090FFA89F9B9F1080F49DA4FEAD1
:102C2000890212B20FFA82FA0CAC5200A31809F111
:102C3000180212B2520008EB0202128802F00F02D0
:102C40001A800AF1010212B25200A31809F1180207
:102C500012B2520008EB0202128802F0F00292B2A5
:102C600012091A800AF1020212B25200A31809F1E5
:102C7000180212B2520008EB0202128802F47062CB
:102C800092B2120A1A800AF1030212B25200A31879
:102C900009F1180212B2520008EB0202128802F483
:102CA000704292B2120B1A8009F101090FFA89F9E8
:102CB000B2E7002212B2F4B2CEB2394607B24046B1
:102CC0000FFA82F8B8F1200F14DA0CAB4FEA480281
:102CD0009A18B2F90020072A07DD0CAB4FEA480228
:102CE0009B18B3F90020103A1A8008F101080FFA76
:102CF00088F8E7E740F2000A0FFA8AFA5FFA86F8E6
:102D0000E6B20FFA87F9EFB2BAF1180F60DA40F2C3
:102D1000000B0FFA8BFBBBF1200F54DA4FEA4A127B
:102D200012B202EB0B0424B225B201F64443620056
:102D30009B1804F2400212B252008218128802F468
:102D40007C4292B2920A1A8001F644436A009A18B1
:102D5000B2F900201F2A07DD01F644436A009B18E0
:102D6000B3F90020403A1A8001F644436A009C18E7
:102D7000B4F90030012212B2B24012B25A4322809A
:102D800001F644436A009D1800AB4FEA4A029A18C4
:102D9000B2F9002002FA08F212B209EB020424B2DE
:102DA0000CAB4FEA4B029A18B2F90020BA4012B2AB
:102DB000A3181BB2B5F900209A182A800BF1010B59
:102DC0000FFA8BFBA7E70AF1010A0FFA8AFA9BE7D1
:042DD0001CB070477C
:102F480084B0CDF800E000F26C02128802F47F42EF
:102F580092B2120A53B252B27F2A03DDA3F58072ED
:102F680053B2FFE701AA137000F26C02128802F054
:102F7800FF0253B252B27F2A03DDA3F5807253B227
:102F8800FFE701AA921C137000F26E02128802F485
:102F98007F4292B2120A53B252B27F2A03DDA3F5DE
:102FA800807253B2FFE701AA521C137000F26E023E
:102FB800128802F0FF0253B252B27F2A03DDA3F552
:102FC800807253B2FFE701AAD21C137000F270029C
:102FD800128802F0F00292B2120992B208325FFA35
:102FE80082F800F27002128802F00F025FFA82F98A
:102FF80040F2000A0FFA8AFA06460F46BAF1180F8D
:1030080080F2AB8040F2000B0FFA8BFBBBF1200F74
:1030180080F29E804FEA4A1212B202EB0B052DB2E3
:103028000FFA85FC202212B295FBF2F31BB2402264
:1030380012B295FBF2F212B2520012B29A1A12B2FE
:10304800540024B202231BB295FBF3F203FB125285
:1030580012B2A218D0B241F24422BB18AA009B189F
:1030680005F2400212B25200B218128802F00E02A3
:1030780092B2520892B200EE102AB8EE400A03ED5E
:10308800000A41F24422BB184FEA8C029A1852ED0A
:10309800000AB0EE080AF4EEC00AF1EE10FA0DDDEF
:1030A80041F24422BB184FEA8C029B1853ED000AE8
:1030B800B2EE000A30EEC00A03ED000A41F24422E3
:1030C800BB184FEA8C029C1854ED000A012212B278
:1030D80002FA09F212B200EE102AB8EEC00A20EE87
:1030E800800A04ED000A41F24422BB184FEA8C0220
:1030F8009C1801AA121892F9002000EE902AF8EE06
:10310800E00A14ED000A30EE800A04ED000A41F2EC
:103118004422BB184FEA8C029A18039212ED000A57
:103128008DED020A00EE108AB8EE400AF0EE400A71
:10313800B0EE000AFEF7AEFADDED020A80EE800A74
:10314800039A02ED000A0BF1010B0FFA8BFB5DE706
:103158000AF1010A0FFA8AFA50E7DDF800E004B034
:023168007047AE
:102DD40084B0CDF800E000F26802128802F4704278
:102DE40092B2120B53B252B2072A03DDA3F21002BD
:102DF40053B2FFE701AA137000F26802128802F4CA
:102E0400706292B2120A53B252B2072A03DDA3F2DD
:102E1400100253B2FFE701AA921C137000F2680279
:102E2400128802F0F00292B2120953B252B2072A87
:102E340003DDA3F2100253B2FFE701AA521C137080
:102E440000F26802128802F00F0253B252B2072A4B
:102E540003DDA3F2100253B2FFE701AAD21C1370E0
:102E640000F27002128802F4706292B2120A5FFADF
:102E740082F840F200090FFA89F90F46B9F1180FE8
:102E84005BDA40F2000A0FFA8AFABAF1200F4FDA3D
:102E94004FEA491212B202EB0A0636B230B22022CD
:102EA40012B296FBF2F31BB2402212B296FBF2F27C
:102EB40012B2520012B29A1A12B2540024B202236D
:102EC4001BB296FBF3F203FB126212B2A5182DB2E9
:102ED40041F64462BB18B2009C1801ABEAB29A18DE
:102EE40092F9002000EE102AB8EEC00A04ED000AA0
:102EF40041F64462BB1882009A18039212ED000A4C
:102F04008DED020A00EE108AB8EE400AF0EE400A97
:102F1400B0EE000AFEF7C0FBDDED020A80EE800A87
:102F2400039A02ED000A0AF1010A0FFA8AFAACE7E1
:102F340009F101090FFA89F9A0E7DDF800E004B00E
:022F44007047D4
:10202C0086B0CDF800E006460F4606F24002128854
:10203C0002F4704292B2120B92B21B32D0B203ACC9
:10204C0006F27402138840F2FF3203EA0202228085
:10205C00B4F9003040F2FF12934205DD03ABB3F943
:10206C000020A2F580621A8003ACA31C06F2740255
:10207C00128802F47C4292B2920A1A80A21CB2F923
:10208C0000201F2A06DD03AA931C921CB2F9002023
:10209C00403A1A8003ADAC1CAA1CB2F90030B5F959
:1020AC0000209A18228001AC06F27202138840F2CA
:1020BC00FF3203EA020292B200EE102AB8EE400A96
:1020CC0004ED000A54ED000A824A00EE102AF4EEE8
:1020DC00C00AF1EE10FA0ADD01AB53ED000A4FF025
:1020EC00894200EE102A30EEC00A03ED000A01AB63
:1020FC001A46059213ED000A8DED040A00EE100A43
:10210C00B8EE400AF0EE400AB0EE000AFFF7C0FA53
:10211C00DDED040A80EE800A059A02ED000A01AC9E
:10212C00231D06F27202128802F47C4292B2920AC9
:10213C0092B200EE102AB8EE400A03ED000A221DFE
:10214C0052ED000AB3EE0F0AF4EEC00AF1EE10FAEB
:10215C000CDD01AA131D121D52ED000A4FF0854231
:10216C0000EE102A30EEC00A03ED000A01AC231D6C
:10217C00221D52ED000A4FF0864200EE102AC0EEEE
:10218C00800AB7EE000A70EE200A14ED000A20EE69
:10219C00800A03ED000A06F27602128802F0FF02B2
:1021AC0092B200EE902AF8EE600AB0EE601A4A4A3B
:1021BC0000EE102AF4EEC00AF1EE10FA0ADD4FF030
:1021CC00874200EE102A31EE400AF0EE400AB0EEE3
:1021DC00603A01E0B0EE413A06F27002128802F069
:1021EC00F00292B2120992B202F208039BB207F209
:1021FC002002049200EE103AB8EE400AF0EE400ACB
:10220C00B0EE000AFFF744FA83EE000A049A02EDDE
:10221C00000A06F27602128802F47F4292B2120A87
:10222C0092B200EE902AF8EE600AB0EE601A2A4ADA
:10223C0000EE102AF4EEC00AF1EE10FA0ADD4FF0AF
:10224C00874200EE102A31EE400AF0EE400AB0EE62
:10225C00603A01E0B0EE413A06F27002128802F4E4
:10226C00706292B2130A9BB207F21C02049200EE47
:10227C00103AB8EE400AF0EE400AB0EE000AFFF752
:10228C0007FA83EE000A049A02ED000A42F6442291
:10229C00BB1801AC14ED000A03ED000A42F644220F
:1022AC00BA18131D221D12ED000A03ED000A42F6A6
:1022BC004C22BB1803ACB4F900201A8042F64C2215
:1022CC00BA18931CA21CB2F900201A80DDF800E0A9
:0C22DC0006B070470080FF430000FE4287
:101EB00083B000F21402128802F4006292B2120996
:101EC000D2B282F08002D5B200AB00F26A02128870
:101ED00002F03F0292B200EE102AB8EE400A03ED83
:101EE000000A53ED000AB3EE0F0AF4EEC00AF1EE59
:101EF00010FA0ADD00AB53ED000A4FF0854200EE08
:101F0000102A30EEC00A03ED000A00AC54ED000ABE
:101F1000B3EE000A80EE800A04ED000A231D00F2F1
:101F20006A02128802F4F86292B2920992B200EE4A
:101F3000102AB8EE400A03ED000A221D52ED000AF5
:101F4000B2EE0E0AF4EEC00AF1EE10FA0CDD00AAB1
:101F5000131D121D52ED000A4FF0844200EE102AAC
:101F600030EEC00A03ED000A00AC231D221D52ED25
:101F7000000AB0EE000A80EE800A03ED000A04F2C7
:101F8000080300F26A02128802F4784292B2D20A7E
:101F900092B200EE102AB8EE400A03ED000A04F2F5
:101FA000080252ED000AB2EE0E0AF4EEC00AF1EE9B
:101FB00010FA0DDD00AA02F20803083252ED000A01
:101FC0004FF0844200EE102A30EEC00A03ED000A02
:101FD00000AC04F2080304F2080252ED000AB2EE6B
:101FE000000A80EE800A03ED000A01F22502157056
:101FF00042F650228B1814ED000A03ED000A42F657
:1020000050228A18131D221D12ED000A03ED000A4A
:1020100042F650228A1802F2080304F2080212ED76
:0A202000000A03ED000A03B0704748
:1022E80082B0CDF800E040F2000640F2000240F271
:1022F80000031BB20027054690B20C4619B2052F01
:1023080012D242F65C22A3187A009B184FF6FF728D
:102318001A8042F66622A3187A009B184FF6FF72BD
:102328001A807F1CBFB2EAE7002287B220462C46FB
:1023380095B2B5F5407F2AD2052E28D2052F26D290
:1023480005F2400292B25200A218128842B942F62F
:102358005C22831872009A181580761CB6B213E0B6
:1023680005F2400292B25200A218128802F001024D
:1023780092B24AB142F6662283187A009A181580FA
:102388007A1C93B29FB2FFE76D1CADB2D1E7042E61
:1023980003D94FF6FD7000B291E0042F03D94FF630
:1023A800FC7000B28BE0F21992B2042A03D94FF6FE
:1023B800FB7000B283E000221FFA87F8B7B2064626
:1023C80090B2B8421FD2451C2DB21FFA80F9BD4207
:1023D80015D242F65C22B4186A00A218128893B289
:1023E8004FEA4902A218128899B290B2FFF7A6F9EB
:1023F80001B208B108B262E06D1C2DB2E7E709F13D
:10240800010080B2DDE7002001961FFA88F6DDF8AA
:102418000480B04220D2451C2DB21FFA80F9B54283
:1024280016D242F6662208EB02046A00A218128845
:1024380093B24FEA4902A218128899B290B2FFF7F4
:102448007DF901B208B108B239E06D1C2DB2E6E79A
:1024580009F1010290B2DCE740F20009ADF804602E
:102468004546BEB208B2BDF80470B14527D240F265
:1024780000080FFA88F8B8451CD242F66622AB1855
:102488004FEA48029A18128894B242F65C22AB18B6
:102498004FEA49029A181288A1B290B2FFF74EF992
:1024A80001B208B108B20AE008F101080FFA88F889
:1024B80008B2E0E709F101091FFA89F9D5E7DDF863
:0624C80000E002B07047C5
:10174400421A10B213B26FF02102934207DD6FF018
:101754001D02904203DA4FF6FA7000B213E06FF004
:101764000102904205DD022803DA4FF6FA7000B256
:1017740009E01E2805DD222803DA4FF6FA7000B2CC
:0817840001E0002000B27047F3
:1032F00082B0CDF800E000F00701C9B2C901ADF815
:10330000061001A90A46012148F20D00FEF7B6FC9D
:10331000BDF804204FF67F410A4092B2BDF9061075
:1033200042EA010189B248F20D00FFF735F9DDF8F4
:0633300000E002B070474E
:1025980082B0CDF800E001AC020AD2B22270631C0E
:1025A80000F0FF02D2B21A70A31C0A0AD2B21A7043
:1025B800E31C01F0FF02D2B21A70FFF755F801AB25
:1025C800054A127819460123D0B20422FFF7FCF815
:0C25D800DDF800E002B07047F60CFF1FB9
:103CA80040F6FE07C0F23D0700BF00BF7F1EFDD1F2
:083CB80000BF00BF00BF704710
:1043080081B0CDF800E02F492F48FFF7BFFD2F48B7
:104318000121FFF731FF2C4810ED000A2C48FFF768
:104328001DFE02212A48FFF727FF2A480221FFF72E
:1043380023FF29480221FFF71FFF0021274801809A
:1043480026480088B0F5407F29D22448008881009B
:104358001C48401810ED000A1D48FFF7FFFD00211A
:104368001F48017001211A48FFF706FF1D48012167
:10437800FFF702FFFFF7C8FD1848008800F01F008C
:1043880080B238B915480088002803D91648022198
:10439800FFF7F2FE11490888401C0880D0E713484F
:1043A8000221FFF7E9FE42F6FE47C0F2311700BFCF
:1043B80000BF7F1EFDD100BF00BF00BFDDF800E0D9
:1043C80001B070479000FF1F3000FF1F3400FF1F2F
:1043D800900CFF1F4B00FF1F4D00FF1FF40CFF1F29
:1043E800950CFF1F7400FF1F7600FF1F7800FF1F4A
:103E940085B0CDF800E0039004914FF0000200EEED
:103EA400102A174A02920022ADF80420BDF804201B
:103EB400022A1DD21348FFF701FF13491148FFF7E7
:103EC4006DFAF2EE000A30EE600AF0EE405A049AFF
:103ED400F0EE400A9DED020A0B490A48FFF7E0FAAA
:103EE400BDF80420521CADF80420B0EE650ADDE7ED
:103EF400039A02ED000ADDF800E005B0704700BF48
:0C3F04003333733F243EFF1F000DFF1FEE
:103CC00084B0CDF800E0039000218DF808100021A9
:103CD00061B90DF106010A46012148F20000FDF725
:103CE000CDFFBDF8061001F00801F1E788B210B36E
:103CF0009DF8081005291ED2302148F20000FEF779
:103D00004BFC039A40F2403140F20040FDF7B6FF11
:103D10000DF106010A46012148F20000FDF7AEFF51
:103D2000BDF8061001F0080188B29DF80810491C82
:103D30008DF80810DBE701A90A46012148F20D00C1
:103D4000FDF79CFF039901F5D062BDF804101180C6
:103D5000039901F28262BDF8061001F001011180A1
:103D6000039901F28261098808B2DDF800E004B02D
:023D700070479A
:1033A00082B0CDF800E08146884641464846FFF7A6
:1033B0008FF8B0EE403A09F5C862128800EE902A04
:1033C000F8EE600AB0EE601A344A00EE102AF4EE0D
:1033D000C00AF1EE10FA06DD4FF08F4200EE102A1F
:1033E00031EE401AFFE709F5C062128800EE902A1C
:1033F000F8EE600AF0EE601A284A00EE102AF4EEA9
:10340000C00AF1EE10FA06DD4FF08F4200EE102AEE
:1034100071EEC00A01E0F0EE610A08F1100212ED4F
:10342000000A21EE000A30EE200A81EE000A8DED3E
:10343000010AF3EE020AB0EE000AFEF72FF9DDED05
:10344000010A20EE801A08F10403154A00EE102A42
:1034500073EE400A13ED000A60EE200AB7EE000A90
:1034600030EE200AC1EE000A08F10C02128800EECC
:10347000102AB8EE400A70EEC00A08F1080212EDF8
:10348000000AC0EE800AB3EE090A30EE800AB0EE00
:10349000400ADDF800E002B0704700BF00FEFF46C2
:0434A000333353402F
:1024D00082B0CDF800E00E4600F25462128800EEA1
:1024E000902AF8EE600AB0EE603A294A00EE102A0F
:1024F000F4EEC00AF1EE10FA06DD4FF08F4200EE66
:10250000102A33EE403AFFE700F5D062128802F459
:10251000406292B2920A17B206F22402127800EEDA
:10252000102AB8EE400AF0EE400AB0EE000AFFF7BB
:10253000B5F88DED010A00EE107AB8EEC00AF0EEA3
:10254000400AB0EE000AFFF7A9F8DDED010A80EEBF
:10255000800A60EE030AB21CB2F9002000EE102AD5
:10256000B8EEC00A70EEC00A3246B2F9002000EEA2
:10257000102AB8EEC00AC0EE800A064A00EE102A01
:1025800030EE800AB0EE400ADDF800E002B070479D
:0825900000FEFF463333534007
:1034A4008FB0CDF800E082468B46F0EE403AF0EE65
:1034B400604A94460AF282631B8898B2ADF804000D
:1034C40059465046FFF702F8BDF80400B0EE404AF2
:1034D400ADF8040059465046FFF760FFBDF80400FC
:1034E400B0EE403AF34B00EE903A30EE200AADF8DD
:1034F4000400F1EE000AFEF7CFF8BDF80400B0EEC8
:10350400405AEC4B00EE103A34EE800AADF8040059
:10351400F1EE000AFEF7C0F8BDF8040070EE450AAB
:10352400C0EEA30A70EE602A0AAE0BF12C0353ED31
:10353400000AE14B00EE103A60EE800AB7EE000A92
:1035440070EE200AB7EE000A80EE200A06ED000AAB
:10355400331DB7EE000A03ED000A06F208050BF16D
:103564002C0303F208040BF13C031B1DB3F90030D8
:1035740000EE903AF8EEE00A14ED000A60EE200A3C
:10358400B7EE000A30EE200A05ED000A06F20C0739
:1035940006F2080313ED001A0BF12C0303F20C06D8
:1035A4000BF13C05AB1DB3F900402B1DB3F9003002
:1035B400E31A1BB200EE903AF8EEE00A16ED000AA8
:1035C40060EE200AB7EE000A30EE200A21EE000A6F
:1035D40007ED000A0AF214631B8800EE903AF8EE35
:1035E400600AB0EE601AB54B00EE103AF4EEC00A71
:1035F400F1EE10FA06DD4FF08F4300EE103A71EE53
:10360400400A01E0F0EE410A0BF11403B3F9003073
:1036140002EE103AB8EEC22A82EE202A0AF5D063EE
:103624001B8803F480539BB25B09D9B205AC0AF53D
:10363400C2631B8800EE103AB8EE400A04ED000A9B
:10364400241D0AF5CA631B8800EE103AB8EE400A3E
:1036540004ED000A002636B2ADF804608DF80610B9
:10366400F0EE443AB0EE634A5746D846624681B219
:103674009DF80600BDF90460022E31DA05ACB300F2
:10368400E31853ED000A8D4B00EE103AF4EEC00A35
:10369400F1EE10FA0CDD05ACB300E51855ED000AA7
:1036A4004FF08F4300EE103A30EEC00A05ED000AE9
:1036B40005ACB300E41814ED000A20EE020A04ED90
:1036C400000A761C36B2ADF804608DED024ACDEDE9
:1036D400033ADDED033A9DED024ABDF90460CBE700
:1036E40005AD55ED001A42F64C2308EB03031C46C6
:1036F40008F12003B3EE090A73EE400A13ED000A41
:1037040060EE200AB7EE000A70EE200AB4F9003029
:1037140000EE103AB8EEC00A20EE201A08F11C049C
:10372400674B00EE103A73EEC00A14ED000A60EE27
:10373400200AB7EE000A30EE200A21EE000A31EE2C
:10374400C00A05ED000A08F125031B78984235D11B
:1037540005AB1D1D1B1D53ED001A42F64C2308EB4F
:1037640003039C1C08F12003B3EE090A73EE400A1C
:1037740013ED000A60EE200AB7EE000A70EE200A8C
:10378400B4F9003000EE103AB8EEC00A20EE201A68
:1037940008F11C044A4B00EE103A73EEC00A14ED13
:1037A400000A60EE200AB7EE000A30EE200A21EE8D
:1037B400000A31EEC00A05ED000A3CE005AB1D1D10
:1037C4001B1D53ED001A42F64C2308EB03039B1C0C
:1037D400B3F9004042F6502308EB030300EE904A8D
:1037E400F8EEE00A13ED000A30EE801A08F1200327
:1037F400B3EE090A73EE400A13ED000A60EE200AE4
:10380400B7EE000A30EE200A21EE001A08F11C047B
:103814002B4B00EE103A73EEC00A14ED000A60EE72
:10382400200AB7EE000A30EE200A21EE000A31EE3B
:10383400C00A05ED000A40F2000C0FFA8CFC019757
:103844008DED024A5FFA80FBB0EE425AF0EE624A16
:10385400B0EE434A1FFA81FA91469DED023A019F68
:10386400BCF5407F80F2ED8120231BB29CFBF3F476
:1038740024B240231BB29CFBF3F31BB25B001BB2CC
:10388400E61A70B202231BB29CFBF3F31BB25B007B
:103894001BB2ACEB030424B273B263405AB20CF112
:1038A400020424B204231BB294FBF3F52DB20CF1F1
:1038B400030407E0339388430000204200FEFF46E0
:1038C4003333534024B204231BB294FBF3F31BB2EF
:1038D400ED1A2DB20CF1010424B204231BB294FBA3
:1038E400F3F31BB2EC1824B204231BB29CFBF3F3D6
:1038F4001BB2E41A24B273B25B001BB2C3F101031E
:103904001BB2634359B2BBF1000F01D142B201E0D3
:1039140053B25AB207F282631B889A4240F07E8106
:103924004FEA4C03FB181B8800EE903AF8EE600A4D
:10393400CDED070AC54B00EE103AF4EEC00AF1EEE5
:1039440010FA09DDDDED070A4FF08F4300EE103A5F
:1039540030EEC00A8DED070A9DED070A60EE051AE8
:10396400CDED071A08F644444FEA4C03E51841F23A
:10397400442308EB03034FEA8C069C19B3EE090AAF
:1039840074EE400A14ED000A60EE200AB7EE000A55
:1039940070EE200AB5F9003000EE103AB8EEC00A15
:1039A40020EE201A41F6446308EB03039C19A84B4C
:1039B40000EE103A73EEC00A14ED000A60EE200A1D
:1039C400B7EE000A30EE200A21EE000A31EEC00AFA
:1039D4008DED070A08F125031B789B4522D042F69A
:1039E400502308EB030505F2080443001BB25B1ED9
:1039F4001BB200EE903AF8EEE00A14ED000A60EE15
:103A0400200A9DED070A30EE201A2B1D00EE901AB5
:103A1400F8EEE00A13ED000A20EE200A31EE400A27
:103A24008DED070A9DED070A80EE031A8DED071A46
:103A340008F1180605AB4FEA8A055B1953ED000A35
:103A440016ED000A20EE200A31EE400A8DED070A39
:103A540008F144044FEA8C03E31813ED001A42F60C
:103A6400442308EB03035B1953ED000A16ED000A27
:103A740020EE200A31EE401A08F12803B3EE090AB9
:103A840074EE400A13ED000A60EE200AB7EE000A55
:103A940030EE200A21EE000A8DED080AF0EE080A45
:103AA400B0EE400AFDF7F8FDDDED080A20EEA41A99
:103AB400DDED070A70EE810A20EE200AF5EE000A19
:103AC400B0EE400AFDF7E8FD08F12C04231D53ED88
:103AD400000A20EE201A231D53ED000A5D4B00EE70
:103AE400103A60EE800AB7EE000A70EE600A9DEDAF
:103AF400080A20EE200A70EE010A9DED070A80EE06
:103B0400200A30EE240AF5EE000AFDF7C5FD514BFC
:103B140000EE903A70EE600ACDED090A08F13C031C
:103B24009B1CB3F9003000EE103AB8EEC00AF4EE74
:103B3400C00AF1EE10FA04DA00235BB28DF83830D3
:103B44002DE008F13C031B1DB3F9003000EE903A60
:103B5400F8EEE00A9DED090AB4EEE00AF1EE10FA7F
:103B640004DA01235BB28DF8383018E008F13C0325
:103B74009B1DB3F9003000EE903AF8EEE00A9DED9B
:103B8400090AB4EEE00AF1EE10FA04DA02235BB299
:103B94008DF8383003E003235BB28DF838300AAC7B
:103BA4009DF938309D00631953ED000A9DED080A14
:103BB40020EE201A08F12C035D1908F13C049DF94C
:103BC40038305B00E318B3F9003000EE903AF8EEB9
:103BD400E00A9DED090A70EE600A15ED000A60EE38
:103BE400200AB7EE000A30EE200A61EE000A9DEDCD
:103BF400070A80EE200A30EE240AF5EE000AFDF7EB
:103C04004BFD144B00EE903A30EE600A8DED090A3C
:103C14004FEA8C0309EB030303ED000A0CF1010CDA
:103C24000FFA8CFC0197CDF80880CDF80C90ADF814
:103C340010A0BDF810A0DDF80C90DDF80880019FFD
:103C44000EE6DDF800E00FB0704700BF00FEFF464F
:083C54003333534033938843DE
:103F640083B0CDF800E00446002000235BB28DED61
:103F7400020A0299B1F1FF3F05D170492046FFF7CB
:103F84006BFE0320D5E0012502A9C91C097801F0C4
:103F94008001C9B269B102A9CA1C117881F08001FB
:103FA4001170691CCAB22D212170641CD7B2264637
:103FB40001E02646EFB2029929B961493046FFF77C
:103FC4004BFE0020B5E00299B1F1FF4F05D15D49E8
:103FD4003046FFF741FEF8B2ABE08DF80430C3B2CF
:103FE40034469DF90400DDED020AB7EE000AF4EE52
:103FF400C00AF1EE10FA0ADADDED020AB2EE040AA2
:1040040020EE800A8DED020A401E40B2EBE7DDEDA2
:10401400020AB2EE040AF4EEC00AF1EE10FA0BDB67
:10402400DDED020A484900EE101A20EE800A8DEDFB
:10403400020A401C40B2EAE702994900029102A92F
:10404400C91C09787F39CDB202A9CA1C012111709B
:104054000299A940029102A9C91C09783031217042
:10406400621C012803DB062801DC154603E02E212F
:104074001170551C0123062144B2C8B210B302A921
:10408400CA1C0021117002998A00029989180291B0
:1040940002994900029102A9C91C0978303129709A
:1040A4006D1C63B9611E49B24AB221B92E2129702F
:1040B4006D1C012100E0D9B254B2CBB2FFE7401E1F
:1040C400C0B2DBE72A4660B2511E0978302901D11B
:1040D400521EF9E7511E09782E2901D1521EFFE71D
:1040E40018B365211170521C002806DA2D211170B5
:1040F400521C414248B243B200E043B2D8B2D9B2F2
:10410400092907D90A21B0FBF1F1C9B23031117084
:10411400531C00E013460A22B0FBF2F102FB11012A
:10412400C9B230311970581C00E0104600210170EA
:104134000020DDF800E003B0704700BF7A00FF1FE5
:0C4144007E00FF1F8000FF1FCDCCCC3D93
:103C5C0081B00091014600980B461C465A1C154633
:103C6C000346421C10461A78227022780AB12B4661
:083C7C00F3E7084601B07047B0
:103F100049F63E47C0F2000700BF00BF7F1EFDD13B
:083F200000BF00BF00BF7047A5
:1044A00090B072B697480190974802909748039051
:1044B000974804909748059097480690974807902A
:1044C000974808909748099097480A9097480B900A
:1044D00097480C90974998480D9098480E900D98E1
:1044E00000F007000F9001F0010050B94CF220508D
:1044F000934908804DF62810088040F2D211914867
:1045000001809148007800F0010050B18F48007898
:1045100000F0080020B18D49087840F008000870CC
:1045200021E08B48006840F00051894801608948CB
:10453000006800F48070B0B9864801686FF470506C
:1045400001EA000040F4407182480160814800683F
:1045500040F480717F4801607E4801686FF400700C
:1045600001407C480160AA217B4801700D9800F051
:10457000100060B9794801786FF060000140774819
:10458000017077480078012800D0FAE71CE00D9808
:1045900000F01000C0B10E997248814208D9602124
:1045A0006E4801706E480078802800D0FAE70BE072
:1045B0006A4801786FF060000140684801706848FF
:1045C0000078012800D0FAE704996748016067483D
:1045D00001686FF440200140029800F4402001433C
:1045E00062480160624801686FF4403001400398FE
:1045F00000F4403001435E4801600F9830B10F98DD
:10460000012803D00F98022800D061E0019800F043
:10461000800050B9089800F0400028B10B9800F0D5
:104620000300002800D100E015E05248006840F483
:1046300000715048016050480168504801404E48A0
:104640000160069800F0040028B14D4801684B480D
:1046500001404B4801600A994A48017005994A484F
:104660000170059800F0040038B14848007800F067
:104670001000002800D1F8E705E04448007800F079
:10468000100000B1F9E74248007800F0BF01C9B25C
:10469000069800F0FD0001433D480170079800F0C6
:1046A000E0013C48007800F01F00014339480170E8
:1046B0000199394801700B99384801700F98022808
:1046C00005D13348007840F0020131480170B8E06C
:1046D000019800F0800020B90B9800F0030000B1B1
:1046E00065E02448006840F40071224801602248D7
:1046F00001682248014020480160069800F004004B
:1047000000F04EB80000000000000C0000000100A6
:10471000000014012200000024000000000000003E
:104720000200000046000000000000000000000041
:10473000000000000000000007000000C0D40100DD
:104740000E2005400020054000F0074002D0074041
:104750003C80044010D0034000E0074001E00740E7
:1047600003E00740803801004480044000700440AA
:10477000048004403880044048900440FFF8FFFE65
:104780004C90044008400640004006400640064069
:104790000140064003400640005006400C400640E1
:1047A00028B17A4801687A480140784801600A993E
:1047B000784801707848007800F0BF01C9B20698C7
:1047C00000F0FD00014374480170019973480170C5
:1047D0000B99734801700F98072805D1059840F090
:1047E00080017048017002E005996E4801700698DA
:1047F00000F0040048B10B9800F0030028B96A48A3
:10480000007800F0020000B9F9E7059800F0040014
:1048100038B16548007800F01000002800D1F8E7B2
:1048200005E06148007800F0100000B1F9E7079852
:1048300000F0E0015D48007800F01F0001435B4894
:104840000170089800F0BF0159480170099800F004
:10485000BF0158480170089800F0400028B1544842
:10486000007840F04001524801700F98052806D1A9
:104870004948007840F00201474801701BE00F985A
:10488000062803D00F98072800D014E04948007884
:1048900040F04001474801704348007800F0400074
:1048A00000B9F9E70F98072805D13E48007800F0D5
:1048B0003F013C4801700F9818B10F98032800D0B1
:1048C0002CE03948007800F00C0000B1F9E73A48D4
:1048D000006840F00101384801604FF0000137489E
:1048E00001604FF08001364801604FF00501354806
:1048F00001604FF00101324801603148006800F06A
:10490000800000B9F9E700212D4801602A480168BC
:104910006FF001000140284801602AE00F9801284B
:1049200003D00F98022800D007E01F48007800F05D
:104930000C00042800D0F8E71BE00F98042806D0EC
:104940000F98062803D00F98052800D007E01648D6
:10495000007800F00C00082800D0F8E709E00F9874
:10496000072806D11048007800F00C000C2800D071
:10497000F8E7154801686FF00F0001400C9800F04F
:104980000F0001431048016010B070474C90044084
:10499000FFF8FFFE08400640014006400050064078
:1049A0000C400640004006400640064003400640DA
:1049B000044006400540064038800440080004409A
:0C49C00000000440040004404880044053
:1044680081B002490248016001B07047C0D4010020
:044478007837FF1F73
:0844340081B0FEE701B0704702
:10443C0081B072B60849086840F47000086000BF8B
:10444C0000BF00BF00BFF1EE100A40F44000E1EEE7
:0C445C00100A62B601B0704788ED00E065
:1054D80000B5DFF814B0DFF814A0DFF814C0FEF749
:1054E800C5FE00BD704700BF0000FF1F9000FF1FF2
:0454F800DC51000083
:1055580000B5DFF810B0DFF810A0FEF749FF00BD76
:0C556800704700BF0000FF1FA844FF1F99
:100400000000000000000000FFFFFFFF02FDFFFFF3
:1049CC0000000000000000000000000000000000DB
:1049DC0000000000000000000000000000000000CB
:1049EC0000000000000000000000000000000000BB
:1049FC0000000000000000000000000000000000AB
:10504C000000000014000000010000001600000029
:10505C000200000018000000030000001A0000000D
:10506C00040000001C000000050000001E000000F1
:10507C0009000000200000000600000022000000D3
:10508C000A000000240000000700000028000000B7
:10509C000C0000002C00000010000000300000008C
:1050AC001100000038000000120000004000000059
:1050BC000F00000044000000130000004800000036
:1050CC001400000050000000150000005800000003
:1050DC0019000000600000001600000068000000CD
:1050EC001A00000070000000170000008000000093
:1050FC001C000000900000001D000000A00000003B
:10510C001E000000C000000022000000E0000000B3
:10511C001F000000F0000000230000000001000050
:10512C0024000000200100002500000040010000C8
:10513C0026000000800100002A000000C0010000D1
:10514C0027000000E00100002B000000000200001E
:10515C002C000000400200002D0000008002000026
:10516C002E0000000003000032000000800300004D
:10517C002F000000C00300003300000000040000FA
:10518C003400000080040000350000000005000021
:10519C0036000000000600003A0000000007000086
:1051AC0037000000800700003B00000000080000F2
:1051BC003C000000000900003D000000000A000057
:1051CC003E000000000C00003F000000000F00003B
:1051DC002D2D2D205374617274206D656173757261
:0A51EC00656D656E74202D2D2D00F9
:1051F600202D2D2D2053797374656D20496E6974A9
:06520600202D2D2D2000DB
:04520C00000000009E
:10521000416D6269656E742074656D70657261744C
:105220007572653A20200020002D2D2D20506978C0
:10523000656C2074656D7065726174757265206D42
:105240006174726978203332783234202D2D2D002C
:025250007C00E0
:0252520020003A
:02525400200038
:045256004E614E0057
:02525A00300022
:04525C00494E460071
:04526000000000004A
:045264000000000046
:045268000000000042
:10526C003103000030030000FFFFFFFF00000000CF
:10527C000000000000000000000000000000000022
:10528C000000000000000000000000000000000012
:10529C00000000000000080000000800FFFFFFFFF6
:1052AC0000000000000000000000000000000000F2
:1052BC0000000000000000000000000000000000E2
:0C52CC00000000000000000000000000D6
:1052D8006303000062030000FFFFFFFF00000000FF
:1052E80000000000000000000000000000000000B6
:1052F80000000000000000000000000000000000A6
:10530800000000000000080000000800FFFFFFFF89
:105318000000000000000000000000000000000085
:105328000000000000000000000000000000000075
:0C53380000000000000000000000000069
:105344006802000069020000FFFFFFFF0000000088
:105354000000000000000000000000000000000049
:105364000000000000000000000000000000000039
:10537400000000000000080000000800FFFFFFFF1D
:105384000000000000000000000000000000000019
:105394000000000000000000000000000000000009
:0C53A400000000000000000000000000FD
:1053B0005103000050030000FFFFFFFF000000004A
:1053C00000000000000000000000000000000000DD
:1053D00000000000000000000000000000000000CD
:1053E000000000000000080000000800FFFFFFFFB1
:1053F00000000000000000000000000000000000AD
:10540000000000000000000000000000000000009C
:0C54100000000000000000000000000090
:10541C009D050000A905000091050000790500001C
:10542C0085050000B5050000E5050000F10500004C
:10543C00D9050000C1050000CD05000019050000CC
:10544C00FFFFFFFFFFFFFFFFFFFFFFFFFFFFFFFF60
:10545C00FFFFFFFFFFFFFFFFFFFFFFFFFFFFFFFF50
:10546C00FFFFFFFFFFFFFFFFFFFFFFFFFFFFFFFF40
:10547C000000803F1872313FF0FD753E4758633D88
:10548C0058951D3C82C4AE3AA8782139EF938037E9
:08549C00A092A7354656153415
:1054A400FFE6DB2EC4FF7F3F80EFFFBE90E1A93E05
:1054B400EC8276BE82AD2B3E0E3CC3BD87D1133D3C
:0454C4004178D3BB9D
:0C54C800E5140000B11100008D1100007F
:0454D400801A060034
:00000001FF
